{
  "_format": "hh-sol-artifact-1",
  "contractName": "BondDepositoryFacet",
  "sourceName": "contracts/facets/Bond/BondDepositoryFacet.sol",
  "abi": [
    {
      "anonymous": false,
      "inputs": [
        {
          "indexed": false,
          "internalType": "uint256",
          "name": "deposit",
          "type": "uint256"
        },
        {
          "indexed": true,
          "internalType": "uint256",
          "name": "payout",
          "type": "uint256"
        },
        {
          "indexed": true,
          "internalType": "uint256",
          "name": "expires",
          "type": "uint256"
        },
        {
          "indexed": true,
          "internalType": "uint256",
          "name": "priceInUSD",
          "type": "uint256"
        }
      ],
      "name": "BondCreated",
      "type": "event"
    },
    {
      "anonymous": false,
      "inputs": [
        {
          "indexed": true,
          "internalType": "uint256",
          "name": "priceInUSD",
          "type": "uint256"
        },
        {
          "indexed": true,
          "internalType": "uint256",
          "name": "internalPrice",
          "type": "uint256"
        },
        {
          "indexed": true,
          "internalType": "uint256",
          "name": "debtRatio",
          "type": "uint256"
        }
      ],
      "name": "BondPriceChanged",
      "type": "event"
    },
    {
      "anonymous": false,
      "inputs": [
        {
          "indexed": true,
          "internalType": "address",
          "name": "recipient",
          "type": "address"
        },
        {
          "indexed": false,
          "internalType": "uint256",
          "name": "payout",
          "type": "uint256"
        },
        {
          "indexed": false,
          "internalType": "uint256",
          "name": "remaining",
          "type": "uint256"
        }
      ],
      "name": "BondRedeemed",
      "type": "event"
    },
    {
      "anonymous": false,
      "inputs": [
        {
          "indexed": false,
          "internalType": "uint256",
          "name": "initialBCV",
          "type": "uint256"
        },
        {
          "indexed": false,
          "internalType": "uint256",
          "name": "newBCV",
          "type": "uint256"
        },
        {
          "indexed": false,
          "internalType": "uint256",
          "name": "adjustment",
          "type": "uint256"
        },
        {
          "indexed": false,
          "internalType": "bool",
          "name": "addition",
          "type": "bool"
        }
      ],
      "name": "ControlVariableAdjustment",
      "type": "event"
    },
    {
      "inputs": [
        {
          "internalType": "address",
          "name": "_depositor",
          "type": "address"
        },
        {
          "internalType": "address",
          "name": "_principle",
          "type": "address"
        }
      ],
      "name": "bondInfo",
      "outputs": [
        {
          "components": [
            {
              "internalType": "uint256",
              "name": "payout",
              "type": "uint256"
            },
            {
              "internalType": "uint256",
              "name": "pricePaid",
              "type": "uint256"
            },
            {
              "internalType": "uint256",
              "name": "lastTime",
              "type": "uint256"
            },
            {
              "internalType": "uint256",
              "name": "vesting",
              "type": "uint256"
            }
          ],
          "internalType": "struct LibBondStorage.Bond",
          "name": "",
          "type": "tuple"
        }
      ],
      "stateMutability": "view",
      "type": "function"
    },
    {
      "inputs": [
        {
          "internalType": "address",
          "name": "_principle",
          "type": "address"
        }
      ],
      "name": "bondPrice",
      "outputs": [
        {
          "internalType": "uint256",
          "name": "price_",
          "type": "uint256"
        }
      ],
      "stateMutability": "view",
      "type": "function"
    },
    {
      "inputs": [
        {
          "internalType": "address",
          "name": "_principle",
          "type": "address"
        }
      ],
      "name": "bondPriceInUSD",
      "outputs": [
        {
          "internalType": "uint256",
          "name": "price_",
          "type": "uint256"
        }
      ],
      "stateMutability": "view",
      "type": "function"
    },
    {
      "inputs": [
        {
          "internalType": "address",
          "name": "_principle",
          "type": "address"
        }
      ],
      "name": "currentDebt",
      "outputs": [
        {
          "internalType": "uint256",
          "name": "",
          "type": "uint256"
        }
      ],
      "stateMutability": "view",
      "type": "function"
    },
    {
      "inputs": [
        {
          "internalType": "address",
          "name": "_principle",
          "type": "address"
        }
      ],
      "name": "debtDecay",
      "outputs": [
        {
          "internalType": "uint256",
          "name": "decay_",
          "type": "uint256"
        }
      ],
      "stateMutability": "view",
      "type": "function"
    },
    {
      "inputs": [
        {
          "internalType": "address",
          "name": "_principle",
          "type": "address"
        }
      ],
      "name": "debtRatio",
      "outputs": [
        {
          "internalType": "uint256",
          "name": "debtRatio_",
          "type": "uint256"
        }
      ],
      "stateMutability": "view",
      "type": "function"
    },
    {
      "inputs": [
        {
          "internalType": "uint256",
          "name": "_amount",
          "type": "uint256"
        },
        {
          "internalType": "uint256",
          "name": "_maxPrice",
          "type": "uint256"
        },
        {
          "internalType": "address",
          "name": "_depositor",
          "type": "address"
        },
        {
          "internalType": "address",
          "name": "_principle",
          "type": "address"
        }
      ],
      "name": "deposit",
      "outputs": [
        {
          "internalType": "uint256",
          "name": "",
          "type": "uint256"
        }
      ],
      "stateMutability": "nonpayable",
      "type": "function"
    },
    {
      "inputs": [
        {
          "internalType": "address",
          "name": "_Necc",
          "type": "address"
        },
        {
          "internalType": "address",
          "name": "_treasury",
          "type": "address"
        },
        {
          "internalType": "address",
          "name": "_DAO",
          "type": "address"
        }
      ],
      "name": "initializeBondDepository",
      "outputs": [],
      "stateMutability": "nonpayable",
      "type": "function"
    },
    {
      "inputs": [
        {
          "internalType": "uint256",
          "name": "_controlVariable",
          "type": "uint256"
        },
        {
          "internalType": "uint256",
          "name": "_minimumPrice",
          "type": "uint256"
        },
        {
          "internalType": "uint256",
          "name": "_maxPayout",
          "type": "uint256"
        },
        {
          "internalType": "uint256",
          "name": "_fee",
          "type": "uint256"
        },
        {
          "internalType": "uint256",
          "name": "_maxDebt",
          "type": "uint256"
        },
        {
          "internalType": "uint256",
          "name": "_initialDebt",
          "type": "uint256"
        },
        {
          "internalType": "uint256",
          "name": "_vestingTerm",
          "type": "uint256"
        },
        {
          "internalType": "bool",
          "name": "_isLiquidityBond",
          "type": "bool"
        },
        {
          "internalType": "address",
          "name": "_principle",
          "type": "address"
        }
      ],
      "name": "initializeBondTerms",
      "outputs": [],
      "stateMutability": "nonpayable",
      "type": "function"
    },
    {
      "inputs": [
        {
          "internalType": "address",
          "name": "_principle",
          "type": "address"
        }
      ],
      "name": "maxPayout",
      "outputs": [
        {
          "internalType": "uint256",
          "name": "",
          "type": "uint256"
        }
      ],
      "stateMutability": "view",
      "type": "function"
    },
    {
      "inputs": [
        {
          "internalType": "uint256",
          "name": "_value",
          "type": "uint256"
        },
        {
          "internalType": "address",
          "name": "_principle",
          "type": "address"
        }
      ],
      "name": "payoutFor",
      "outputs": [
        {
          "internalType": "uint256",
          "name": "",
          "type": "uint256"
        }
      ],
      "stateMutability": "view",
      "type": "function"
    },
    {
      "inputs": [
        {
          "internalType": "address",
          "name": "_depositor",
          "type": "address"
        },
        {
          "internalType": "address",
          "name": "_principle",
          "type": "address"
        }
      ],
      "name": "pendingPayoutFor",
      "outputs": [
        {
          "internalType": "uint256",
          "name": "pendingPayout_",
          "type": "uint256"
        }
      ],
      "stateMutability": "view",
      "type": "function"
    },
    {
      "inputs": [
        {
          "internalType": "address",
          "name": "_depositor",
          "type": "address"
        },
        {
          "internalType": "address",
          "name": "_principle",
          "type": "address"
        }
      ],
      "name": "percentVestedFor",
      "outputs": [
        {
          "internalType": "uint256",
          "name": "percentVested_",
          "type": "uint256"
        }
      ],
      "stateMutability": "view",
      "type": "function"
    },
    {
      "inputs": [
        {
          "internalType": "address",
          "name": "_token",
          "type": "address"
        }
      ],
      "name": "recoverLostToken",
      "outputs": [
        {
          "internalType": "bool",
          "name": "",
          "type": "bool"
        }
      ],
      "stateMutability": "nonpayable",
      "type": "function"
    },
    {
      "inputs": [
        {
          "internalType": "address",
          "name": "_recipient",
          "type": "address"
        },
        {
          "internalType": "address",
          "name": "_principle",
          "type": "address"
        },
        {
          "internalType": "bool",
          "name": "_stake",
          "type": "bool"
        }
      ],
      "name": "redeem",
      "outputs": [
        {
          "internalType": "uint256",
          "name": "",
          "type": "uint256"
        }
      ],
      "stateMutability": "nonpayable",
      "type": "function"
    },
    {
      "inputs": [
        {
          "internalType": "bool",
          "name": "_addition",
          "type": "bool"
        },
        {
          "internalType": "uint256",
          "name": "_increment",
          "type": "uint256"
        },
        {
          "internalType": "uint256",
          "name": "_target",
          "type": "uint256"
        },
        {
          "internalType": "uint256",
          "name": "_buffer",
          "type": "uint256"
        },
        {
          "internalType": "address",
          "name": "_principle",
          "type": "address"
        }
      ],
      "name": "setAdjustment",
      "outputs": [],
      "stateMutability": "nonpayable",
      "type": "function"
    },
    {
      "inputs": [
        {
          "internalType": "enum PARAMETER",
          "name": "_parameter",
          "type": "uint8"
        },
        {
          "internalType": "uint256",
          "name": "_input",
          "type": "uint256"
        },
        {
          "internalType": "address",
          "name": "_principle",
          "type": "address"
        }
      ],
      "name": "setBondTerms",
      "outputs": [],
      "stateMutability": "nonpayable",
      "type": "function"
    },
    {
      "inputs": [
        {
          "internalType": "address",
          "name": "_principle",
          "type": "address"
        }
      ],
      "name": "standardizedDebtRatio",
      "outputs": [
        {
          "internalType": "uint256",
          "name": "",
          "type": "uint256"
        }
      ],
      "stateMutability": "view",
      "type": "function"
    },
    {
      "inputs": [
        {
          "internalType": "address",
          "name": "_principle",
          "type": "address"
        }
      ],
      "name": "terms",
      "outputs": [
        {
          "components": [
            {
              "internalType": "uint256",
              "name": "controlVariable",
              "type": "uint256"
            },
            {
              "internalType": "uint256",
              "name": "minimumPrice",
              "type": "uint256"
            },
            {
              "internalType": "uint256",
              "name": "maxPayout",
              "type": "uint256"
            },
            {
              "internalType": "uint256",
              "name": "fee",
              "type": "uint256"
            },
            {
              "internalType": "uint256",
              "name": "maxDebt",
              "type": "uint256"
            },
            {
              "internalType": "uint256",
              "name": "vestingTerm",
              "type": "uint256"
            },
            {
              "internalType": "bool",
              "name": "isLiquidityBond",
              "type": "bool"
            }
          ],
          "internalType": "struct LibBondStorage.Terms",
          "name": "",
          "type": "tuple"
        }
      ],
      "stateMutability": "view",
      "type": "function"
    }
  ],
  "bytecode": "0x608060405234801561001057600080fd5b506144bb806100206000396000f3fe608060405234801561001057600080fd5b50600436106101215760003560e01c8063ad5fe5eb116100ad578063d6b99c5611610071578063d6b99c561461039e578063dc1d35a2146103ba578063de8d9708146103ea578063e300e98b1461041a578063f54fef401461044a57610121565b8063ad5fe5eb146102c2578063b11512e2146102f2578063b4abccba14610322578063b7eecf9314610352578063c8c819ac1461036e57610121565b806362356812116100f457806362356812146101e65780636fcb56221461020257806384715b1114610232578063884719f2146102625780638b429ae81461029257610121565b80630523f1c3146101265780632ddc1465146101565780632f74f46114610186578063415d9f65146101b6575b600080fd5b610140600480360381019061013b91906139e4565b610466565b60405161014d91906141d6565b60405180910390f35b610170600480360381019061016b91906137c9565b6104a3565b60405161017d91906141d6565b60405180910390f35b6101a0600480360381019061019b91906137c9565b6105bb565b6040516101ad91906141d6565b60405180910390f35b6101d060048036038101906101cb91906137f2565b6106b5565b6040516101dd91906141d6565b60405180910390f35b61020060048036038101906101fb91906138f5565b61077a565b005b61021c600480360381019061021791906137f2565b6108af565b60405161022991906141d6565b60405180910390f35b61024c60048036038101906102479190613a20565b6109c2565b60405161025991906141d6565b60405180910390f35b61027c600480360381019061027791906137c9565b61111f565b60405161028991906141d6565b60405180910390f35b6102ac60048036038101906102a7919061387d565b611171565b6040516102b991906141d6565b60405180910390f35b6102dc60048036038101906102d791906137f2565b6114e8565b6040516102e991906141a0565b60405180910390f35b61030c600480360381019061030791906137c9565b611597565b60405161031991906141d6565b60405180910390f35b61033c600480360381019061033791906137c9565b611655565b6040516103499190614025565b60405180910390f35b61036c6004803603810190610367919061382e565b6117ad565b005b610388600480360381019061038391906137c9565b611934565b60405161039591906141bb565b60405180910390f35b6103b860048036038101906103b39190613a83565b6119d4565b005b6103d460048036038101906103cf91906137c9565b611b4a565b6040516103e191906141d6565b60405180910390f35b61040460048036038101906103ff91906137c9565b611d06565b60405161041191906141d6565b60405180910390f35b610434600480360381019061042f91906137c9565b611de1565b60405161044191906141d6565b60405180910390f35b610464600480360381019061045f919061396c565b611ee5565b005b600061049b662386f26fc1000061048d6104888661048387611597565b612124565b612405565b61244190919063ffffffff16565b905092915050565b6000806104ba8360006124ca90919063ffffffff16565b90506000600801600082815260200190815260200160002060060160009054906101000a900460ff16156105a9576105a1633b9aca006105933073ffffffffffffffffffffffffffffffffffffffff166332da80a3876040518263ffffffff1660e01b815260040161052c9190613fe1565b60206040518083038186803b15801561054457600080fd5b505afa158015610558573d6000803e3d6000fd5b505050506040513d601f19601f8201168201806040525081019061057c91906139bb565b610585876105bb565b61254690919063ffffffff16565b61244190919063ffffffff16565b9150506105b6565b6105b2836105bb565b9150505b919050565b600080600060010160009054906101000a900473ffffffffffffffffffffffffffffffffffffffff1673ffffffffffffffffffffffffffffffffffffffff166318160ddd6040518163ffffffff1660e01b815260040160206040518083038186803b15801561062957600080fd5b505afa15801561063d573d6000803e3d6000fd5b505050506040513d601f19601f8201168201806040525081019061066191906139bb565b90506106ad670de0b6b3a764000061069f61069a610694633b9aca006106868961111f565b61254690919063ffffffff16565b85612124565b612405565b61244190919063ffffffff16565b915050919050565b6000806106cc8360006124ca90919063ffffffff16565b905060006106da85856108af565b9050600080600a0160008773ffffffffffffffffffffffffffffffffffffffff1673ffffffffffffffffffffffffffffffffffffffff1681526020019081526020016000206000848152602001908152602001600020600001549050612710821061074757809350610771565b61076e612710610760848461254690919063ffffffff16565b61244190919063ffffffff16565b93505b50505092915050565b6107826125cc565b60006107988260006124ca90919063ffffffff16565b90506107db6103e86107cd6019600060080160008681526020019081526020016000206000015461254690919063ffffffff16565b61244190919063ffffffff16565b85111561081d576040517f08c379a0000000000000000000000000000000000000000000000000000000008152600401610814906140c0565b60405180910390fd5b6040518060a001604052808715158152602001868152602001858152602001848152602001428152506000600901600083815260200190815260200160002060008201518160000160006101000a81548160ff02191690831515021790555060208201518160010155604082015181600201556060820151816003015560808201518160040155905050505050505050565b6000806108c68360006124ca90919063ffffffff16565b90506108d061369e565b6000600a0160008673ffffffffffffffffffffffffffffffffffffffff1673ffffffffffffffffffffffffffffffffffffffff1681526020019081526020016000206000838152602001908152602001600020604051806080016040529081600082015481526020016001820154815260200160028201548152602001600382015481525050905060006109718260400151426125d690919063ffffffff16565b905060008260600151905060008111156109b3576109ac8161099e6127108561254690919063ffffffff16565b61244190919063ffffffff16565b94506109b8565b600094505b5050505092915050565b60008073ffffffffffffffffffffffffffffffffffffffff168373ffffffffffffffffffffffffffffffffffffffff161415610a33576040517f08c379a0000000000000000000000000000000000000000000000000000000008152600401610a2a90614060565b60405180910390fd5b6000610a498360006124ca90919063ffffffff16565b9050610a5483612659565b60006008016000828152602001908152602001600020600401546000600b016000838152602001908152602001600020541115610ac6576040517f08c379a0000000000000000000000000000000000000000000000000000000008152600401610abd906140e0565b60405180910390fd5b6000610ad184611b4a565b90506000610ade856126db565b905080871015610b23576040517f08c379a0000000000000000000000000000000000000000000000000000000008152600401610b1a90614120565b60405180910390fd5b60008060020160009054906101000a900473ffffffffffffffffffffffffffffffffffffffff1673ffffffffffffffffffffffffffffffffffffffff1663d1b317e5878b6040518363ffffffff1660e01b8152600401610b84929190613ffc565b60206040518083038186803b158015610b9c57600080fd5b505afa158015610bb0573d6000803e3d6000fd5b505050506040513d601f19601f82011682018060405250810190610bd491906139bb565b90506000610be28288610466565b905062989680811015610c2a576040517f08c379a0000000000000000000000000000000000000000000000000000000008152600401610c2190614100565b60405180910390fd5b610c3387611de1565b811115610c75576040517f08c379a0000000000000000000000000000000000000000000000000000000008152600401610c6c90614180565b60405180910390fd5b6000610cb7612710610ca9600060080160008a8152602001908152602001600020600301548561254690919063ffffffff16565b61244190919063ffffffff16565b90506000610ce082610cd285876125d690919063ffffffff16565b6125d690919063ffffffff16565b9050610d0f33308e8c73ffffffffffffffffffffffffffffffffffffffff166127dd909392919063ffffffff16565b8873ffffffffffffffffffffffffffffffffffffffff1663095ea7b3600060020160009054906101000a900473ffffffffffffffffffffffffffffffffffffffff168e6040518363ffffffff1660e01b8152600401610d6f929190613ffc565b602060405180830381600087803b158015610d8957600080fd5b505af1158015610d9d573d6000803e3d6000fd5b505050506040513d601f19601f82011682018060405250810190610dc191906138cc565b50600060020160009054906101000a900473ffffffffffffffffffffffffffffffffffffffff1673ffffffffffffffffffffffffffffffffffffffff1663bc157ac18d8b846040518463ffffffff1660e01b8152600401610e249392919061421a565b602060405180830381600087803b158015610e3e57600080fd5b505af1158015610e52573d6000803e3d6000fd5b505050506040513d601f19601f82011682018060405250810190610e7691906139bb565b5060008214610ef557610ef4600060030160009054906101000a900473ffffffffffffffffffffffffffffffffffffffff1683600060010160009054906101000a900473ffffffffffffffffffffffffffffffffffffffff1673ffffffffffffffffffffffffffffffffffffffff1661289e9092919063ffffffff16565b5b610f1e846000600b0160008a81526020019081526020016000205461294090919063ffffffff16565b6000600b016000898152602001908152602001600020819055506040518060800160405280610fac856000600a0160008f73ffffffffffffffffffffffffffffffffffffffff1673ffffffffffffffffffffffffffffffffffffffff16815260200190815260200160002060008c81526020019081526020016000206000015461294090919063ffffffff16565b8152602001878152602001428152602001600060080160008a8152602001908152602001600020600501548152506000600a0160008c73ffffffffffffffffffffffffffffffffffffffff1673ffffffffffffffffffffffffffffffffffffffff16815260200190815260200160002060008981526020019081526020016000206000820151816000015560208201518160010155604082015181600201556060820151816003015590505085611085600060080160008a8152602001908152602001600020600501544261294090919063ffffffff16565b847f1fec6dc81f140574bf43f6b1e420ae1dd47928b9d57db8cbd7b8611063b85ae58f6040516110b591906141d6565b60405180910390a46110c6896105bb565b6110cf8a6126db565b6110d88b611b4a565b7f375b221f40939bfd8f49723a17cf7bc6d576ebf72efe2cc3e991826f5b3f390a60405160405180910390a461110d896129c8565b82975050505050505050949350505050565b6000806111368360006124ca90919063ffffffff16565b905061116961114484611d06565b6000600b016000848152602001908152602001600020546125d690919063ffffffff16565b915050919050565b6000806111888460006124ca90919063ffffffff16565b905061119261369e565b6000600a0160008773ffffffffffffffffffffffffffffffffffffffff1673ffffffffffffffffffffffffffffffffffffffff16815260200190815260200160002060008381526020019081526020016000206040518060800160405290816000820154815260200160018201548152602001600282015481526020016003820154815250509050600061122687876108af565b90506127108110611315576000600a0160008873ffffffffffffffffffffffffffffffffffffffff1673ffffffffffffffffffffffffffffffffffffffff168152602001908152602001600020600084815260200190815260200160002060008082016000905560018201600090556002820160009055600382016000905550508673ffffffffffffffffffffffffffffffffffffffff167f51c99f515c87b0d95ba97f616edd182e8f161c4932eac17c6fefe9dab58b77b1836000015160006040516112f4929190614251565b60405180910390a261130b87868460000151612cd4565b93505050506114e1565b600061134261271061133484866000015161254690919063ffffffff16565b61244190919063ffffffff16565b905060405180608001604052806113668386600001516125d690919063ffffffff16565b8152602001846020015181526020014281526020016113a86113958660400151426125d690919063ffffffff16565b86606001516125d690919063ffffffff16565b8152506000600a0160008a73ffffffffffffffffffffffffffffffffffffffff1673ffffffffffffffffffffffffffffffffffffffff1681526020019081526020016000206000868152602001908152602001600020600082015181600001556020820151816001015560408201518160020155606082015181600301559050508773ffffffffffffffffffffffffffffffffffffffff167f51c99f515c87b0d95ba97f616edd182e8f161c4932eac17c6fefe9dab58b77b1826000600a0160008c73ffffffffffffffffffffffffffffffffffffffff1673ffffffffffffffffffffffffffffffffffffffff1681526020019081526020016000206000888152602001908152602001600020600001546040516114c792919061427a565b60405180910390a26114da888783612cd4565b9450505050505b9392505050565b6114f061369e565b60006115068360006124ca90919063ffffffff16565b90506000600a0160008573ffffffffffffffffffffffffffffffffffffffff1673ffffffffffffffffffffffffffffffffffffffff168152602001908152602001600020600082815260200190815260200160002060405180608001604052908160008201548152602001600182015481526020016002820154815260200160038201548152505091505092915050565b6000806115ae8360006124ca90919063ffffffff16565b905061160f62989680611601633b9aca006115f36115cb886105bb565b600060080160008881526020019081526020016000206000015461254690919063ffffffff16565b61294090919063ffffffff16565b61244190919063ffffffff16565b9150600060080160008281526020019081526020016000206001015482101561164f57600060080160008281526020019081526020016000206001015491505b50919050565b60008060010160009054906101000a900473ffffffffffffffffffffffffffffffffffffffff1673ffffffffffffffffffffffffffffffffffffffff168273ffffffffffffffffffffffffffffffffffffffff1614156116b457600080fd5b6116c2600060060183612edf565b156116cc57600080fd5b6117a4600060030160009054906101000a900473ffffffffffffffffffffffffffffffffffffffff168373ffffffffffffffffffffffffffffffffffffffff166370a08231306040518263ffffffff1660e01b815260040161172e9190613fe1565b60206040518083038186803b15801561174657600080fd5b505afa15801561175a573d6000803e3d6000fd5b505050506040513d601f19601f8201168201806040525081019061177e91906139bb565b8473ffffffffffffffffffffffffffffffffffffffff1661289e9092919063ffffffff16565b60019050919050565b6117b56125cc565b600073ffffffffffffffffffffffffffffffffffffffff168373ffffffffffffffffffffffffffffffffffffffff1614156117ef57600080fd5b82600060010160006101000a81548173ffffffffffffffffffffffffffffffffffffffff021916908373ffffffffffffffffffffffffffffffffffffffff160217905550600073ffffffffffffffffffffffffffffffffffffffff168273ffffffffffffffffffffffffffffffffffffffff16141561186d57600080fd5b81600060020160006101000a81548173ffffffffffffffffffffffffffffffffffffffff021916908373ffffffffffffffffffffffffffffffffffffffff160217905550600073ffffffffffffffffffffffffffffffffffffffff168173ffffffffffffffffffffffffffffffffffffffff1614156118eb57600080fd5b80600060030160006101000a81548173ffffffffffffffffffffffffffffffffffffffff021916908373ffffffffffffffffffffffffffffffffffffffff160217905550505050565b61193c6136c6565b60006119528360006124ca90919063ffffffff16565b9050600060080160008281526020019081526020016000206040518060e00160405290816000820154815260200160018201548152602001600282015481526020016003820154815260200160048201548152602001600582015481526020016006820160009054906101000a900460ff161515151581525050915050919050565b6119dc6125cc565b6119ea600060060182612f0f565b506000611a018260006124ca90919063ffffffff16565b905060008060080160008381526020019081526020016000206000015414611a5e576040517f08c379a0000000000000000000000000000000000000000000000000000000008152600401611a5590614160565b60405180910390fd5b6040518060e001604052808b81526020018a815260200189815260200188815260200187815260200185815260200184151581525060006008016000838152602001908152602001600020600082015181600001556020820151816001015560408201518160020155606082015181600301556080820151816004015560a0820151816005015560c08201518160060160006101000a81548160ff021916908315150217905550905050846000600b01600083815260200190815260200160002081905550426000600c0160008381526020019081526020016000208190555050505050505050505050565b600080611b618360006124ca90919063ffffffff16565b90506000600801600082815260200190815260200160002060060160009054906101000a900460ff1615611c4c57611c456064611c373073ffffffffffffffffffffffffffffffffffffffff166332da80a3876040518263ffffffff1660e01b8152600401611bd09190613fe1565b60206040518083038186803b158015611be857600080fd5b505afa158015611bfc573d6000803e3d6000fd5b505050506040513d601f19601f82011682018060405250810190611c2091906139bb565b611c2987611597565b61254690919063ffffffff16565b61244190919063ffffffff16565b9150611d00565b611cfd6064611cef8573ffffffffffffffffffffffffffffffffffffffff1663313ce5676040518163ffffffff1660e01b815260040160206040518083038186803b158015611c9a57600080fd5b505afa158015611cae573d6000803e3d6000fd5b505050506040513d601f19601f82011682018060405250810190611cd29190613b49565b60ff16600a0a611ce187611597565b61254690919063ffffffff16565b61244190919063ffffffff16565b91505b50919050565b600080611d1d8360006124ca90919063ffffffff16565b90506000611d4a6000600c01600084815260200190815260200160002054426125d690919063ffffffff16565b9050611da06000600801600084815260200190815260200160002060050154611d92836000600b0160008781526020019081526020016000205461254690919063ffffffff16565b61244190919063ffffffff16565b92506000600b01600083815260200190815260200160002054831115611dda576000600b0160008381526020019081526020016000205492505b5050919050565b600080611df88360006124ca90919063ffffffff16565b9050611edd620186a0611ecf6000600801600085815260200190815260200160002060020154600060010160009054906101000a900473ffffffffffffffffffffffffffffffffffffffff1673ffffffffffffffffffffffffffffffffffffffff166318160ddd6040518163ffffffff1660e01b815260040160206040518083038186803b158015611e8957600080fd5b505afa158015611e9d573d6000803e3d6000fd5b505050506040513d601f19601f82011682018060405250810190611ec191906139bb565b61254690919063ffffffff16565b61244190919063ffffffff16565b915050919050565b611eed6125cc565b6000611f038260006124ca90919063ffffffff16565b905060006004811115611f1257fe5b846004811115611f1e57fe5b1415611f8d576201fa40831015611f6a576040517f08c379a0000000000000000000000000000000000000000000000000000000008152600401611f6190614140565b60405180910390fd5b82600060080160008381526020019081526020016000206005018190555061211e565b60016004811115611f9a57fe5b846004811115611fa657fe5b1415612014576103e8831115611ff1576040517f08c379a0000000000000000000000000000000000000000000000000000000008152600401611fe890614080565b60405180910390fd5b82600060080160008381526020019081526020016000206002018190555061211d565b6002600481111561202157fe5b84600481111561202d57fe5b141561209b57612710831115612078576040517f08c379a000000000000000000000000000000000000000000000000000000000815260040161206f90614040565b60405180910390fd5b82600060080160008381526020019081526020016000206003018190555061211c565b600360048111156120a857fe5b8460048111156120b457fe5b14156120dd5782600060080160008381526020019081526020016000206004018190555061211b565b6004808111156120e957fe5b8460048111156120f557fe5b141561211a578260006008016000838152602001908152602001600020600101819055505b5b5b5b5b50505050565b61212c613705565b60008211612185576040517f08c379a00000000000000000000000000000000000000000000000000000000081526004018080602001828103825260268152602001806144156026913960400191505060405180910390fd5b60008314156121c357604051806020016040528060007bffffffffffffffffffffffffffffffffffffffffffffffffffffffff1681525090506123ff565b7fffffffffffffffffffffffffffffffffffffffffffffffffffffffffffffffff71ffffffffffffffffffffffffffffffffffff1683116122fc57600082607060ff1685901b8161221057fe5b0490507fffffffffffffffffffffffffffffffffffffffffffffffffffffffffffffffff7bffffffffffffffffffffffffffffffffffffffffffffffffffffffff168111156122c7576040517f08c379a000000000000000000000000000000000000000000000000000000000815260040180806020018281038252601e8152602001807f4669786564506f696e743a3a6672616374696f6e3a206f766572666c6f77000081525060200191505060405180910390fd5b6040518060200160405280827bffffffffffffffffffffffffffffffffffffffffffffffffffffffff168152509150506123ff565b6000612318846e01000000000000000000000000000085612f3f565b90507fffffffffffffffffffffffffffffffffffffffffffffffffffffffffffffffff7bffffffffffffffffffffffffffffffffffffffffffffffffffffffff168111156123ce576040517f08c379a000000000000000000000000000000000000000000000000000000000815260040180806020018281038252601e8152602001807f4669786564506f696e743a3a6672616374696f6e3a206f766572666c6f77000081525060200191505060405180910390fd5b6040518060200160405280827bffffffffffffffffffffffffffffffffffffffffffffffffffffffff168152509150505b92915050565b60006612725dd1d243ab82600001517bffffffffffffffffffffffffffffffffffffffffffffffffffffffff168161243957fe5b049050919050565b60008082116124b8576040517f08c379a000000000000000000000000000000000000000000000000000000000815260040180806020018281038252601a8152602001807f536166654d6174683a206469766973696f6e206279207a65726f00000000000081525060200191505060405180910390fd5b8183816124c157fe5b04905092915050565b6000806124d984600601613001565b905060005b8181101561253d578373ffffffffffffffffffffffffffffffffffffffff1661250a8660060183613016565b73ffffffffffffffffffffffffffffffffffffffff161415612530578092505050612540565b80806001019150506124de565b50505b92915050565b60008083141561255957600090506125c6565b600082840290508284828161256a57fe5b04146125c1576040517f08c379a000000000000000000000000000000000000000000000000000000000815260040180806020018281038252602181526020018061443b6021913960400191505060405180910390fd5b809150505b92915050565b6125d4613030565b565b60008282111561264e576040517f08c379a000000000000000000000000000000000000000000000000000000000815260040180806020018281038252601e8152602001807f536166654d6174683a207375627472616374696f6e206f766572666c6f77000081525060200191505060405180910390fd5b818303905092915050565b600061266f8260006124ca90919063ffffffff16565b90506126a261267d83611d06565b6000600b016000848152602001908152602001600020546125d690919063ffffffff16565b6000600b01600083815260200190815260200160002081905550426000600c016000838152602001908152602001600020819055505050565b6000806126f28360006124ca90919063ffffffff16565b905061275362989680612745633b9aca0061273761270f886105bb565b600060080160008881526020019081526020016000206000015461254690919063ffffffff16565b61294090919063ffffffff16565b61244190919063ffffffff16565b9150600060080160008281526020019081526020016000206001015482101561279757600060080160008281526020019081526020016000206001015491506127d7565b600080600801600083815260200190815260200160002060010154146127d6576000806008016000838152602001908152602001600020600101819055505b5b50919050565b612898846323b872dd60e01b858585604051602401808473ffffffffffffffffffffffffffffffffffffffff1681526020018373ffffffffffffffffffffffffffffffffffffffff1681526020018281526020019350505050604051602081830303815290604052907bffffffffffffffffffffffffffffffffffffffffffffffffffffffff19166020820180517bffffffffffffffffffffffffffffffffffffffffffffffffffffffff83818316178352505050506130cb565b50505050565b61293b8363a9059cbb60e01b8484604051602401808373ffffffffffffffffffffffffffffffffffffffff16815260200182815260200192505050604051602081830303815290604052907bffffffffffffffffffffffffffffffffffffffffffffffffffffffff19166020820180517bffffffffffffffffffffffffffffffffffffffffffffffffffffffff83818316178352505050506130cb565b505050565b6000808284019050838110156129be576040517f08c379a000000000000000000000000000000000000000000000000000000000815260040180806020018281038252601b8152602001807f536166654d6174683a206164646974696f6e206f766572666c6f77000000000081525060200191505060405180910390fd5b8091505092915050565b60006129de8260006124ca90919063ffffffff16565b90506000612a276000600901600084815260200190815260200160002060030154600060090160008581526020019081526020016000206004015461294090919063ffffffff16565b905060008060090160008481526020019081526020016000206001015414158015612a525750804210155b15612ccf5760008060080160008481526020019081526020016000206000015490506000600901600084815260200190815260200160002060000160009054906101000a900460ff1615612b5f57612ae56000600901600085815260200190815260200160002060010154600060080160008681526020019081526020016000206000015461294090919063ffffffff16565b60006008016000858152602001908152602001600020600001819055506000600901600084815260200190815260200160002060020154600060080160008581526020019081526020016000206000015410612b5a576000806009016000858152602001908152602001600020600101819055505b612c1a565b612ba4600060090160008581526020019081526020016000206001015460006008016000868152602001908152602001600020600001546125d690919063ffffffff16565b60006008016000858152602001908152602001600020600001819055506000600901600084815260200190815260200160002060020154600060080160008581526020019081526020016000206000015411612c19576000806009016000858152602001908152602001600020600101819055505b5b4260006009016000858152602001908152602001600020600401819055507fb923e581a0f83128e9e1d8297aa52b18d6744310476e0b54509c054cd7a93b2a81600060080160008681526020019081526020016000206000015460006009016000878152602001908152602001600020600101546000600901600088815260200190815260200160002060000160009054906101000a900460ff16604051612cc594939291906142a3565b60405180910390a1505b505050565b600082612d9357600060010160009054906101000a900473ffffffffffffffffffffffffffffffffffffffff1673ffffffffffffffffffffffffffffffffffffffff1663a9059cbb85846040518363ffffffff1660e01b8152600401612d3b929190613ffc565b602060405180830381600087803b158015612d5557600080fd5b505af1158015612d69573d6000803e3d6000fd5b505050506040513d601f19601f82011682018060405250810190612d8d91906138cc565b50612ed5565b600060010160009054906101000a900473ffffffffffffffffffffffffffffffffffffffff1673ffffffffffffffffffffffffffffffffffffffff1663095ea7b330846040518363ffffffff1660e01b8152600401612df3929190613ffc565b602060405180830381600087803b158015612e0d57600080fd5b505af1158015612e21573d6000803e3d6000fd5b505050506040513d601f19601f82011682018060405250810190612e4591906138cc565b503073ffffffffffffffffffffffffffffffffffffffff16637acb775783866040518363ffffffff1660e01b8152600401612e819291906141f1565b602060405180830381600087803b158015612e9b57600080fd5b505af1158015612eaf573d6000803e3d6000fd5b505050506040513d601f19601f82011682018060405250810190612ed391906138cc565b505b8190509392505050565b6000612f07836000018373ffffffffffffffffffffffffffffffffffffffff1660001b6131ba565b905092915050565b6000612f37836000018373ffffffffffffffffffffffffffffffffffffffff1660001b6131dd565b905092915050565b6000806000612f4e868661324d565b9150915060008480612f5c57fe5b868809905082811115612f70576001820391505b8083039250848210612fea576040517f08c379a000000000000000000000000000000000000000000000000000000000815260040180806020018281038252601a8152602001807f46756c6c4d6174683a3a6d756c4469763a206f766572666c6f7700000000000081525060200191505060405180910390fd5b612ff58383876132a0565b93505050509392505050565b600061300f8260000161333d565b9050919050565b6000613025836000018361334e565b60001c905092915050565b6130386133d1565b60040160009054906101000a900473ffffffffffffffffffffffffffffffffffffffff1673ffffffffffffffffffffffffffffffffffffffff163373ffffffffffffffffffffffffffffffffffffffff16146130c9576040517f08c379a00000000000000000000000000000000000000000000000000000000081526004016130c0906140a0565b60405180910390fd5b565b606061312d826040518060400160405280602081526020017f5361666545524332303a206c6f772d6c6576656c2063616c6c206661696c65648152508573ffffffffffffffffffffffffffffffffffffffff166133fe9092919063ffffffff16565b90506000815111156131b55780806020019051602081101561314e57600080fd5b81019080805190602001909291905050506131b4576040517f08c379a000000000000000000000000000000000000000000000000000000000815260040180806020018281038252602a81526020018061445c602a913960400191505060405180910390fd5b5b505050565b600080836001016000848152602001908152602001600020541415905092915050565b60006131e983836131ba565b613242578260000182908060018154018082558091505060019003906000526020600020016000909190919091505582600001805490508360010160008481526020019081526020016000208190555060019050613247565b600090505b92915050565b60008060007fffffffffffffffffffffffffffffffffffffffffffffffffffffffffffffffff8061327a57fe5b84860990508385029250828103915082811015613298576001820391505b509250929050565b60008082600003831690508083816132b457fe5b0492508085816132c057fe5b04945060018182600003816132d157fe5b04018402850194506000600190508084026002038102905080840260020381029050808402600203810290508084026002038102905080840260020381029050808402600203810290508084026002038102905080840260020381029050808602925050509392505050565b600081600001805490509050919050565b6000818360000180549050116133af576040517f08c379a00000000000000000000000000000000000000000000000000000000081526004018080602001828103825260228152602001806143cd6022913960400191505060405180910390fd5b8260000182815481106133be57fe5b9060005260206000200154905092915050565b6000807fc8fcad8db84d3cc18b4c41d551ea0ee66dd599cde068d998e57d5e09332c131c90508091505090565b606061340d8484600085613416565b90509392505050565b606082471015613471576040517f08c379a00000000000000000000000000000000000000000000000000000000081526004018080602001828103825260268152602001806143ef6026913960400191505060405180910390fd5b61347a856135bf565b6134ec576040517f08c379a000000000000000000000000000000000000000000000000000000000815260040180806020018281038252601d8152602001807f416464726573733a2063616c6c20746f206e6f6e2d636f6e747261637400000081525060200191505060405180910390fd5b600060608673ffffffffffffffffffffffffffffffffffffffff1685876040518082805190602001908083835b6020831061353c5780518252602082019150602081019050602083039250613519565b6001836020036101000a03801982511681845116808217855250505050505090500191505060006040518083038185875af1925050503d806000811461359e576040519150601f19603f3d011682016040523d82523d6000602084013e6135a3565b606091505b50915091506135b38282866135d2565b92505050949350505050565b600080823b905060008111915050919050565b606083156135e257829050613697565b6000835111156135f55782518084602001fd5b816040517f08c379a00000000000000000000000000000000000000000000000000000000081526004018080602001828103825283818151815260200191508051906020019080838360005b8381101561365c578082015181840152602081019050613641565b50505050905090810190601f1680156136895780820380516001836020036101000a031916815260200191505b509250505060405180910390fd5b9392505050565b6040518060800160405280600081526020016000815260200160008152602001600081525090565b6040518060e001604052806000815260200160008152602001600081526020016000815260200160008152602001600081526020016000151581525090565b604051806020016040528060007bffffffffffffffffffffffffffffffffffffffffffffffffffffffff1681525090565b60008135905061374581614360565b92915050565b60008135905061375a81614377565b92915050565b60008151905061376f81614377565b92915050565b6000813590506137848161438e565b92915050565b6000813590506137998161439e565b92915050565b6000815190506137ae8161439e565b92915050565b6000815190506137c3816143b5565b92915050565b6000602082840312156137db57600080fd5b60006137e984828501613736565b91505092915050565b6000806040838503121561380557600080fd5b600061381385828601613736565b925050602061382485828601613736565b9150509250929050565b60008060006060848603121561384357600080fd5b600061385186828701613736565b935050602061386286828701613736565b925050604061387386828701613736565b9150509250925092565b60008060006060848603121561389257600080fd5b60006138a086828701613736565b93505060206138b186828701613736565b92505060406138c28682870161374b565b9150509250925092565b6000602082840312156138de57600080fd5b60006138ec84828501613760565b91505092915050565b600080600080600060a0868803121561390d57600080fd5b600061391b8882890161374b565b955050602061392c8882890161378a565b945050604061393d8882890161378a565b935050606061394e8882890161378a565b925050608061395f88828901613736565b9150509295509295909350565b60008060006060848603121561398157600080fd5b600061398f86828701613775565b93505060206139a08682870161378a565b92505060406139b186828701613736565b9150509250925092565b6000602082840312156139cd57600080fd5b60006139db8482850161379f565b91505092915050565b600080604083850312156139f757600080fd5b6000613a058582860161378a565b9250506020613a1685828601613736565b9150509250929050565b60008060008060808587031215613a3657600080fd5b6000613a448782880161378a565b9450506020613a558782880161378a565b9350506040613a6687828801613736565b9250506060613a7787828801613736565b91505092959194509250565b60008060008060008060008060006101208a8c031215613aa257600080fd5b6000613ab08c828d0161378a565b9950506020613ac18c828d0161378a565b9850506040613ad28c828d0161378a565b9750506060613ae38c828d0161378a565b9650506080613af48c828d0161378a565b95505060a0613b058c828d0161378a565b94505060c0613b168c828d0161378a565b93505060e0613b278c828d0161374b565b925050610100613b398c828d01613736565b9150509295985092959850929598565b600060208284031215613b5b57600080fd5b6000613b69848285016137b4565b91505092915050565b613b7b816142f9565b82525050565b613b8a8161430b565b82525050565b613b998161430b565b82525050565b613ba88161434e565b82525050565b6000613bbb601c836142e8565b91507f44414f206665652063616e6e6f7420657863656564207061796f7574000000006000830152602082019050919050565b6000613bfb600f836142e8565b91507f496e76616c6964206164647265737300000000000000000000000000000000006000830152602082019050919050565b6000613c3b6020836142e8565b91507f5061796f75742063616e6e6f742062652061626f766520312070657263656e746000830152602082019050919050565b6000613c7b6022836142e8565b91507f4c69624469616d6f6e643a20696e76616c696420636f6e7472616374206f776e60008301527f65720000000000000000000000000000000000000000000000000000000000006020830152604082019050919050565b6000613ce16013836142e8565b91507f496e6372656d656e7420746f6f206c61726765000000000000000000000000006000830152602082019050919050565b6000613d216014836142e8565b91507f4d617820636170616369747920726561636865640000000000000000000000006000830152602082019050919050565b6000613d61600e836142e8565b91507f426f6e6420746f6f20736d616c6c0000000000000000000000000000000000006000830152602082019050919050565b6000613da16023836142e8565b91507f536c697070616765206c696d69743a206d6f7265207468616e206d617820707260008301527f69636500000000000000000000000000000000000000000000000000000000006020830152604082019050919050565b6000613e076024836142e8565b91507f56657374696e67206d757374206265206c6f6e676572207468616e203336206860008301527f6f757273000000000000000000000000000000000000000000000000000000006020830152604082019050919050565b6000613e6d6020836142e8565b91507f426f6e6473206d75737420626520696e697469616c697a65642066726f6d20306000830152602082019050919050565b6000613ead600e836142e8565b91507f426f6e6420746f6f206c617267650000000000000000000000000000000000006000830152602082019050919050565b608082016000820151613ef66000850182613fc3565b506020820151613f096020850182613fc3565b506040820151613f1c6040850182613fc3565b506060820151613f2f6060850182613fc3565b50505050565b60e082016000820151613f4b6000850182613fc3565b506020820151613f5e6020850182613fc3565b506040820151613f716040850182613fc3565b506060820151613f846060850182613fc3565b506080820151613f976080850182613fc3565b5060a0820151613faa60a0850182613fc3565b5060c0820151613fbd60c0850182613b81565b50505050565b613fcc81614337565b82525050565b613fdb81614337565b82525050565b6000602082019050613ff66000830184613b72565b92915050565b60006040820190506140116000830185613b72565b61401e6020830184613fd2565b9392505050565b600060208201905061403a6000830184613b90565b92915050565b6000602082019050818103600083015261405981613bae565b9050919050565b6000602082019050818103600083015261407981613bee565b9050919050565b6000602082019050818103600083015261409981613c2e565b9050919050565b600060208201905081810360008301526140b981613c6e565b9050919050565b600060208201905081810360008301526140d981613cd4565b9050919050565b600060208201905081810360008301526140f981613d14565b9050919050565b6000602082019050818103600083015261411981613d54565b9050919050565b6000602082019050818103600083015261413981613d94565b9050919050565b6000602082019050818103600083015261415981613dfa565b9050919050565b6000602082019050818103600083015261417981613e60565b9050919050565b6000602082019050818103600083015261419981613ea0565b9050919050565b60006080820190506141b56000830184613ee0565b92915050565b600060e0820190506141d06000830184613f35565b92915050565b60006020820190506141eb6000830184613fd2565b92915050565b60006040820190506142066000830185613fd2565b6142136020830184613b72565b9392505050565b600060608201905061422f6000830186613fd2565b61423c6020830185613b72565b6142496040830184613fd2565b949350505050565b60006040820190506142666000830185613fd2565b6142736020830184613b9f565b9392505050565b600060408201905061428f6000830185613fd2565b61429c6020830184613fd2565b9392505050565b60006080820190506142b86000830187613fd2565b6142c56020830186613fd2565b6142d26040830185613fd2565b6142df6060830184613b90565b95945050505050565b600082825260208201905092915050565b600061430482614317565b9050919050565b60008115159050919050565b600073ffffffffffffffffffffffffffffffffffffffff82169050919050565b6000819050919050565b600060ff82169050919050565b600061435982614337565b9050919050565b614369816142f9565b811461437457600080fd5b50565b6143808161430b565b811461438b57600080fd5b50565b6005811061439b57600080fd5b50565b6143a781614337565b81146143b257600080fd5b50565b6143be81614341565b81146143c957600080fd5b5056fe456e756d657261626c655365743a20696e646578206f7574206f6620626f756e6473416464726573733a20696e73756666696369656e742062616c616e636520666f722063616c6c4669786564506f696e743a3a6672616374696f6e3a206469766973696f6e206279207a65726f536166654d6174683a206d756c7469706c69636174696f6e206f766572666c6f775361666545524332303a204552433230206f7065726174696f6e20646964206e6f742073756363656564a2646970667358221220134448fa8f9892a684e97e494d19108a554dcc9b9d299816422b8e28ba62914264736f6c63430007050033",
  "linkReferences": {},
  "deployedLinkReferences": {}
}