{
  "_format": "hh-sol-artifact-1",
  "contractName": "DeltaYieldTracker",
  "sourceName": "contracts/tokens/DeltaYieldTracker.sol",
  "abi": [
    {
      "inputs": [],
      "stateMutability": "nonpayable",
      "type": "constructor"
    },
    {
      "anonymous": false,
      "inputs": [
        {
          "indexed": false,
          "internalType": "address",
          "name": "receiver",
          "type": "address"
        },
        {
          "indexed": false,
          "internalType": "uint256",
          "name": "amount",
          "type": "uint256"
        }
      ],
      "name": "Claim",
      "type": "event"
    },
    {
      "inputs": [],
      "name": "PRECISION",
      "outputs": [
        {
          "internalType": "uint256",
          "name": "",
          "type": "uint256"
        }
      ],
      "stateMutability": "view",
      "type": "function"
    },
    {
      "inputs": [
        {
          "internalType": "address",
          "name": "_account",
          "type": "address"
        }
      ],
      "name": "_getPositiveTotalCollateralDeltaForAccount",
      "outputs": [
        {
          "internalType": "uint256",
          "name": "",
          "type": "uint256"
        }
      ],
      "stateMutability": "view",
      "type": "function"
    },
    {
      "inputs": [
        {
          "internalType": "address",
          "name": "_account",
          "type": "address"
        }
      ],
      "name": "_getTotalCollateralMintedForAccount",
      "outputs": [
        {
          "internalType": "uint256",
          "name": "",
          "type": "uint256"
        }
      ],
      "stateMutability": "view",
      "type": "function"
    },
    {
      "inputs": [
        {
          "internalType": "address",
          "name": "_collateral",
          "type": "address"
        }
      ],
      "name": "addCollateral",
      "outputs": [],
      "stateMutability": "nonpayable",
      "type": "function"
    },
    {
      "inputs": [
        {
          "internalType": "address",
          "name": "_account",
          "type": "address"
        }
      ],
      "name": "claim",
      "outputs": [],
      "stateMutability": "nonpayable",
      "type": "function"
    },
    {
      "inputs": [
        {
          "internalType": "address",
          "name": "_account",
          "type": "address"
        }
      ],
      "name": "claimable",
      "outputs": [
        {
          "internalType": "uint256",
          "name": "",
          "type": "uint256"
        }
      ],
      "stateMutability": "view",
      "type": "function"
    },
    {
      "inputs": [
        {
          "internalType": "address",
          "name": "",
          "type": "address"
        }
      ],
      "name": "claimableReward",
      "outputs": [
        {
          "internalType": "uint256",
          "name": "",
          "type": "uint256"
        }
      ],
      "stateMutability": "view",
      "type": "function"
    },
    {
      "inputs": [
        {
          "internalType": "address",
          "name": "",
          "type": "address"
        },
        {
          "internalType": "address",
          "name": "",
          "type": "address"
        }
      ],
      "name": "collateralDelta",
      "outputs": [
        {
          "internalType": "int256",
          "name": "",
          "type": "int256"
        }
      ],
      "stateMutability": "view",
      "type": "function"
    },
    {
      "inputs": [
        {
          "internalType": "address",
          "name": "",
          "type": "address"
        },
        {
          "internalType": "address",
          "name": "",
          "type": "address"
        }
      ],
      "name": "collateralMinted",
      "outputs": [
        {
          "internalType": "uint256",
          "name": "",
          "type": "uint256"
        }
      ],
      "stateMutability": "view",
      "type": "function"
    },
    {
      "inputs": [
        {
          "internalType": "uint256",
          "name": "",
          "type": "uint256"
        }
      ],
      "name": "collaterals",
      "outputs": [
        {
          "internalType": "address",
          "name": "",
          "type": "address"
        }
      ],
      "stateMutability": "view",
      "type": "function"
    },
    {
      "inputs": [],
      "name": "cumulativeReward",
      "outputs": [
        {
          "internalType": "uint256",
          "name": "",
          "type": "uint256"
        }
      ],
      "stateMutability": "view",
      "type": "function"
    },
    {
      "inputs": [],
      "name": "distributor",
      "outputs": [
        {
          "internalType": "address",
          "name": "",
          "type": "address"
        }
      ],
      "stateMutability": "view",
      "type": "function"
    },
    {
      "inputs": [],
      "name": "getCollaterals",
      "outputs": [
        {
          "internalType": "address[]",
          "name": "",
          "type": "address[]"
        }
      ],
      "stateMutability": "view",
      "type": "function"
    },
    {
      "inputs": [
        {
          "internalType": "address",
          "name": "_collateralToken",
          "type": "address"
        }
      ],
      "name": "getTokensPerIntervalPerCollateral",
      "outputs": [
        {
          "internalType": "uint256",
          "name": "",
          "type": "uint256"
        }
      ],
      "stateMutability": "view",
      "type": "function"
    },
    {
      "inputs": [],
      "name": "gov",
      "outputs": [
        {
          "internalType": "address",
          "name": "",
          "type": "address"
        }
      ],
      "stateMutability": "view",
      "type": "function"
    },
    {
      "inputs": [
        {
          "internalType": "address",
          "name": "",
          "type": "address"
        }
      ],
      "name": "previousCumulatedReward",
      "outputs": [
        {
          "internalType": "uint256",
          "name": "",
          "type": "uint256"
        }
      ],
      "stateMutability": "view",
      "type": "function"
    },
    {
      "inputs": [
        {
          "internalType": "address",
          "name": "_distributor",
          "type": "address"
        }
      ],
      "name": "setDistributor",
      "outputs": [],
      "stateMutability": "nonpayable",
      "type": "function"
    },
    {
      "inputs": [
        {
          "internalType": "address",
          "name": "_gov",
          "type": "address"
        }
      ],
      "name": "setGov",
      "outputs": [],
      "stateMutability": "nonpayable",
      "type": "function"
    },
    {
      "inputs": [
        {
          "internalType": "address",
          "name": "",
          "type": "address"
        }
      ],
      "name": "totalCollateralDelta",
      "outputs": [
        {
          "internalType": "int256",
          "name": "",
          "type": "int256"
        }
      ],
      "stateMutability": "view",
      "type": "function"
    },
    {
      "inputs": [
        {
          "internalType": "address",
          "name": "",
          "type": "address"
        }
      ],
      "name": "totalCollateralMinted",
      "outputs": [
        {
          "internalType": "uint256",
          "name": "",
          "type": "uint256"
        }
      ],
      "stateMutability": "view",
      "type": "function"
    },
    {
      "inputs": [
        {
          "internalType": "address",
          "name": "_sender",
          "type": "address"
        },
        {
          "internalType": "address",
          "name": "_recipient",
          "type": "address"
        }
      ],
      "name": "transferMintedRewards",
      "outputs": [],
      "stateMutability": "nonpayable",
      "type": "function"
    },
    {
      "inputs": [
        {
          "internalType": "address",
          "name": "_account",
          "type": "address"
        },
        {
          "internalType": "address",
          "name": "_collateralToken",
          "type": "address"
        },
        {
          "internalType": "uint256",
          "name": "_sizeDelta",
          "type": "uint256"
        },
        {
          "internalType": "bool",
          "name": "_isLong",
          "type": "bool"
        },
        {
          "internalType": "bool",
          "name": "_isIncreasePosition",
          "type": "bool"
        }
      ],
      "name": "updateDeltaRewards",
      "outputs": [],
      "stateMutability": "nonpayable",
      "type": "function"
    },
    {
      "inputs": [
        {
          "internalType": "address",
          "name": "_account",
          "type": "address"
        },
        {
          "internalType": "address",
          "name": "_tokenIn",
          "type": "address"
        },
        {
          "internalType": "uint256",
          "name": "_amountIn",
          "type": "uint256"
        },
        {
          "internalType": "bool",
          "name": "_isMinting",
          "type": "bool"
        }
      ],
      "name": "updateMintedRewards",
      "outputs": [],
      "stateMutability": "nonpayable",
      "type": "function"
    },
    {
      "inputs": [
        {
          "internalType": "address",
          "name": "_token",
          "type": "address"
        },
        {
          "internalType": "address",
          "name": "_account",
          "type": "address"
        },
        {
          "internalType": "uint256",
          "name": "_amount",
          "type": "uint256"
        }
      ],
      "name": "withdrawToken",
      "outputs": [],
      "stateMutability": "nonpayable",
      "type": "function"
    }
  ],
  "bytecode": "0x608060405234801561001057600080fd5b506001600055600280546001600160a01b0319163317905561213c806100376000396000f3fe608060405234801561001057600080fd5b50600436106101285760003560e01c806301e336671461012d57806311458cfb1461014257806312d43a511461015557806313aa27431461017e5780631e83409a14610191578063211f131c146101a45780632146a7c1146101c557806324c1173b146101f05780633b5418d114610203578063402914f51461021657806345f2e4c71461022957806375619ab51461024957806378b926361461025c578063920a4b6814610271578063aaf5eb681461029c578063ada25cd2146102af578063bfe10928146102c2578063c1e4db56146102d5578063cb338ff5146102de578063cfad57a2146102f1578063e950342514610304578063ef48c9a414610324578063f0d2d5a814610344578063f798f9f714610357575b600080fd5b61014061013b366004611c97565b610377565b005b610140610150366004611d29565b6103c3565b600254610168906001600160a01b031681565b6040516101759190611df8565b60405180910390f35b61014061018c366004611c5f565b6106a1565b61014061019f366004611c27565b6109f3565b6101b76101b2366004611c27565b610b7a565b604051908152602001610175565b6101b76101d3366004611c5f565b600860209081526000928352604080842090915290825290205481565b6101686101fe366004611dac565b610c14565b6101b7610211366004611c27565b610c3e565b6101b7610224366004611c27565b610ce7565b6101b7610237366004611c27565b60096020526000908152604090205481565b610140610257366004611c27565b61119f565b6102646111eb565b6040516101759190611e25565b6101b761027f366004611c5f565b600a60209081526000928352604080842090915290825290205481565b6101b768327cb2734119d3b7a9601e1b81565b6101406102bd366004611cd7565b61124d565b600354610168906001600160a01b031681565b6101b760045481565b6101b76102ec366004611c27565b611515565b6101406102ff366004611c27565b61159c565b6101b7610312366004611c27565b60066020526000908152604090205481565b6101b7610332366004611c27565b60076020526000908152604090205481565b610140610352366004611c27565b6115e8565b6101b7610365366004611c27565b60056020526000908152604090205481565b6002546001600160a01b031633146103aa5760405162461bcd60e51b81526004016103a190611ea5565b60405180910390fd5b6103be6001600160a01b0384168383611663565b505050565b600260005414156103e65760405162461bcd60e51b81526004016103a190611edb565b60026000556103f885858585856116b9565b6001600160a01b038086166000908152600a60209081526040808320938816835292905290812054818112156104375761043460001982611f8b565b90505b6001600160a01b038088166000908152600860209081526040808320938a168352929052908120546104699083611888565b90508061047857505050610695565b6003546001600160a01b031615610514578015610514576003546040516363453ae160e01b81526001600160a01b03909116906363453ae1906104bf908a90600401611df8565b602060405180830381600087803b1580156104d957600080fd5b505af11580156104ed573d6000803e3d6000fd5b505050506040513d601f19601f820116820180604052508101906105119190611dc4565b92505b6004546001600160a01b03881660009081526009602052604081205461059e908212610565576001600160a01b038a166000908152600960205260409020546105609060001990611f8b565b61057f565b6001600160a01b038a166000908152600960205260409020545b6001600160a01b038b1660009081526007602052604090205490611888565b90506000811180156105b05750600085115b156105e7576105df6105d8826105d28868327cb2734119d3b7a9601e1b61189b565b906118a7565b8390611888565b600481905591505b816105f6575050505050610695565b6001600160a01b038a161561068f576001600160a01b038a166000908152600560205260408120549061066561064668327cb2734119d3b7a9601e1b6105d261063f88876118b3565b899061189b565b6001600160a01b038e1660009081526006602052604090205490611888565b6001600160a01b038d16600090815260066020908152604080832093909355600590522084905550505b50505050505b50506001600055505050565b60045460006106af84610b7a565b905060005b6001548110156108ff576001600160a01b038516600090815260086020526040812060018054839190859081106106fb57634e487b7160e01b600052603260045260246000fd5b60009182526020808320909101546001600160a01b039081168452838201949094526040928301822054938916825260089052908120600180549192918690811061075657634e487b7160e01b600052603260045260246000fd5b60009182526020808320909101546001600160a01b0390811684528382019490945260409283018220949094559189168252600890925290812060018054839190869081106107b557634e487b7160e01b600052603260045260246000fd5b60009182526020808320909101546001600160a01b03908116845290830193909352604090910190209190915560035416156108ae57600354600180546001600160a01b03909216916363453ae191908590811061082357634e487b7160e01b600052603260045260246000fd5b6000918252602090912001546040516001600160e01b031960e084901b168152610859916001600160a01b031690600401611df8565b602060405180830381600087803b15801561087357600080fd5b505af1158015610887573d6000803e3d6000fd5b505050506040513d601f19601f820116820180604052508101906108ab9190611dc4565b90505b8280158015906108be5750600082115b156108ea576108e76108e0826105d28568327cb2734119d3b7a9601e1b61189b565b8690611888565b94505b505080806108f7906120af565b9150506106b4565b506001600160a01b03841660009081526005602052604090205461095f61094068327cb2734119d3b7a9601e1b6105d261093987866118b3565b869061189b565b6001600160a01b03861660009081526006602052604090205490611888565b6001600160a01b0385166000908152600660205260408120919091556109c16109a268327cb2734119d3b7a9601e1b6105d261099b88876118b3565b879061189b565b6001600160a01b038816600090815260066020526040902054906118b3565b6001600160a01b0390961660009081526006602090815260408083209890985560059052959095209290925550505050565b60005b600154811015610a9557610a418260018381548110610a2557634e487b7160e01b600052603260045260246000fd5b60009182526020822001546001600160a01b031690600161124d565b610a838260018381548110610a6657634e487b7160e01b600052603260045260246000fd5b60009182526020822001546001600160a01b0316906001806103c3565b80610a8d816120af565b9150506109f6565b506001600160a01b03808216600090815260066020908152604080832080549084905560035482516369940d7960e01b81529251919516926369940d799260048082019391829003018186803b158015610aee57600080fd5b505afa158015610b02573d6000803e3d6000fd5b505050506040513d601f19601f82011682018060405250810190610b269190611c43565b9050610b3c6001600160a01b0382168484611663565b7f47cee97cb7acd717b3c0aa1435d004cd5b3c8c57d70dbceb4e4458bbd60e39d48383604051610b6d929190611e0c565b60405180910390a1505050565b600080805b600154811015610c0d576001600160a01b03841660009081526008602052604081206001805483919085908110610bc657634e487b7160e01b600052603260045260246000fd5b60009182526020808320909101546001600160a01b031683528201929092526040019020549050610bf78382611888565b9250508080610c05906120af565b915050610b7f565b5092915050565b60018181548110610c2457600080fd5b6000918252602090912001546001600160a01b0316905081565b600080805b600154811015610c0d576001600160a01b0384166000908152600a602052604081206001805483919085908110610c8a57634e487b7160e01b600052603260045260246000fd5b60009182526020808320909101546001600160a01b031683528201929092526040018120549150811215610cc757610cc460001982611f8b565b90505b610cd18184611f12565b9250508080610cdf906120af565b915050610c43565b600080610d05610cf684610c3e565b610cff85610b7a565b90611888565b905080610d295750506001600160a01b031660009081526006602052604090205490565b6000805b600154811015610fe0576001600160a01b0385166000908152600a6020526040812060018054610ee2939291839186908110610d7957634e487b7160e01b600052603260045260246000fd5b60009182526020808320909101546001600160a01b0316835282019290925260400190205413610e17576001600160a01b0386166000908152600a602052604081206001805460001993919086908110610de357634e487b7160e01b600052603260045260246000fd5b60009182526020808320909101546001600160a01b03168352820192909252604001902054610e129190611f8b565b610e7a565b6001600160a01b0386166000908152600a602052604081206001805491929185908110610e5457634e487b7160e01b600052603260045260246000fd5b60009182526020808320909101546001600160a01b031683528201929092526040019020545b6001600160a01b03871660009081526008602052604081206001805491929186908110610eb757634e487b7160e01b600052603260045260246000fd5b60009182526020808320909101546001600160a01b0316835282019290925260400190205490611888565b15610fce57610fcb6105d868327cb2734119d3b7a9601e1b600360009054906101000a90046001600160a01b03166001600160a01b031663b7fba9f660018681548110610f3f57634e487b7160e01b600052603260045260246000fd5b6000918252602090912001546040516001600160e01b031960e084901b168152610f75916001600160a01b031690600401611df8565b60206040518083038186803b158015610f8d57600080fd5b505afa158015610fa1573d6000803e3d6000fd5b505050506040513d601f19601f82011682018060405250810190610fc59190611dc4565b9061189b565b91505b80610fd8816120af565b915050610d2d565b506000805b600154811015611115576000600960006001848154811061101657634e487b7160e01b600052603260045260246000fd5b60009182526020808320909101546001600160a01b0316835282019290925260400181205491508112156110a15760001960000b600960006001858154811061106f57634e487b7160e01b600052603260045260246000fd5b60009182526020808320909101546001600160a01b0316835282019290925260400190205461109e9190611f8b565b90505b6110ff6110f860076000600186815481106110cc57634e487b7160e01b600052603260045260246000fd5b60009182526020808320909101546001600160a01b031683528201929092526040019020548390611888565b8490611888565b925050808061110d906120af565b915050610fe5565b50600061112e61112584846118a7565b60045490611888565b6001600160a01b038716600090815260056020526040902054909150611195906111769068327cb2734119d3b7a9601e1b906105d29061116f9086906118b3565b889061189b565b6001600160a01b03881660009081526006602052604090205490611888565b9695505050505050565b6002546001600160a01b031633146111c95760405162461bcd60e51b81526004016103a190611ea5565b600380546001600160a01b0319166001600160a01b0392909216919091179055565b6060600180548060200260200160405190810160405280929190818152602001828054801561124357602002820191906000526020600020905b81546001600160a01b03168152600190910190602001808311611225575b5050505050905090565b600260005414156112705760405162461bcd60e51b81526004016103a190611edb565b6002600055611281848484846118bf565b6001600160a01b038085166000908152600a60209081526040808320938716835292905290812054818112156112c0576112bd60001982611f8b565b90505b6001600160a01b0380871660009081526008602090815260408083209389168352929052908120546112f29083611888565b9050806113015750505061150a565b6003546001600160a01b03161561139d57801561139d576003546040516363453ae160e01b81526001600160a01b03909116906363453ae190611348908990600401611df8565b602060405180830381600087803b15801561136257600080fd5b505af1158015611376573d6000803e3d6000fd5b505050506040513d601f19601f8201168201806040525081019061139a9190611dc4565b92505b6004546001600160a01b0387166000908152600960205260408120546114279082126113ee576001600160a01b0389166000908152600960205260409020546113e99060001990611f8b565b611408565b6001600160a01b0389166000908152600960205260409020545b6001600160a01b038a1660009081526007602052604090205490611888565b90506000811180156114395750600085115b156114635761145b6105d8826105d28868327cb2734119d3b7a9601e1b61189b565b600481905591505b8161147257505050505061150a565b6001600160a01b03891615611504576001600160a01b038916600090815260056020526040812054906114da6114bb68327cb2734119d3b7a9601e1b6105d261063f88876118b3565b6001600160a01b038d1660009081526006602052604090205490611888565b6001600160a01b038c16600090815260066020908152604080832093909355600590522084905550505b50505050505b505060016000555050565b60035460405163cb338ff560e01b81526000916001600160a01b03169063cb338ff590611546908590600401611df8565b60206040518083038186803b15801561155e57600080fd5b505afa158015611572573d6000803e3d6000fd5b505050506040513d601f19601f820116820180604052508101906115969190611dc4565b92915050565b6002546001600160a01b031633146115c65760405162461bcd60e51b81526004016103a190611ea5565b600280546001600160a01b0319166001600160a01b0392909216919091179055565b6002546001600160a01b031633146116125760405162461bcd60e51b81526004016103a190611ea5565b6001805480820182556000919091527fb10e2d527612073b26eecdfd717e6a320cf44b4afac2b0732d9fcbe2b7fa0cf60180546001600160a01b0319166001600160a01b0392909216919091179055565b6103be8363a9059cbb60e01b8484604051602401611682929190611e0c565b60408051601f198184030181529190526020810180516001600160e01b03166001600160e01b0319909316929092179091526119dd565b80156117c1578115611752576001600160a01b038086166000908152600a60209081526040808320938816835292905220546116f6908490611f12565b6001600160a01b038087166000908152600a602090815260408083209389168352928152828220939093556009909252902054611734908490611f12565b6001600160a01b038516600090815260096020526040902055611881565b6001600160a01b038086166000908152600a602090815260408083209388168352929052205461178390849061202d565b6001600160a01b038087166000908152600a60209081526040808320938916835292815282822093909355600990925290205461173490849061202d565b81156117f8576001600160a01b038086166000908152600a602090815260408083209388168352929052205461178390849061202d565b6001600160a01b038086166000908152600a6020908152604080832093881683529290522054611829908490611f12565b6001600160a01b038087166000908152600a602090815260408083209389168352928152828220939093556009909252902054611867908490611f12565b6001600160a01b0385166000908152600960205260409020555b5050505050565b60006118948284611f53565b9392505050565b6000611894828461200e565b60006118948284611f6b565b6000611894828461206c565b8015611950576001600160a01b038085166000908152600860209081526040808320938716835292905220546118f59083611888565b6001600160a01b03808616600090815260086020908152604080832093881683529281528282209390935560079092529020546119329083611888565b6001600160a01b0384166000908152600760205260409020556119d7565b6001600160a01b0380851660009081526008602090815260408083209387168352929052205461198090836118b3565b6001600160a01b03808616600090815260086020908152604080832093881683529281528282209390935560079092529020546119bd90836118b3565b6001600160a01b0384166000908152600760205260409020555b50505050565b6000611a32826040518060400160405280602081526020017f5361666545524332303a206c6f772d6c6576656c2063616c6c206661696c6564815250856001600160a01b0316611aaf9092919063ffffffff16565b8051909150156103be5780806020019051810190611a509190611d90565b6103be5760405162461bcd60e51b815260206004820152602a60248201527f5361666545524332303a204552433230206f7065726174696f6e20646964206e6044820152691bdd081cdd58d8d9595960b21b60648201526084016103a1565b6060611abe8484600085611ac6565b949350505050565b606082471015611b275760405162461bcd60e51b815260206004820152602660248201527f416464726573733a20696e73756666696369656e742062616c616e636520666f6044820152651c8818d85b1b60d21b60648201526084016103a1565b843b611b755760405162461bcd60e51b815260206004820152601d60248201527f416464726573733a2063616c6c20746f206e6f6e2d636f6e747261637400000060448201526064016103a1565b600080866001600160a01b03168587604051611b919190611ddc565b60006040518083038185875af1925050503d8060008114611bce576040519150601f19603f3d011682016040523d82523d6000602084013e611bd3565b606091505b5091509150611be3828286611bee565b979650505050505050565b60608315611bfd575081611894565b825115611c0d5782518084602001fd5b8160405162461bcd60e51b81526004016103a19190611e72565b600060208284031215611c38578081fd5b8135611894816120e0565b600060208284031215611c54578081fd5b8151611894816120e0565b60008060408385031215611c71578081fd5b8235611c7c816120e0565b91506020830135611c8c816120e0565b809150509250929050565b600080600060608486031215611cab578081fd5b8335611cb6816120e0565b92506020840135611cc6816120e0565b929592945050506040919091013590565b60008060008060808587031215611cec578081fd5b8435611cf7816120e0565b93506020850135611d07816120e0565b9250604085013591506060850135611d1e816120f8565b939692955090935050565b600080600080600060a08688031215611d40578081fd5b8535611d4b816120e0565b94506020860135611d5b816120e0565b9350604086013592506060860135611d72816120f8565b91506080860135611d82816120f8565b809150509295509295909350565b600060208284031215611da1578081fd5b8151611894816120f8565b600060208284031215611dbd578081fd5b5035919050565b600060208284031215611dd5578081fd5b5051919050565b60008251611dee818460208701612083565b9190910192915050565b6001600160a01b0391909116815260200190565b6001600160a01b03929092168252602082015260400190565b6020808252825182820181905260009190848201906040850190845b81811015611e665783516001600160a01b031683529284019291840191600101611e41565b50909695505050505050565b6020815260008251806020840152611e91816040850160208701612083565b601f01601f19169190910160400192915050565b6020808252601c908201527b2232b63a30acb4b2b6322a3930b1b5b2b91d103337b93134b23232b760211b604082015260600190565b6020808252601f908201527f5265656e7472616e637947756172643a207265656e7472616e742063616c6c00604082015260600190565b600080821280156001600160ff1b0384900385131615611f3457611f346120ca565b600160ff1b8390038412811615611f4d57611f4d6120ca565b50500190565b60008219821115611f6657611f666120ca565b500190565b600082611f8657634e487b7160e01b81526012600452602481fd5b500490565b60006001600160ff1b0381841382841380821686840486111615611fb157611fb16120ca565b600160ff1b84871282811687830589121615611fcf57611fcf6120ca565b858712925087820587128484161615611fea57611fea6120ca565b87850587128184161615612000576120006120ca565b505050929093029392505050565b6000816000190483118215151615612028576120286120ca565b500290565b60008083128015600160ff1b85018412161561204b5761204b6120ca565b6001600160ff1b0384018313811615612066576120666120ca565b50500390565b60008282101561207e5761207e6120ca565b500390565b60005b8381101561209e578181015183820152602001612086565b838111156119d75750506000910152565b60006000198214156120c3576120c36120ca565b5060010190565b634e487b7160e01b600052601160045260246000fd5b6001600160a01b03811681146120f557600080fd5b50565b80151581146120f557600080fdfea2646970667358221220d79831777065278bf38b8c9c3bd553fc420beafcc73b4ef86b958c1ec4b903b564736f6c63430008040033",
  "linkReferences": {},
  "deployedLinkReferences": {}
}