{
  "_format": "hh-sol-artifact-1",
  "contractName": "sNeccFacet",
  "sourceName": "contracts/facets/sNecc/sNeccFacet.sol",
  "abi": [
    {
      "anonymous": false,
      "inputs": [
        {
          "indexed": true,
          "internalType": "address",
          "name": "owner",
          "type": "address"
        },
        {
          "indexed": true,
          "internalType": "address",
          "name": "spender",
          "type": "address"
        },
        {
          "indexed": false,
          "internalType": "uint256",
          "name": "value",
          "type": "uint256"
        }
      ],
      "name": "Approval",
      "type": "event"
    },
    {
      "anonymous": false,
      "inputs": [
        {
          "indexed": true,
          "internalType": "address",
          "name": "from",
          "type": "address"
        },
        {
          "indexed": true,
          "internalType": "address",
          "name": "to",
          "type": "address"
        },
        {
          "indexed": false,
          "internalType": "uint256",
          "name": "value",
          "type": "uint256"
        }
      ],
      "name": "Transfer",
      "type": "event"
    },
    {
      "inputs": [
        {
          "internalType": "address",
          "name": "holder",
          "type": "address"
        },
        {
          "internalType": "address",
          "name": "spender",
          "type": "address"
        }
      ],
      "name": "allowance",
      "outputs": [
        {
          "internalType": "uint256",
          "name": "",
          "type": "uint256"
        }
      ],
      "stateMutability": "view",
      "type": "function"
    },
    {
      "inputs": [
        {
          "internalType": "address",
          "name": "spender",
          "type": "address"
        },
        {
          "internalType": "uint256",
          "name": "amount",
          "type": "uint256"
        }
      ],
      "name": "approve",
      "outputs": [
        {
          "internalType": "bool",
          "name": "",
          "type": "bool"
        }
      ],
      "stateMutability": "nonpayable",
      "type": "function"
    },
    {
      "inputs": [
        {
          "internalType": "uint256",
          "name": "_amount",
          "type": "uint256"
        }
      ],
      "name": "balanceFrom",
      "outputs": [
        {
          "internalType": "uint256",
          "name": "",
          "type": "uint256"
        }
      ],
      "stateMutability": "view",
      "type": "function"
    },
    {
      "inputs": [
        {
          "internalType": "address",
          "name": "account",
          "type": "address"
        }
      ],
      "name": "balanceOf",
      "outputs": [
        {
          "internalType": "uint256",
          "name": "",
          "type": "uint256"
        }
      ],
      "stateMutability": "view",
      "type": "function"
    },
    {
      "inputs": [
        {
          "internalType": "uint256",
          "name": "_amount",
          "type": "uint256"
        }
      ],
      "name": "balanceTo",
      "outputs": [
        {
          "internalType": "uint256",
          "name": "",
          "type": "uint256"
        }
      ],
      "stateMutability": "view",
      "type": "function"
    },
    {
      "inputs": [
        {
          "internalType": "address",
          "name": "_from",
          "type": "address"
        },
        {
          "internalType": "uint256",
          "name": "_amount",
          "type": "uint256"
        }
      ],
      "name": "burn",
      "outputs": [],
      "stateMutability": "nonpayable",
      "type": "function"
    },
    {
      "inputs": [],
      "name": "decimals",
      "outputs": [
        {
          "internalType": "uint8",
          "name": "",
          "type": "uint8"
        }
      ],
      "stateMutability": "view",
      "type": "function"
    },
    {
      "inputs": [
        {
          "internalType": "address",
          "name": "spender",
          "type": "address"
        },
        {
          "internalType": "uint256",
          "name": "amount",
          "type": "uint256"
        }
      ],
      "name": "decreaseAllowance",
      "outputs": [
        {
          "internalType": "bool",
          "name": "",
          "type": "bool"
        }
      ],
      "stateMutability": "nonpayable",
      "type": "function"
    },
    {
      "inputs": [],
      "name": "gov",
      "outputs": [
        {
          "internalType": "address",
          "name": "",
          "type": "address"
        }
      ],
      "stateMutability": "view",
      "type": "function"
    },
    {
      "inputs": [
        {
          "internalType": "address",
          "name": "spender",
          "type": "address"
        },
        {
          "internalType": "uint256",
          "name": "amount",
          "type": "uint256"
        }
      ],
      "name": "increaseAllowance",
      "outputs": [
        {
          "internalType": "bool",
          "name": "",
          "type": "bool"
        }
      ],
      "stateMutability": "nonpayable",
      "type": "function"
    },
    {
      "inputs": [],
      "name": "index",
      "outputs": [
        {
          "internalType": "uint256",
          "name": "",
          "type": "uint256"
        }
      ],
      "stateMutability": "view",
      "type": "function"
    },
    {
      "inputs": [
        {
          "internalType": "address",
          "name": "_stakingContract",
          "type": "address"
        },
        {
          "internalType": "address",
          "name": "_sNecc",
          "type": "address"
        }
      ],
      "name": "initialize",
      "outputs": [],
      "stateMutability": "nonpayable",
      "type": "function"
    },
    {
      "inputs": [
        {
          "internalType": "address",
          "name": "_to",
          "type": "address"
        },
        {
          "internalType": "uint256",
          "name": "_amount",
          "type": "uint256"
        }
      ],
      "name": "mint",
      "outputs": [],
      "stateMutability": "nonpayable",
      "type": "function"
    },
    {
      "inputs": [],
      "name": "name",
      "outputs": [
        {
          "internalType": "string",
          "name": "",
          "type": "string"
        }
      ],
      "stateMutability": "view",
      "type": "function"
    },
    {
      "inputs": [
        {
          "internalType": "address",
          "name": "owner",
          "type": "address"
        }
      ],
      "name": "nonces",
      "outputs": [
        {
          "internalType": "uint256",
          "name": "",
          "type": "uint256"
        }
      ],
      "stateMutability": "view",
      "type": "function"
    },
    {
      "inputs": [
        {
          "internalType": "address",
          "name": "owner",
          "type": "address"
        },
        {
          "internalType": "address",
          "name": "spender",
          "type": "address"
        },
        {
          "internalType": "uint256",
          "name": "amount",
          "type": "uint256"
        },
        {
          "internalType": "uint256",
          "name": "deadline",
          "type": "uint256"
        },
        {
          "internalType": "uint8",
          "name": "v",
          "type": "uint8"
        },
        {
          "internalType": "bytes32",
          "name": "r",
          "type": "bytes32"
        },
        {
          "internalType": "bytes32",
          "name": "s",
          "type": "bytes32"
        }
      ],
      "name": "permit",
      "outputs": [],
      "stateMutability": "nonpayable",
      "type": "function"
    },
    {
      "inputs": [
        {
          "internalType": "address",
          "name": "_newOwner",
          "type": "address"
        }
      ],
      "name": "setGov",
      "outputs": [],
      "stateMutability": "nonpayable",
      "type": "function"
    },
    {
      "inputs": [],
      "name": "stakingContract",
      "outputs": [
        {
          "internalType": "address",
          "name": "",
          "type": "address"
        }
      ],
      "stateMutability": "view",
      "type": "function"
    },
    {
      "inputs": [],
      "name": "symbol",
      "outputs": [
        {
          "internalType": "string",
          "name": "",
          "type": "string"
        }
      ],
      "stateMutability": "view",
      "type": "function"
    },
    {
      "inputs": [],
      "name": "totalSupply",
      "outputs": [
        {
          "internalType": "uint256",
          "name": "",
          "type": "uint256"
        }
      ],
      "stateMutability": "view",
      "type": "function"
    },
    {
      "inputs": [
        {
          "internalType": "address",
          "name": "recipient",
          "type": "address"
        },
        {
          "internalType": "uint256",
          "name": "amount",
          "type": "uint256"
        }
      ],
      "name": "transfer",
      "outputs": [
        {
          "internalType": "bool",
          "name": "",
          "type": "bool"
        }
      ],
      "stateMutability": "nonpayable",
      "type": "function"
    },
    {
      "inputs": [
        {
          "internalType": "address",
          "name": "holder",
          "type": "address"
        },
        {
          "internalType": "address",
          "name": "recipient",
          "type": "address"
        },
        {
          "internalType": "uint256",
          "name": "amount",
          "type": "uint256"
        }
      ],
      "name": "transferFrom",
      "outputs": [
        {
          "internalType": "bool",
          "name": "",
          "type": "bool"
        }
      ],
      "stateMutability": "nonpayable",
      "type": "function"
    }
  ],
  "bytecode": "0x608060405234801561001057600080fd5b506130bd806100206000396000f3fe608060405234801561001057600080fd5b50600436106101425760003560e01c806370a08231116100b8578063a82487681161007c578063a82487681461039f578063a9059cbb146103cf578063cfad57a2146103ff578063d505accf1461041b578063dd62ed3e14610437578063ee99205c1461046757610142565b806370a08231146102d55780637ecebe001461030557806395d89b41146103355780639dc29fac14610353578063a457c2d71461036f57610142565b80632986c0e51161010a5780632986c0e514610201578063313ce5671461021f578063395093511461023d57806340c10f191461026d578063485cc9551461028957806366a5236c146102a557610142565b806306fdde0314610147578063095ea7b31461016557806312d43a511461019557806318160ddd146101b357806323b872dd146101d1575b600080fd5b61014f610485565b60405161015c9190611ed0565b60405180910390f35b61017f600480360381019061017a9190611f8b565b610520565b60405161018c9190611fe6565b60405180910390f35b61019d610537565b6040516101aa9190612010565b60405180910390f35b6101bb610546565b6040516101c8919061203a565b60405180910390f35b6101eb60048036038101906101e69190612055565b610555565b6040516101f89190611fe6565b60405180910390f35b610209610647565b604051610216919061203a565b60405180910390f35b6102276106ed565b60405161023491906120c4565b60405180910390f35b61025760048036038101906102529190611f8b565b61070d565b6040516102649190611fe6565b60405180910390f35b61028760048036038101906102829190611f8b565b61083c565b005b6102a3600480360381019061029e91906120df565b610860565b005b6102bf60048036038101906102ba919061211f565b6109b0565b6040516102cc919061203a565b60405180910390f35b6102ef60048036038101906102ea919061214c565b6109f8565b6040516102fc919061203a565b60405180910390f35b61031f600480360381019061031a919061214c565b610a0a565b60405161032c919061203a565b60405180910390f35b61033d610a5c565b60405161034a9190611ed0565b60405180910390f35b61036d60048036038101906103689190611f8b565b610af7565b005b61038960048036038101906103849190611f8b565b610b1b565b6040516103969190611fe6565b60405180910390f35b6103b960048036038101906103b4919061211f565b610c48565b6040516103c6919061203a565b60405180910390f35b6103e960048036038101906103e49190611f8b565b610c90565b6040516103f69190611fe6565b60405180910390f35b6104196004803603810190610414919061214c565b610ca7565b005b610435600480360381019061043091906121db565b610cb3565b005b610451600480360381019061044c91906120df565b610ed6565b60405161045e919061203a565b60405180910390f35b61046f610f66565b60405161047c9190612010565b60405180910390f35b606061048f610f9e565b600001805461049d906122ac565b80601f01602080910402602001604051908101604052809291908181526020018280546104c9906122ac565b80156105165780601f106104eb57610100808354040283529160200191610516565b820191906000526020600020905b8154815290600101906020018083116104f957829003601f168201915b5050505050905090565b600061052d338484610fcb565b6001905092915050565b600061054161119f565b905090565b60006105506111d7565b905090565b6000806105606111ea565b60010160008673ffffffffffffffffffffffffffffffffffffffff1673ffffffffffffffffffffffffffffffffffffffff16815260200190815260200160002060003373ffffffffffffffffffffffffffffffffffffffff1673ffffffffffffffffffffffffffffffffffffffff16815260200190815260200160002054905082811015610623576040517f08c379a000000000000000000000000000000000000000000000000000000000815260040161061a90612350565b60405180910390fd5b6106308533858403610fcb565b61063b858585611217565b60019150509392505050565b6000806106526114a3565b90508060000160009054906101000a900473ffffffffffffffffffffffffffffffffffffffff1673ffffffffffffffffffffffffffffffffffffffff16632986c0e56040518163ffffffff1660e01b8152600401602060405180830381865afa1580156106c3573d6000803e3d6000fd5b505050506040513d601f19601f820116820180604052508101906106e79190612385565b91505090565b60006106f7610f9e565b60020160009054906101000a900460ff16905090565b6000806107186111ea565b60010160003373ffffffffffffffffffffffffffffffffffffffff1673ffffffffffffffffffffffffffffffffffffffff168152602001908152602001600020905060008160008673ffffffffffffffffffffffffffffffffffffffff1673ffffffffffffffffffffffffffffffffffffffff1681526020019081526020016000205490508084820110156107e2576040517f08c379a00000000000000000000000000000000000000000000000000000000081526004016107d990612424565b60405180910390fd5b61083033868684018560008a73ffffffffffffffffffffffffffffffffffffffff1673ffffffffffffffffffffffffffffffffffffffff168152602001908152602001600020819055610fcb565b60019250505092915050565b60006108466114a3565b9050610851816114d0565b61085b8383611565565b505050565b6108686116cb565b6000610872610f9e565b9050600061087e6114a3565b90506108c86040518060400160405280601381526020017f57726170706564205374616b6564204e65636300000000000000000000000000815250836116d590919063ffffffff16565b6109106040518060400160405280600581526020017f6e4e656363000000000000000000000000000000000000000000000000000000815250836116f290919063ffffffff16565b61092460128361170f90919063ffffffff16565b838160010160006101000a81548173ffffffffffffffffffffffffffffffffffffffff021916908373ffffffffffffffffffffffffffffffffffffffff160217905550828160000160006101000a81548173ffffffffffffffffffffffffffffffffffffffff021916908373ffffffffffffffffffffffffffffffffffffffff16021790555050505050565b60006109f16109bd610647565b6109e36109c86106ed565b600a6109d491906125a6565b8561173090919063ffffffff16565b61174690919063ffffffff16565b9050919050565b6000610a038261175c565b9050919050565b6000610a146117ae565b60000160008373ffffffffffffffffffffffffffffffffffffffff1673ffffffffffffffffffffffffffffffffffffffff168152602001908152602001600020549050919050565b6060610a66610f9e565b6001018054610a74906122ac565b80601f0160208091040260200160405190810160405280929190818152602001828054610aa0906122ac565b8015610aed5780601f10610ac257610100808354040283529160200191610aed565b820191906000526020600020905b815481529060010190602001808311610ad057829003601f168201915b5050505050905090565b6000610b016114a3565b9050610b0c816114d0565b610b1683836117db565b505050565b600080610b266111ea565b60010160003373ffffffffffffffffffffffffffffffffffffffff1673ffffffffffffffffffffffffffffffffffffffff168152602001908152602001600020905060008160008673ffffffffffffffffffffffffffffffffffffffff1673ffffffffffffffffffffffffffffffffffffffff16815260200190815260200160002054905080841115610bee576040517f08c379a0000000000000000000000000000000000000000000000000000000008152600401610be590612663565b60405180910390fd5b610c3c33868684038560008a73ffffffffffffffffffffffffffffffffffffffff1673ffffffffffffffffffffffffffffffffffffffff168152602001908152602001600020819055610fcb565b60019250505092915050565b6000610c89610c556106ed565b600a610c6191906125a6565b610c7b610c6c610647565b8561173090919063ffffffff16565b61174690919063ffffffff16565b9050919050565b6000610c9d338484611217565b6001905092915050565b610cb0816119bb565b50565b83421115610cf6576040517f08c379a0000000000000000000000000000000000000000000000000000000008152600401610ced906126cf565b60405180910390fd5b600080610d016117ae565b60000160008a73ffffffffffffffffffffffffffffffffffffffff1673ffffffffffffffffffffffffffffffffffffffff1681526020019081526020016000205490506040517f6e71edae12b1b97f4d1f60370fef10105fa2faae0126114a169c64845d6126c981528960208201528860408201528760608201528160808201528660a082015260c081209250506000610d99611a16565b905060006040517f19010000000000000000000000000000000000000000000000000000000000008152826002820152846022820152604281209150506000610def88888885611a61909392919063ffffffff16565b90508b73ffffffffffffffffffffffffffffffffffffffff168173ffffffffffffffffffffffffffffffffffffffff1614610e5f576040517f08c379a0000000000000000000000000000000000000000000000000000000008152600401610e569061273b565b60405180910390fd5b610e676117ae565b60000160008d73ffffffffffffffffffffffffffffffffffffffff1673ffffffffffffffffffffffffffffffffffffffff1681526020019081526020016000206000815480929190610eb89061275b565b9190505550610ec88c8c8c610fcb565b505050505050505050505050565b6000610ee06111ea565b60010160008473ffffffffffffffffffffffffffffffffffffffff1673ffffffffffffffffffffffffffffffffffffffff16815260200190815260200160002060008373ffffffffffffffffffffffffffffffffffffffff1673ffffffffffffffffffffffffffffffffffffffff16815260200190815260200160002054905092915050565b600080610f716114a3565b90508060010160009054906101000a900473ffffffffffffffffffffffffffffffffffffffff1691505090565b6000807f2967a798b92539a1b9eefe4d8eb931f96b68d27665e276f1bee2d5db7f74304790508091505090565b600073ffffffffffffffffffffffffffffffffffffffff168373ffffffffffffffffffffffffffffffffffffffff16141561103b576040517f08c379a000000000000000000000000000000000000000000000000000000000815260040161103290612816565b60405180910390fd5b600073ffffffffffffffffffffffffffffffffffffffff168273ffffffffffffffffffffffffffffffffffffffff1614156110ab576040517f08c379a00000000000000000000000000000000000000000000000000000000081526004016110a2906128a8565b60405180910390fd5b806110b46111ea565b60010160008573ffffffffffffffffffffffffffffffffffffffff1673ffffffffffffffffffffffffffffffffffffffff16815260200190815260200160002060008473ffffffffffffffffffffffffffffffffffffffff1673ffffffffffffffffffffffffffffffffffffffff168152602001908152602001600020819055508173ffffffffffffffffffffffffffffffffffffffff168373ffffffffffffffffffffffffffffffffffffffff167f8c5be1e5ebec7d5bd14f71427d1e84f3dd0314c0f7b2291e5b200ac8c7c3b92583604051611192919061203a565b60405180910390a3505050565b6000806111aa611bec565b90508060040160009054906101000a900473ffffffffffffffffffffffffffffffffffffffff1691505090565b60006111e16111ea565b60020154905090565b6000807fc991b2e918acaba8e5721668ed0b1982684e5a8692a621bcd2d7ef326bb015b490508091505090565b600073ffffffffffffffffffffffffffffffffffffffff168373ffffffffffffffffffffffffffffffffffffffff161415611287576040517f08c379a000000000000000000000000000000000000000000000000000000000815260040161127e9061293a565b60405180910390fd5b600073ffffffffffffffffffffffffffffffffffffffff168273ffffffffffffffffffffffffffffffffffffffff1614156112f7576040517f08c379a00000000000000000000000000000000000000000000000000000000081526004016112ee906129cc565b60405180910390fd5b611302838383611c19565b600061130c6111ea565b905060008160000160008673ffffffffffffffffffffffffffffffffffffffff1673ffffffffffffffffffffffffffffffffffffffff16815260200190815260200160002054905082811015611397576040517f08c379a000000000000000000000000000000000000000000000000000000000815260040161138e90612a5e565b60405180910390fd5b8281038260000160008773ffffffffffffffffffffffffffffffffffffffff1673ffffffffffffffffffffffffffffffffffffffff16815260200190815260200160002081905550828260000160008673ffffffffffffffffffffffffffffffffffffffff1673ffffffffffffffffffffffffffffffffffffffff16815260200190815260200160002060008282546114309190612a7e565b925050819055508373ffffffffffffffffffffffffffffffffffffffff168573ffffffffffffffffffffffffffffffffffffffff167fddf252ad1be2c89b69c2b068fc378daa952ba7f163c4a11628f55a4df523b3ef85604051611494919061203a565b60405180910390a35050505050565b6000807f9b74ae25205838e56af3abf8dcce2b2c3e3ec439255f742da05cd78893f55be090508091505090565b8060010160009054906101000a900473ffffffffffffffffffffffffffffffffffffffff1673ffffffffffffffffffffffffffffffffffffffff163373ffffffffffffffffffffffffffffffffffffffff1614611562576040517f08c379a000000000000000000000000000000000000000000000000000000000815260040161155990612b20565b60405180910390fd5b50565b600073ffffffffffffffffffffffffffffffffffffffff168273ffffffffffffffffffffffffffffffffffffffff1614156115d5576040517f08c379a00000000000000000000000000000000000000000000000000000000081526004016115cc90612b8c565b60405180910390fd5b6115e160008383611c19565b60006115eb6111ea565b9050818160020160008282546116019190612a7e565b92505081905550818160000160008573ffffffffffffffffffffffffffffffffffffffff1673ffffffffffffffffffffffffffffffffffffffff16815260200190815260200160002060008282546116599190612a7e565b925050819055508273ffffffffffffffffffffffffffffffffffffffff16600073ffffffffffffffffffffffffffffffffffffffff167fddf252ad1be2c89b69c2b068fc378daa952ba7f163c4a11628f55a4df523b3ef846040516116be919061203a565b60405180910390a3505050565b6116d3611c1e565b565b808260000190805190602001906116ed929190611d94565b505050565b8082600101908051906020019061170a929190611d94565b505050565b808260020160006101000a81548160ff021916908360ff1602179055505050565b6000818361173e9190612bac565b905092915050565b600081836117549190612c35565b905092915050565b60006117666111ea565b60000160008373ffffffffffffffffffffffffffffffffffffffff1673ffffffffffffffffffffffffffffffffffffffff168152602001908152602001600020549050919050565b6000807fbb9c3660b51e1fafa886fcf600a68efa81371bd50359eccba98f0c4fff2cfeb990508091505090565b600073ffffffffffffffffffffffffffffffffffffffff168273ffffffffffffffffffffffffffffffffffffffff16141561184b576040517f08c379a000000000000000000000000000000000000000000000000000000000815260040161184290612cd8565b60405180910390fd5b61185782600083611c19565b60006118616111ea565b905060008160000160008573ffffffffffffffffffffffffffffffffffffffff1673ffffffffffffffffffffffffffffffffffffffff168152602001908152602001600020549050828110156118ec576040517f08c379a00000000000000000000000000000000000000000000000000000000081526004016118e390612d6a565b60405180910390fd5b8281038260000160008673ffffffffffffffffffffffffffffffffffffffff1673ffffffffffffffffffffffffffffffffffffffff16815260200190815260200160002081905550828260020160008282546119489190612d8a565b92505081905550600073ffffffffffffffffffffffffffffffffffffffff168473ffffffffffffffffffffffffffffffffffffffff167fddf252ad1be2c89b69c2b068fc378daa952ba7f163c4a11628f55a4df523b3ef856040516119ad919061203a565b60405180910390a350505050565b6119c3611c1e565b60006119cd611bec565b9050818160040160006101000a81548173ffffffffffffffffffffffffffffffffffffffff021916908373ffffffffffffffffffffffffffffffffffffffff1602179055505050565b600080611a216117ae565b6001016000611a2e611cb9565b81526020019081526020016000205490506000801b8114611a525780915050611a5e565b611a5a611cc1565b9150505b90565b60007f7fffffffffffffffffffffffffffffff5d576e7357a4501ddfe92f46681b20a08260001c1115611ac9576040517f08c379a0000000000000000000000000000000000000000000000000000000008152600401611ac090612e30565b60405180910390fd5b601b8460ff161480611ade5750601c8460ff16145b611b1d576040517f08c379a0000000000000000000000000000000000000000000000000000000008152600401611b1490612ec2565b60405180910390fd5b600060018686868660405160008152602001604052604051611b429493929190612ef1565b6020604051602081039080840390855afa158015611b64573d6000803e3d6000fd5b505050602060405103519050600073ffffffffffffffffffffffffffffffffffffffff168173ffffffffffffffffffffffffffffffffffffffff161415611be0576040517f08c379a0000000000000000000000000000000000000000000000000000000008152600401611bd790612f82565b60405180910390fd5b80915050949350505050565b6000807fc8fcad8db84d3cc18b4c41d551ea0ee66dd599cde068d998e57d5e09332c131c90508091505090565b505050565b611c26611bec565b60040160009054906101000a900473ffffffffffffffffffffffffffffffffffffffff1673ffffffffffffffffffffffffffffffffffffffff163373ffffffffffffffffffffffffffffffffffffffff1614611cb7576040517f08c379a0000000000000000000000000000000000000000000000000000000008152600401611cae90613014565b60405180910390fd5b565b600046905090565b600080611ccc611cb9565b905060007f8b73c3c69bb8fe3d512ecc4cf759cc79239f7b179b0ffacaa9a75d522b39400f611cf9610485565b805190602001206040518060400160405280600181526020017f3100000000000000000000000000000000000000000000000000000000000000815250805190602001208430604051602001611d53959493929190613034565b60405160208183030381529060405280519060200120905080611d746117ae565b600101600084815260200190815260200160002081905550809250505090565b828054611da0906122ac565b90600052602060002090601f016020900481019282611dc25760008555611e09565b82601f10611ddb57805160ff1916838001178555611e09565b82800160010185558215611e09579182015b82811115611e08578251825591602001919060010190611ded565b5b509050611e169190611e1a565b5090565b5b80821115611e33576000816000905550600101611e1b565b5090565b600081519050919050565b600082825260208201905092915050565b60005b83811015611e71578082015181840152602081019050611e56565b83811115611e80576000848401525b50505050565b6000601f19601f8301169050919050565b6000611ea282611e37565b611eac8185611e42565b9350611ebc818560208601611e53565b611ec581611e86565b840191505092915050565b60006020820190508181036000830152611eea8184611e97565b905092915050565b600080fd5b600073ffffffffffffffffffffffffffffffffffffffff82169050919050565b6000611f2282611ef7565b9050919050565b611f3281611f17565b8114611f3d57600080fd5b50565b600081359050611f4f81611f29565b92915050565b6000819050919050565b611f6881611f55565b8114611f7357600080fd5b50565b600081359050611f8581611f5f565b92915050565b60008060408385031215611fa257611fa1611ef2565b5b6000611fb085828601611f40565b9250506020611fc185828601611f76565b9150509250929050565b60008115159050919050565b611fe081611fcb565b82525050565b6000602082019050611ffb6000830184611fd7565b92915050565b61200a81611f17565b82525050565b60006020820190506120256000830184612001565b92915050565b61203481611f55565b82525050565b600060208201905061204f600083018461202b565b92915050565b60008060006060848603121561206e5761206d611ef2565b5b600061207c86828701611f40565b935050602061208d86828701611f40565b925050604061209e86828701611f76565b9150509250925092565b600060ff82169050919050565b6120be816120a8565b82525050565b60006020820190506120d960008301846120b5565b92915050565b600080604083850312156120f6576120f5611ef2565b5b600061210485828601611f40565b925050602061211585828601611f40565b9150509250929050565b60006020828403121561213557612134611ef2565b5b600061214384828501611f76565b91505092915050565b60006020828403121561216257612161611ef2565b5b600061217084828501611f40565b91505092915050565b612182816120a8565b811461218d57600080fd5b50565b60008135905061219f81612179565b92915050565b6000819050919050565b6121b8816121a5565b81146121c357600080fd5b50565b6000813590506121d5816121af565b92915050565b600080600080600080600060e0888a0312156121fa576121f9611ef2565b5b60006122088a828b01611f40565b97505060206122198a828b01611f40565b965050604061222a8a828b01611f76565b955050606061223b8a828b01611f76565b945050608061224c8a828b01612190565b93505060a061225d8a828b016121c6565b92505060c061226e8a828b016121c6565b91505092959891949750929550565b7f4e487b7100000000000000000000000000000000000000000000000000000000600052602260045260246000fd5b600060028204905060018216806122c457607f821691505b602082108114156122d8576122d761227d565b5b50919050565b7f45524332303a207472616e7366657220616d6f756e742065786365656473206160008201527f6c6c6f77616e6365000000000000000000000000000000000000000000000000602082015250565b600061233a602883611e42565b9150612345826122de565b604082019050919050565b600060208201905081810360008301526123698161232d565b9050919050565b60008151905061237f81611f5f565b92915050565b60006020828403121561239b5761239a611ef2565b5b60006123a984828501612370565b91505092915050565b7f4552433230457874656e6465643a2065786365737369766520616c6c6f77616e60008201527f6365000000000000000000000000000000000000000000000000000000000000602082015250565b600061240e602283611e42565b9150612419826123b2565b604082019050919050565b6000602082019050818103600083015261243d81612401565b9050919050565b7f4e487b7100000000000000000000000000000000000000000000000000000000600052601160045260246000fd5b60008160011c9050919050565b6000808291508390505b60018511156124ca578086048111156124a6576124a5612444565b5b60018516156124b55780820291505b80810290506124c385612473565b945061248a565b94509492505050565b6000826124e3576001905061259f565b816124f1576000905061259f565b8160018114612507576002811461251157612540565b600191505061259f565b60ff84111561252357612522612444565b5b8360020a91508482111561253a57612539612444565b5b5061259f565b5060208310610133831016604e8410600b84101617156125755782820a9050838111156125705761256f612444565b5b61259f565b6125828484846001612480565b9250905081840481111561259957612598612444565b5b81810290505b9392505050565b60006125b182611f55565b91506125bc836120a8565b92506125e97fffffffffffffffffffffffffffffffffffffffffffffffffffffffffffffffff84846124d3565b905092915050565b7f4552433230457874656e6465643a20696e73756666696369656e7420616c6c6f60008201527f77616e6365000000000000000000000000000000000000000000000000000000602082015250565b600061264d602583611e42565b9150612658826125f1565b604082019050919050565b6000602082019050818103600083015261267c81612640565b9050919050565b7f45524332305065726d69743a206578706972656420646561646c696e65000000600082015250565b60006126b9601d83611e42565b91506126c482612683565b602082019050919050565b600060208201905081810360008301526126e8816126ac565b9050919050565b7f45524332305065726d69743a20696e76616c6964207369676e61747572650000600082015250565b6000612725601e83611e42565b9150612730826126ef565b602082019050919050565b6000602082019050818103600083015261275481612718565b9050919050565b600061276682611f55565b91507fffffffffffffffffffffffffffffffffffffffffffffffffffffffffffffffff82141561279957612798612444565b5b600182019050919050565b7f45524332303a20617070726f76652066726f6d20746865207a65726f2061646460008201527f7265737300000000000000000000000000000000000000000000000000000000602082015250565b6000612800602483611e42565b915061280b826127a4565b604082019050919050565b6000602082019050818103600083015261282f816127f3565b9050919050565b7f45524332303a20617070726f766520746f20746865207a65726f20616464726560008201527f7373000000000000000000000000000000000000000000000000000000000000602082015250565b6000612892602283611e42565b915061289d82612836565b604082019050919050565b600060208201905081810360008301526128c181612885565b9050919050565b7f45524332303a207472616e736665722066726f6d20746865207a65726f20616460008201527f6472657373000000000000000000000000000000000000000000000000000000602082015250565b6000612924602583611e42565b915061292f826128c8565b604082019050919050565b6000602082019050818103600083015261295381612917565b9050919050565b7f45524332303a207472616e7366657220746f20746865207a65726f206164647260008201527f6573730000000000000000000000000000000000000000000000000000000000602082015250565b60006129b6602383611e42565b91506129c18261295a565b604082019050919050565b600060208201905081810360008301526129e5816129a9565b9050919050565b7f45524332303a207472616e7366657220616d6f756e742065786365656473206260008201527f616c616e63650000000000000000000000000000000000000000000000000000602082015250565b6000612a48602683611e42565b9150612a53826129ec565b604082019050919050565b60006020820190508181036000830152612a7781612a3b565b9050919050565b6000612a8982611f55565b9150612a9483611f55565b9250827fffffffffffffffffffffffffffffffffffffffffffffffffffffffffffffffff03821115612ac957612ac8612444565b5b828201905092915050565b7f4e444f4c3a206f6e6c79207374616b696e67436f6e7472616374000000000000600082015250565b6000612b0a601a83611e42565b9150612b1582612ad4565b602082019050919050565b60006020820190508181036000830152612b3981612afd565b9050919050565b7f45524332303a206d696e7420746f20746865207a65726f206164647265737300600082015250565b6000612b76601f83611e42565b9150612b8182612b40565b602082019050919050565b60006020820190508181036000830152612ba581612b69565b9050919050565b6000612bb782611f55565b9150612bc283611f55565b9250817fffffffffffffffffffffffffffffffffffffffffffffffffffffffffffffffff0483118215151615612bfb57612bfa612444565b5b828202905092915050565b7f4e487b7100000000000000000000000000000000000000000000000000000000600052601260045260246000fd5b6000612c4082611f55565b9150612c4b83611f55565b925082612c5b57612c5a612c06565b5b828204905092915050565b7f45524332303a206275726e2066726f6d20746865207a65726f2061646472657360008201527f7300000000000000000000000000000000000000000000000000000000000000602082015250565b6000612cc2602183611e42565b9150612ccd82612c66565b604082019050919050565b60006020820190508181036000830152612cf181612cb5565b9050919050565b7f45524332303a206275726e20616d6f756e7420657863656564732062616c616e60008201527f6365000000000000000000000000000000000000000000000000000000000000602082015250565b6000612d54602283611e42565b9150612d5f82612cf8565b604082019050919050565b60006020820190508181036000830152612d8381612d47565b9050919050565b6000612d9582611f55565b9150612da083611f55565b925082821015612db357612db2612444565b5b828203905092915050565b7f45434453413a20696e76616c6964207369676e6174757265202773272076616c60008201527f7565000000000000000000000000000000000000000000000000000000000000602082015250565b6000612e1a602283611e42565b9150612e2582612dbe565b604082019050919050565b60006020820190508181036000830152612e4981612e0d565b9050919050565b7f45434453413a20696e76616c6964207369676e6174757265202776272076616c60008201527f7565000000000000000000000000000000000000000000000000000000000000602082015250565b6000612eac602283611e42565b9150612eb782612e50565b604082019050919050565b60006020820190508181036000830152612edb81612e9f565b9050919050565b612eeb816121a5565b82525050565b6000608082019050612f066000830187612ee2565b612f1360208301866120b5565b612f206040830185612ee2565b612f2d6060830184612ee2565b95945050505050565b7f45434453413a20696e76616c6964207369676e61747572650000000000000000600082015250565b6000612f6c601883611e42565b9150612f7782612f36565b602082019050919050565b60006020820190508181036000830152612f9b81612f5f565b9050919050565b7f4c69624469616d6f6e643a20696e76616c696420636f6e7472616374206f776e60008201527f6572000000000000000000000000000000000000000000000000000000000000602082015250565b6000612ffe602283611e42565b915061300982612fa2565b604082019050919050565b6000602082019050818103600083015261302d81612ff1565b9050919050565b600060a0820190506130496000830188612ee2565b6130566020830187612ee2565b6130636040830186612ee2565b613070606083018561202b565b61307d6080830184612001565b969550505050505056fea2646970667358221220513d3b4294d5f2fc76588bfa1e8823d78d639fdeb45c0595cd847e39c749be5864736f6c634300080a0033",
  "linkReferences": {},
  "deployedLinkReferences": {}
}