{
  "_format": "hh-sol-artifact-1",
  "contractName": "ReaderFacet",
  "sourceName": "contracts/facets/Reader/ReaderFacet.sol",
  "abi": [
    {
      "inputs": [
        {
          "internalType": "contract IVault",
          "name": "",
          "type": "address"
        },
        {
          "internalType": "address",
          "name": "_tokenIn",
          "type": "address"
        },
        {
          "internalType": "address",
          "name": "_tokenOut",
          "type": "address"
        },
        {
          "internalType": "uint256",
          "name": "_amountIn",
          "type": "uint256"
        }
      ],
      "name": "getAmountOut",
      "outputs": [
        {
          "internalType": "uint256",
          "name": "",
          "type": "uint256"
        },
        {
          "internalType": "uint256",
          "name": "",
          "type": "uint256"
        }
      ],
      "stateMutability": "view",
      "type": "function"
    },
    {
      "inputs": [
        {
          "internalType": "address",
          "name": "",
          "type": "address"
        },
        {
          "internalType": "address[]",
          "name": "_tokens",
          "type": "address[]"
        }
      ],
      "name": "getFees",
      "outputs": [
        {
          "internalType": "uint256[]",
          "name": "",
          "type": "uint256[]"
        }
      ],
      "stateMutability": "view",
      "type": "function"
    },
    {
      "inputs": [
        {
          "internalType": "address",
          "name": "",
          "type": "address"
        },
        {
          "internalType": "address",
          "name": "_weth",
          "type": "address"
        },
        {
          "internalType": "address[]",
          "name": "_tokens",
          "type": "address[]"
        }
      ],
      "name": "getFundingRates",
      "outputs": [
        {
          "internalType": "uint256[]",
          "name": "",
          "type": "uint256[]"
        }
      ],
      "stateMutability": "view",
      "type": "function"
    },
    {
      "inputs": [
        {
          "internalType": "contract IVault",
          "name": "",
          "type": "address"
        },
        {
          "internalType": "address",
          "name": "_tokenIn",
          "type": "address"
        },
        {
          "internalType": "address",
          "name": "_tokenOut",
          "type": "address"
        }
      ],
      "name": "getMaxAmountIn",
      "outputs": [
        {
          "internalType": "uint256",
          "name": "",
          "type": "uint256"
        }
      ],
      "stateMutability": "view",
      "type": "function"
    },
    {
      "inputs": [
        {
          "internalType": "address",
          "name": "_factory",
          "type": "address"
        },
        {
          "internalType": "address[]",
          "name": "_tokens",
          "type": "address[]"
        }
      ],
      "name": "getPairInfo",
      "outputs": [
        {
          "internalType": "uint256[]",
          "name": "",
          "type": "uint256[]"
        }
      ],
      "stateMutability": "view",
      "type": "function"
    },
    {
      "inputs": [
        {
          "internalType": "address",
          "name": "",
          "type": "address"
        },
        {
          "internalType": "address",
          "name": "_account",
          "type": "address"
        },
        {
          "internalType": "address[]",
          "name": "_collateralTokens",
          "type": "address[]"
        },
        {
          "internalType": "address[]",
          "name": "_indexTokens",
          "type": "address[]"
        },
        {
          "internalType": "bool[]",
          "name": "_isLong",
          "type": "bool[]"
        }
      ],
      "name": "getPositions",
      "outputs": [
        {
          "internalType": "uint256[]",
          "name": "",
          "type": "uint256[]"
        }
      ],
      "stateMutability": "view",
      "type": "function"
    },
    {
      "inputs": [
        {
          "internalType": "address",
          "name": "_account",
          "type": "address"
        },
        {
          "internalType": "address[]",
          "name": "_tokens",
          "type": "address[]"
        }
      ],
      "name": "getTokenBalances",
      "outputs": [
        {
          "internalType": "uint256[]",
          "name": "",
          "type": "uint256[]"
        }
      ],
      "stateMutability": "view",
      "type": "function"
    },
    {
      "inputs": [
        {
          "internalType": "address",
          "name": "_account",
          "type": "address"
        },
        {
          "internalType": "address[]",
          "name": "_tokens",
          "type": "address[]"
        }
      ],
      "name": "getTokenBalancesWithSupplies",
      "outputs": [
        {
          "internalType": "uint256[]",
          "name": "",
          "type": "uint256[]"
        }
      ],
      "stateMutability": "view",
      "type": "function"
    },
    {
      "inputs": [
        {
          "internalType": "contract IERC20",
          "name": "_token",
          "type": "address"
        },
        {
          "internalType": "address[]",
          "name": "_excludedAccounts",
          "type": "address[]"
        }
      ],
      "name": "getTokenSupply",
      "outputs": [
        {
          "internalType": "uint256",
          "name": "",
          "type": "uint256"
        }
      ],
      "stateMutability": "view",
      "type": "function"
    },
    {
      "inputs": [
        {
          "internalType": "address",
          "name": "",
          "type": "address"
        },
        {
          "internalType": "address",
          "name": "_weth",
          "type": "address"
        },
        {
          "internalType": "uint256",
          "name": "_ndolAmount",
          "type": "uint256"
        },
        {
          "internalType": "address[]",
          "name": "_tokens",
          "type": "address[]"
        }
      ],
      "name": "getVaultTokenInfo",
      "outputs": [
        {
          "internalType": "uint256[]",
          "name": "",
          "type": "uint256[]"
        }
      ],
      "stateMutability": "view",
      "type": "function"
    }
  ],
  "bytecode": "0x608060405234801561001057600080fd5b5060008060000160006101000a81548160ff021916908315150217905550612e298061003d6000396000f3fe608060405234801561001057600080fd5b506004361061009e5760003560e01c8063a4543ead11610066578063a4543ead1461068d578063d7176ca9146107ba578063d802178e14610863578063dc383cab14610990578063f3535e6c14610c055761009e565b806320542568146100a35780632ac0184c146101fa5780632e3e3342146102e657806386d4d0f51461041357806395a7535a14610540575b600080fd5b6101a3600480360360808110156100b957600080fd5b81019080803573ffffffffffffffffffffffffffffffffffffffff169060200190929190803573ffffffffffffffffffffffffffffffffffffffff169060200190929190803590602001909291908035906020019064010000000081111561012057600080fd5b82018360208201111561013257600080fd5b8035906020019184602083028401116401000000008311171561015457600080fd5b919080806020026020016040519081016040528093929190818152602001838360200280828437600081840152601f19601f820116905080830192505050505050509192919290505050610c9d565b6040518080602001828103825283818151815260200191508051906020019060200280838360005b838110156101e65780820151818401526020810190506101cb565b505050509050019250505060405180910390f35b6102d06004803603604081101561021057600080fd5b81019080803573ffffffffffffffffffffffffffffffffffffffff1690602001909291908035906020019064010000000081111561024d57600080fd5b82018360208201111561025f57600080fd5b8035906020019184602083028401116401000000008311171561028157600080fd5b919080806020026020016040519081016040528093929190818152602001838360200280828437600081840152601f19601f820116905080830192505050505050509192919290505050611353565b6040518082815260200191505060405180910390f35b6103bc600480360360408110156102fc57600080fd5b81019080803573ffffffffffffffffffffffffffffffffffffffff1690602001909291908035906020019064010000000081111561033957600080fd5b82018360208201111561034b57600080fd5b8035906020019184602083028401116401000000008311171561036d57600080fd5b919080806020026020016040519081016040528093929190818152602001838360200280828437600081840152601f19601f8201169050808301925050505050505091929192905050506114d2565b6040518080602001828103825283818151815260200191508051906020019060200280838360005b838110156103ff5780820151818401526020810190506103e4565b505050509050019250505060405180910390f35b6104e96004803603604081101561042957600080fd5b81019080803573ffffffffffffffffffffffffffffffffffffffff1690602001909291908035906020019064010000000081111561046657600080fd5b82018360208201111561047857600080fd5b8035906020019184602083028401116401000000008311171561049a57600080fd5b919080806020026020016040519081016040528093929190818152602001838360200280828437600081840152601f19601f82011690508083019250505050505050919291929050505061174d565b6040518080602001828103825283818151815260200191508051906020019060200280838360005b8381101561052c578082015181840152602081019050610511565b505050509050019250505060405180910390f35b6106366004803603606081101561055657600080fd5b81019080803573ffffffffffffffffffffffffffffffffffffffff169060200190929190803573ffffffffffffffffffffffffffffffffffffffff169060200190929190803590602001906401000000008111156105b357600080fd5b8201836020820111156105c557600080fd5b803590602001918460208302840111640100000000831117156105e757600080fd5b919080806020026020016040519081016040528093929190818152602001838360200280828437600081840152601f19601f82011690508083019250505050505050919291929050505061182c565b6040518080602001828103825283818151815260200191508051906020019060200280838360005b8381101561067957808201518184015260208101905061065e565b505050509050019250505060405180910390f35b610763600480360360408110156106a357600080fd5b81019080803573ffffffffffffffffffffffffffffffffffffffff169060200190929190803590602001906401000000008111156106e057600080fd5b8201836020820111156106f257600080fd5b8035906020019184602083028401116401000000008311171561071457600080fd5b919080806020026020016040519081016040528093929190818152602001838360200280828437600081840152601f19601f820116905080830192505050505050509192919290505050611aa3565b6040518080602001828103825283818151815260200191508051906020019060200280838360005b838110156107a657808201518184015260208101905061078b565b505050509050019250505060405180910390f35b610846600480360360808110156107d057600080fd5b81019080803573ffffffffffffffffffffffffffffffffffffffff169060200190929190803573ffffffffffffffffffffffffffffffffffffffff169060200190929190803573ffffffffffffffffffffffffffffffffffffffff16906020019092919080359060200190929190505050611db0565b604051808381526020018281526020019250505060405180910390f35b6109396004803603604081101561087957600080fd5b81019080803573ffffffffffffffffffffffffffffffffffffffff169060200190929190803590602001906401000000008111156108b657600080fd5b8201836020820111156108c857600080fd5b803590602001918460208302840111640100000000831117156108ea57600080fd5b919080806020026020016040519081016040528093929190818152602001838360200280828437600081840152601f19601f820116905080830192505050505050509192919290505050611e87565b6040518080602001828103825283818151815260200191508051906020019060200280838360005b8381101561097c578082015181840152602081019050610961565b505050509050019250505060405180910390f35b610bae600480360360a08110156109a657600080fd5b81019080803573ffffffffffffffffffffffffffffffffffffffff169060200190929190803573ffffffffffffffffffffffffffffffffffffffff16906020019092919080359060200190640100000000811115610a0357600080fd5b820183602082011115610a1557600080fd5b80359060200191846020830284011164010000000083111715610a3757600080fd5b919080806020026020016040519081016040528093929190818152602001838360200280828437600081840152601f19601f82011690508083019250505050505050919291929080359060200190640100000000811115610a9757600080fd5b820183602082011115610aa957600080fd5b80359060200191846020830284011164010000000083111715610acb57600080fd5b919080806020026020016040519081016040528093929190818152602001838360200280828437600081840152601f19601f82011690508083019250505050505050919291929080359060200190640100000000811115610b2b57600080fd5b820183602082011115610b3d57600080fd5b80359060200191846020830284011164010000000083111715610b5f57600080fd5b919080806020026020016040519081016040528093929190818152602001838360200280828437600081840152601f19601f820116905080830192505050505050509192919290505050612037565b6040518080602001828103825283818151815260200191508051906020019060200280838360005b83811015610bf1578082015181840152602081019050610bd6565b505050509050019250505060405180910390f35b610c8760048036036060811015610c1b57600080fd5b81019080803573ffffffffffffffffffffffffffffffffffffffff169060200190929190803573ffffffffffffffffffffffffffffffffffffffff169060200190929190803573ffffffffffffffffffffffffffffffffffffffff1690602001909291905050506124ce565b6040518082815260200191505060405180910390f35b60606000600990506000309050600030905060608386510267ffffffffffffffff81118015610ccb57600080fd5b50604051908082528060200260200182016040528015610cfa5781602001602082028036833780820191505090505b50905060005b8651811015611343576000878281518110610d1757fe5b60200260200101519050600073ffffffffffffffffffffffffffffffffffffffff168173ffffffffffffffffffffffffffffffffffffffff161415610d5a578990505b8473ffffffffffffffffffffffffffffffffffffffff166352f55eed826040518263ffffffff1660e01b8152600401808273ffffffffffffffffffffffffffffffffffffffff16815260200191505060206040518083038186803b158015610dc157600080fd5b505afa158015610dd5573d6000803e3d6000fd5b505050506040513d6020811015610deb57600080fd5b81019080805190602001909291905050508387840281518110610e0a57fe5b6020026020010181815250508473ffffffffffffffffffffffffffffffffffffffff1663c3c7b9e9826040518263ffffffff1660e01b8152600401808273ffffffffffffffffffffffffffffffffffffffff16815260200191505060206040518083038186803b158015610e7d57600080fd5b505afa158015610e91573d6000803e3d6000fd5b505050506040513d6020811015610ea757600080fd5b81019080805190602001909291905050508360018885020181518110610ec957fe5b6020026020010181815250508473ffffffffffffffffffffffffffffffffffffffff16637fed3cb4826040518263ffffffff1660e01b8152600401808273ffffffffffffffffffffffffffffffffffffffff16815260200191505060206040518083038186803b158015610f3c57600080fd5b505afa158015610f50573d6000803e3d6000fd5b505050506040513d6020811015610f6657600080fd5b81019080805190602001909291905050508360028885020181518110610f8857fe5b6020026020010181815250508473ffffffffffffffffffffffffffffffffffffffff16632c668ec1828b6040518363ffffffff1660e01b8152600401808373ffffffffffffffffffffffffffffffffffffffff1681526020018281526020019250505060206040518083038186803b15801561100357600080fd5b505afa158015611017573d6000803e3d6000fd5b505050506040513d602081101561102d57600080fd5b8101908080519060200190929190505050836003888502018151811061104f57fe5b60200260200101818152505061107781600060040160149054906101000a900460ff166126bb565b836004888502018151811061108857fe5b6020026020010181815250506110b081600060040160149054906101000a900460ff1661277c565b83600588850201815181106110c157fe5b6020026020010181815250508473ffffffffffffffffffffffffffffffffffffffff1663f07456ce826040518263ffffffff1660e01b8152600401808273ffffffffffffffffffffffffffffffffffffffff16815260200191505060206040518083038186803b15801561113457600080fd5b505afa158015611148573d6000803e3d6000fd5b505050506040513d602081101561115e57600080fd5b8101908080519060200190929190505050836006888502018151811061118057fe5b6020026020010181815250508373ffffffffffffffffffffffffffffffffffffffff16635ae69163826000806040518463ffffffff1660e01b8152600401808473ffffffffffffffffffffffffffffffffffffffff16815260200183151581526020018215158152602001935050505060206040518083038186803b15801561120857600080fd5b505afa15801561121c573d6000803e3d6000fd5b505050506040513d602081101561123257600080fd5b8101908080519060200190929190505050836007888502018151811061125457fe5b6020026020010181815250508373ffffffffffffffffffffffffffffffffffffffff16635ae6916382600160006040518463ffffffff1660e01b8152600401808473ffffffffffffffffffffffffffffffffffffffff16815260200183151581526020018215158152602001935050505060206040518083038186803b1580156112dd57600080fd5b505afa1580156112f1573d6000803e3d6000fd5b505050506040513d602081101561130757600080fd5b8101908080519060200190929190505050836008888502018151811061132957fe5b602002602001018181525050508080600101915050610d00565b5080945050505050949350505050565b6000808373ffffffffffffffffffffffffffffffffffffffff166318160ddd6040518163ffffffff1660e01b815260040160206040518083038186803b15801561139c57600080fd5b505afa1580156113b0573d6000803e3d6000fd5b505050506040513d60208110156113c657600080fd5b8101908080519060200190929190505050905060005b83518110156114c75760008482815181106113f357fe5b6020026020010151905060008673ffffffffffffffffffffffffffffffffffffffff166370a08231836040518263ffffffff1660e01b8152600401808273ffffffffffffffffffffffffffffffffffffffff16815260200191505060206040518083038186803b15801561146657600080fd5b505afa15801561147a573d6000803e3d6000fd5b505050506040513d602081101561149057600080fd5b810190808051906020019092919050505090506114b6818561283d90919063ffffffff16565b9350505080806001019150506113dc565b508091505092915050565b606060006002905060608184510267ffffffffffffffff811180156114f657600080fd5b506040519080825280602002602001820160405280156115255781602001602082028036833780820191505090505b50905060005b845181101561174157600085828151811061154257fe5b60200260200101519050600073ffffffffffffffffffffffffffffffffffffffff168173ffffffffffffffffffffffffffffffffffffffff1614156115d8578673ffffffffffffffffffffffffffffffffffffffff163183858402815181106115a757fe5b602002602001018181525050600083600186850201815181106115c657fe5b60200260200101818152505050611734565b8073ffffffffffffffffffffffffffffffffffffffff166370a08231886040518263ffffffff1660e01b8152600401808273ffffffffffffffffffffffffffffffffffffffff16815260200191505060206040518083038186803b15801561163f57600080fd5b505afa158015611653573d6000803e3d6000fd5b505050506040513d602081101561166957600080fd5b8101908080519060200190929190505050838584028151811061168857fe5b6020026020010181815250508073ffffffffffffffffffffffffffffffffffffffff166318160ddd6040518163ffffffff1660e01b815260040160206040518083038186803b1580156116da57600080fd5b505afa1580156116ee573d6000803e3d6000fd5b505050506040513d602081101561170457600080fd5b8101908080519060200190929190505050836001868502018151811061172657fe5b602002602001018181525050505b808060010191505061152b565b50809250505092915050565b606080825167ffffffffffffffff8111801561176857600080fd5b506040519080825280602002602001820160405280156117975781602001602082028036833780820191505090505b50905060005b835181101561182157600060120160008583815181106117b957fe5b602002602001015173ffffffffffffffffffffffffffffffffffffffff1673ffffffffffffffffffffffffffffffffffffffff1681526020019081526020016000205482828151811061180857fe5b602002602001018181525050808060010191505061179d565b508091505092915050565b606060006002905060608184510267ffffffffffffffff8111801561185057600080fd5b5060405190808252806020026020018201604052801561187f5781602001602082028036833780820191505090505b50905060005b8451811015611a9657600085828151811061189c57fe5b60200260200101519050600073ffffffffffffffffffffffffffffffffffffffff168173ffffffffffffffffffffffffffffffffffffffff1614156118df578690505b600080600e0160008373ffffffffffffffffffffffffffffffffffffffff1673ffffffffffffffffffffffffffffffffffffffff168152602001908152602001600020549050600080600d0160008473ffffffffffffffffffffffffffffffffffffffff1673ffffffffffffffffffffffffffffffffffffffff16815260200190815260200160002054905060008111156119b65761199b8161198d846102586128c090919063ffffffff16565b61294690919063ffffffff16565b85878602815181106119a957fe5b6020026020010181815250505b60008060100160008573ffffffffffffffffffffffffffffffffffffffff1673ffffffffffffffffffffffffffffffffffffffff168152602001908152602001600020541115611a86576000611a0b846129cf565b905060008060100160008673ffffffffffffffffffffffffffffffffffffffff1673ffffffffffffffffffffffffffffffffffffffff168152602001908152602001600020549050611a668282612b8f90919063ffffffff16565b8760018a89020181518110611a7757fe5b60200260200101818152505050505b5050508080600101915050611885565b5080925050509392505050565b606060006002905060006002905060608183865181611abe57fe5b040267ffffffffffffffff81118015611ad657600080fd5b50604051908082528060200260200182016040528015611b055781602001602082028036833780820191505090505b50905060005b83865181611b1557fe5b04811015611da35760008685830281518110611b2d57fe5b6020026020010151905060008760018785020181518110611b4a57fe5b6020026020010151905060008973ffffffffffffffffffffffffffffffffffffffff1663e6a4390584846040518363ffffffff1660e01b8152600401808373ffffffffffffffffffffffffffffffffffffffff1681526020018273ffffffffffffffffffffffffffffffffffffffff1681526020019250505060206040518083038186803b158015611bdb57600080fd5b505afa158015611bef573d6000803e3d6000fd5b505050506040513d6020811015611c0557600080fd5b810190808051906020019092919050505090508273ffffffffffffffffffffffffffffffffffffffff166370a08231826040518263ffffffff1660e01b8152600401808273ffffffffffffffffffffffffffffffffffffffff16815260200191505060206040518083038186803b158015611c7f57600080fd5b505afa158015611c93573d6000803e3d6000fd5b505050506040513d6020811015611ca957600080fd5b81019080805190602001909291905050508587860281518110611cc857fe5b6020026020010181815250508173ffffffffffffffffffffffffffffffffffffffff166370a08231826040518263ffffffff1660e01b8152600401808273ffffffffffffffffffffffffffffffffffffffff16815260200191505060206040518083038186803b158015611d3b57600080fd5b505afa158015611d4f573d6000803e3d6000fd5b505050506040513d6020811015611d6557600080fd5b81019080805190602001909291905050508560018887020181518110611d8757fe5b6020026020010181815250505050508080600101915050611b0b565b5080935050505092915050565b6000806000611dd186600060040160149054906101000a900460ff166126bb565b90506000611df186600060040160149054906101000a900460ff1661277c565b90506000611e1a82611e0c85896128c090919063ffffffff16565b61294690919063ffffffff16565b90506000611e5a612710611e4c611e3d601e61271061283d90919063ffffffff16565b856128c090919063ffffffff16565b61294690919063ffffffff16565b90506000611e71828461283d90919063ffffffff16565b9050818196509650505050505094509492505050565b606080825167ffffffffffffffff81118015611ea257600080fd5b50604051908082528060200260200182016040528015611ed15781602001602082028036833780820191505090505b50905060005b835181101561202c576000848281518110611eee57fe5b60200260200101519050600073ffffffffffffffffffffffffffffffffffffffff168173ffffffffffffffffffffffffffffffffffffffff161415611f63578573ffffffffffffffffffffffffffffffffffffffff1631838381518110611f5157fe5b6020026020010181815250505061201f565b8073ffffffffffffffffffffffffffffffffffffffff166370a08231876040518263ffffffff1660e01b8152600401808273ffffffffffffffffffffffffffffffffffffffff16815260200191505060206040518083038186803b158015611fca57600080fd5b505afa158015611fde573d6000803e3d6000fd5b505050506040513d6020811015611ff457600080fd5b810190808051906020019092919050505083838151811061201157fe5b602002602001018181525050505b8080600101915050611ed7565b508091505092915050565b606080600985510267ffffffffffffffff8111801561205557600080fd5b506040519080825280602002602001820160405280156120845781602001602082028036833780820191505090505b50905060005b85518110156124c05760008060008060008060003073ffffffffffffffffffffffffffffffffffffffff16634a3f088d8f8f8b815181106120c757fe5b60200260200101518f8c815181106120db57fe5b60200260200101518f8d815181106120ef57fe5b60200260200101516040518563ffffffff1660e01b8152600401808573ffffffffffffffffffffffffffffffffffffffff1681526020018473ffffffffffffffffffffffffffffffffffffffff1681526020018373ffffffffffffffffffffffffffffffffffffffff16815260200182151581526020019450505050506101006040518083038186803b15801561218557600080fd5b505afa158015612199573d6000803e3d6000fd5b505050506040513d6101008110156121b057600080fd5b810190808051906020019092919080519060200190929190805190602001909291908051906020019092919080519060200190929190805190602001909291908051906020019092919080519060200190929190505050975097509750509650965096509650868960098a028151811061222657fe5b6020026020010181815250508589600160098b02018151811061224557fe5b6020026020010181815250508489600260098b02018151811061226457fe5b6020026020010181815250508389600360098b02018151811061228357fe5b6020026020010181815250508161229b57600061229e565b60015b60ff1689600460098b0201815181106122b357fe5b6020026020010181815250508289600560098b0201815181106122d257fe5b6020026020010181815250508089600660098b0201815181106122f157fe5b60200260200101818152505050505050505050600082600983028151811061231557fe5b60200260200101519050600083600260098502018151811061233357fe5b60200260200101519050600084600660098602018151811061235157fe5b6020026020010151905060008211156124b0576000803073ffffffffffffffffffffffffffffffffffffffff16635c07eaab8b888151811061238f57fe5b602002602001015187878d8b815181106123a557fe5b6020026020010151886040518663ffffffff1660e01b8152600401808673ffffffffffffffffffffffffffffffffffffffff168152602001858152602001848152602001831515815260200182815260200195505050505050604080518083038186803b15801561241557600080fd5b505afa158015612429573d6000803e3d6000fd5b505050506040513d604081101561243f57600080fd5b810190808051906020019092919080519060200190929190505050915091508161246a57600061246d565b60015b60ff1687600760098902018151811061248257fe5b602002602001018181525050808760086009890201815181106124a157fe5b60200260200101818152505050505b505050808060010191505061208a565b508091505095945050505050565b60008030905060006124f285600060040160149054906101000a900460ff166126bb565b9050600061251285600060040160149054906101000a900460ff1661277c565b905060008373ffffffffffffffffffffffffffffffffffffffff166352f55eed876040518263ffffffff1660e01b8152600401808273ffffffffffffffffffffffffffffffffffffffff16815260200191505060206040518083038186803b15801561257d57600080fd5b505afa158015612591573d6000803e3d6000fd5b505050506040513d60208110156125a757600080fd5b8101908080519060200190929190505050905060008473ffffffffffffffffffffffffffffffffffffffff1663c3c7b9e9886040518263ffffffff1660e01b8152600401808273ffffffffffffffffffffffffffffffffffffffff16815260200191505060206040518083038186803b15801561262357600080fd5b505afa158015612637573d6000803e3d6000fd5b505050506040513d602081101561264d57600080fd5b810190808051906020019092919050505090506000612675828461283d90919063ffffffff16565b9050600061269e8661269087856128c090919063ffffffff16565b61294690919063ffffffff16565b90506126ab818a8c612c17565b9750505050505050509392505050565b60003073ffffffffffffffffffffffffffffffffffffffff16635ae69163846000856040518463ffffffff1660e01b8152600401808473ffffffffffffffffffffffffffffffffffffffff16815260200183151581526020018215158152602001935050505060206040518083038186803b15801561273957600080fd5b505afa15801561274d573d6000803e3d6000fd5b505050506040513d602081101561276357600080fd5b8101908080519060200190929190505050905092915050565b60003073ffffffffffffffffffffffffffffffffffffffff16635ae69163846001856040518463ffffffff1660e01b8152600401808473ffffffffffffffffffffffffffffffffffffffff16815260200183151581526020018215158152602001935050505060206040518083038186803b1580156127fa57600080fd5b505afa15801561280e573d6000803e3d6000fd5b505050506040513d602081101561282457600080fd5b8101908080519060200190929190505050905092915050565b6000828211156128b5576040517f08c379a000000000000000000000000000000000000000000000000000000000815260040180806020018281038252601e8152602001807f536166654d6174683a207375627472616374696f6e206f766572666c6f77000081525060200191505060405180910390fd5b818303905092915050565b6000808314156128d35760009050612940565b60008284029050828482816128e457fe5b041461293b576040517f08c379a0000000000000000000000000000000000000000000000000000000008152600401808060200182810382526021815260200180612dd36021913960400191505060405180910390fd5b809150505b92915050565b60008082116129bd576040517f08c379a000000000000000000000000000000000000000000000000000000000815260040180806020018281038252601a8152602001807f536166654d6174683a206469766973696f6e206279207a65726f00000000000081525060200191505060405180910390fd5b8183816129c657fe5b04905092915050565b6000806129da612da5565b905042612a336170808360110160008773ffffffffffffffffffffffffffffffffffffffff1673ffffffffffffffffffffffffffffffffffffffff16815260200190815260200160002054612b8f90919063ffffffff16565b1115612a43576000915050612b8a565b6000612aad617080612a9f8460110160008873ffffffffffffffffffffffffffffffffffffffff1673ffffffffffffffffffffffffffffffffffffffff168152602001908152602001600020544261283d90919063ffffffff16565b61294690919063ffffffff16565b9050600082600d0160008673ffffffffffffffffffffffffffffffffffffffff1673ffffffffffffffffffffffffffffffffffffffff1681526020019081526020016000205490506000811415612b0a5760009350505050612b8a565b612b8481612b7684612b6887600e0160008b73ffffffffffffffffffffffffffffffffffffffff1673ffffffffffffffffffffffffffffffffffffffff168152602001908152602001600020546102586128c090919063ffffffff16565b6128c090919063ffffffff16565b61294690919063ffffffff16565b93505050505b919050565b600080828401905083811015612c0d576040517f08c379a000000000000000000000000000000000000000000000000000000000815260040180806020018281038252601b8152602001807f536166654d6174683a206164646974696f6e206f766572666c6f77000000000081525060200191505060405180910390fd5b8091505092915050565b600080612c22612da5565b905060008160040160009054906101000a900473ffffffffffffffffffffffffffffffffffffffff1673ffffffffffffffffffffffffffffffffffffffff168573ffffffffffffffffffffffffffffffffffffffff1614612cc4578160080160008673ffffffffffffffffffffffffffffffffffffffff1673ffffffffffffffffffffffffffffffffffffffff16815260200190815260200160002054612cc7565b60125b905060008260040160009054906101000a900473ffffffffffffffffffffffffffffffffffffffff1673ffffffffffffffffffffffffffffffffffffffff168573ffffffffffffffffffffffffffffffffffffffff1614612d69578260080160008673ffffffffffffffffffffffffffffffffffffffff1673ffffffffffffffffffffffffffffffffffffffff16815260200190815260200160002054612d6c565b60125b9050612d9982600a0a612d8b83600a0a8a6128c090919063ffffffff16565b61294690919063ffffffff16565b93505050509392505050565b6000807f7cb844567d08de0aea8bd535cf2547626d7310c37ea6e89341d354bf971f48a99050809150509056fe536166654d6174683a206d756c7469706c69636174696f6e206f766572666c6f77a26469706673582212209040bf55eb394931210c9b4ef1626b864f7ad244fa7684dc2fa184b9d25ab28664736f6c63430007050033",
  "linkReferences": {},
  "deployedLinkReferences": {}
}