{
  "_format": "hh-sol-artifact-1",
  "contractName": "RedemptionFacet",
  "sourceName": "contracts/facets/Redemption/RedemptionFacet.sol",
  "abi": [
    {
      "anonymous": false,
      "inputs": [
        {
          "indexed": false,
          "internalType": "address",
          "name": "_depositor",
          "type": "address"
        },
        {
          "indexed": false,
          "internalType": "uint256",
          "name": "_amount",
          "type": "uint256"
        }
      ],
      "name": "DepositWETH",
      "type": "event"
    },
    {
      "anonymous": false,
      "inputs": [
        {
          "indexed": false,
          "internalType": "address",
          "name": "_redeemer",
          "type": "address"
        },
        {
          "indexed": false,
          "internalType": "address",
          "name": "_ndol",
          "type": "address"
        },
        {
          "indexed": false,
          "internalType": "uint256",
          "name": "_redemptionAmount",
          "type": "uint256"
        },
        {
          "indexed": false,
          "internalType": "address",
          "name": "_weth",
          "type": "address"
        },
        {
          "indexed": false,
          "internalType": "uint256",
          "name": "_wethReturned",
          "type": "uint256"
        }
      ],
      "name": "RedeemNdol",
      "type": "event"
    },
    {
      "anonymous": false,
      "inputs": [
        {
          "indexed": false,
          "internalType": "address",
          "name": "_redeemer",
          "type": "address"
        },
        {
          "indexed": false,
          "internalType": "address",
          "name": "_nNecc",
          "type": "address"
        },
        {
          "indexed": false,
          "internalType": "uint256",
          "name": "_redemptionAmount",
          "type": "uint256"
        },
        {
          "indexed": false,
          "internalType": "address",
          "name": "_weth",
          "type": "address"
        },
        {
          "indexed": false,
          "internalType": "uint256",
          "name": "_wethReturned",
          "type": "uint256"
        }
      ],
      "name": "RedeemnNecc",
      "type": "event"
    },
    {
      "anonymous": false,
      "inputs": [
        {
          "indexed": false,
          "internalType": "address",
          "name": "_withdrawer",
          "type": "address"
        },
        {
          "indexed": false,
          "internalType": "uint256",
          "name": "_amount",
          "type": "uint256"
        }
      ],
      "name": "WithdrawWETH",
      "type": "event"
    },
    {
      "inputs": [
        {
          "internalType": "uint256",
          "name": "_amount",
          "type": "uint256"
        }
      ],
      "name": "depositWETH",
      "outputs": [],
      "stateMutability": "nonpayable",
      "type": "function"
    },
    {
      "inputs": [
        {
          "internalType": "address",
          "name": "_weth",
          "type": "address"
        },
        {
          "internalType": "address",
          "name": "_ndol",
          "type": "address"
        },
        {
          "internalType": "address",
          "name": "_nNecc",
          "type": "address"
        },
        {
          "internalType": "uint256",
          "name": "_ndolRedemptionRatio",
          "type": "uint256"
        },
        {
          "internalType": "uint256",
          "name": "_nNeccFloorPrice",
          "type": "uint256"
        },
        {
          "internalType": "uint256",
          "name": "_wethPrice",
          "type": "uint256"
        }
      ],
      "name": "initialize",
      "outputs": [],
      "stateMutability": "nonpayable",
      "type": "function"
    },
    {
      "inputs": [
        {
          "internalType": "uint256",
          "name": "_redemptionAmount",
          "type": "uint256"
        }
      ],
      "name": "redeemNdol",
      "outputs": [],
      "stateMutability": "nonpayable",
      "type": "function"
    },
    {
      "inputs": [
        {
          "internalType": "uint256",
          "name": "_redemptionAmount",
          "type": "uint256"
        }
      ],
      "name": "redeemnNecc",
      "outputs": [],
      "stateMutability": "nonpayable",
      "type": "function"
    },
    {
      "inputs": [
        {
          "internalType": "uint256",
          "name": "_amount",
          "type": "uint256"
        }
      ],
      "name": "withdrawWETH",
      "outputs": [],
      "stateMutability": "nonpayable",
      "type": "function"
    }
  ],
  "bytecode": "0x608060405234801561001057600080fd5b50611407806100206000396000f3fe608060405234801561001057600080fd5b50600436106100675760003560e01c8063728cdbca11610050578063728cdbca14610094578063f09e9705146100a7578063fc4dd333146100ba57600080fd5b8063010460791461006c57806366dd0f2414610081575b600080fd5b61007f61007a3660046110e8565b6100cd565b005b61007f61008f3660046110e8565b610335565b61007f6100a236600461111d565b610537565b61007f6100b53660046110e8565b6108eb565b61007f6100c83660046110e8565b610af8565b7f28be8ffbb5311693bc0912cb60de0eac746012ab1c52ae14c4c8d2a8dc77dfe7547f28be8ffbb5311693bc0912cb60de0eac746012ab1c52ae14c4c8d2a8dc77dfe590610126906001600160a01b0316333085610ca0565b600061014a600a610144846005015486610d5790919063ffffffff16565b90610d6c565b905060006101ea6101e38460000160009054906101000a90046001600160a01b03166001600160a01b031663313ce5676040518163ffffffff1660e01b8152600401602060405180830381865afa1580156101a9573d6000803e3d6000fd5b505050506040513d601f19601f820116820180604052508101906101cd919061117c565b6101d890600a6112b2565b600386015490610d57565b8390610d6c565b83546040516370a0823160e01b815230600482015291925082916001600160a01b03909116906370a0823190602401602060405180830381865afa158015610236573d6000803e3d6000fd5b505050506040513d601f19601f8201168201806040525081019061025a91906112c1565b10156102b95760405162461bcd60e51b815260206004820152602360248201527f526564656d7074696f6e3a206661696c656420746f207472616e73666572205760448201526208aa8960eb1b60648201526084015b60405180910390fd5b82546102cf906001600160a01b03163383610d78565b60028301548354604080513381526001600160a01b03938416602082015290810187905291166060820152608081018290527f7e641c1a934dcb7da5bb4558875c6d84d8721ba7561ced13f72de61a03e8b0999060a0015b60405180910390a150505050565b61033d610dc6565b7f28be8ffbb5311693bc0912cb60de0eac746012ab1c52ae14c4c8d2a8dc77dfe58054604080517f313ce56700000000000000000000000000000000000000000000000000000000815290516000926103fd926001600160a01b039091169163313ce567916004808201926020929091908290030181865afa1580156103c7573d6000803e3d6000fd5b505050506040513d601f19601f820116820180604052508101906103eb919061117c565b6103f690600a6112b2565b8490610d57565b82546040516370a0823160e01b815233600482015291925082916001600160a01b03909116906370a0823190602401602060405180830381865afa158015610449573d6000803e3d6000fd5b505050506040513d601f19601f8201168201806040525081019061046d91906112c1565b10156104e15760405162461bcd60e51b815260206004820152602260248201527f526564656d7074696f6e3a206661696c656420746f206465706f73697420574560448201527f544800000000000000000000000000000000000000000000000000000000000060648201526084016102b0565b81546104f8906001600160a01b0316333084610ca0565b60408051338152602081018390527fcfb322fad1e2497f3594a6acc3399f4389fac8d73b7e41090ddced771b13199b91015b60405180910390a1505050565b61053f610dc6565b6001600160a01b0386166105955760405162461bcd60e51b815260206004820181905260248201527f526564656d7074696f6e3a20696e76616c69642057455448206164647265737360448201526064016102b0565b6001600160a01b0385166106115760405162461bcd60e51b815260206004820152602160248201527f526564656d7074696f6e3a20696e76616c6964205f6e646f6c2061646472657360448201527f730000000000000000000000000000000000000000000000000000000000000060648201526084016102b0565b6001600160a01b03841661068d5760405162461bcd60e51b815260206004820152602260248201527f526564656d7074696f6e3a20696e76616c6964205f6e4e65636320616464726560448201527f737300000000000000000000000000000000000000000000000000000000000060648201526084016102b0565b600a83106107035760405162461bcd60e51b815260206004820152602760248201527f526564656d7074696f6e3a20696e76616c6964206e646f6c526564656d70746960448201527f6f6e526174696f0000000000000000000000000000000000000000000000000060648201526084016102b0565b6103e882106107795760405162461bcd60e51b8152602060048201526024808201527f526564656d7074696f6e3a20696e76616c6964205f6e4e656363466c6f6f725060448201527f726963650000000000000000000000000000000000000000000000000000000060648201526084016102b0565b610fa081106107ca5760405162461bcd60e51b815260206004820152601e60248201527f526564656d7074696f6e3a20696e76616c6964205f776574685072696365000060448201526064016102b0565b7f28be8ffbb5311693bc0912cb60de0eac746012ab1c52ae14c4c8d2a8dc77dfe580547fffffffffffffffffffffffff00000000000000000000000000000000000000009081166001600160a01b03988916179091557f28be8ffbb5311693bc0912cb60de0eac746012ab1c52ae14c4c8d2a8dc77dfe780548216968816969096179095557f28be8ffbb5311693bc0912cb60de0eac746012ab1c52ae14c4c8d2a8dc77dfe6805490951693909516929092179092557f28be8ffbb5311693bc0912cb60de0eac746012ab1c52ae14c4c8d2a8dc77dfea919091557f28be8ffbb5311693bc0912cb60de0eac746012ab1c52ae14c4c8d2a8dc77dfe9557f28be8ffbb5311693bc0912cb60de0eac746012ab1c52ae14c4c8d2a8dc77dfe855565b7f28be8ffbb5311693bc0912cb60de0eac746012ab1c52ae14c4c8d2a8dc77dfe6547f28be8ffbb5311693bc0912cb60de0eac746012ab1c52ae14c4c8d2a8dc77dfe590610944906001600160a01b0316333085610ca0565b600061095d826004015484610d5790919063ffffffff16565b905060006109bc6101e38460000160009054906101000a90046001600160a01b03166001600160a01b031663313ce5676040518163ffffffff1660e01b8152600401602060405180830381865afa1580156101a9573d6000803e3d6000fd5b83546040516370a0823160e01b815230600482015291925082916001600160a01b03909116906370a0823190602401602060405180830381865afa158015610a08573d6000803e3d6000fd5b505050506040513d601f19601f82011682018060405250810190610a2c91906112c1565b1015610a865760405162461bcd60e51b815260206004820152602360248201527f526564656d7074696f6e3a206661696c656420746f207472616e73666572205760448201526208aa8960eb1b60648201526084016102b0565b8254610a9c906001600160a01b03163383610d78565b60018301548354604080513381526001600160a01b03938416602082015290810187905291166060820152608081018290527ff837d91dc519c4ecbd2ab29629fffde1d30129bd0b978e3b605bc96c6096dcb89060a001610327565b610b00610dc6565b7f28be8ffbb5311693bc0912cb60de0eac746012ab1c52ae14c4c8d2a8dc77dfe58054604080517f313ce5670000000000000000000000000000000000000000000000000000000081529051600092610b8a926001600160a01b039091169163313ce567916004808201926020929091908290030181865afa1580156103c7573d6000803e3d6000fd5b82546040516370a0823160e01b815230600482015291925082916001600160a01b03909116906370a0823190602401602060405180830381865afa158015610bd6573d6000803e3d6000fd5b505050506040513d601f19601f82011682018060405250810190610bfa91906112c1565b1015610c545760405162461bcd60e51b815260206004820152602360248201527f526564656d7074696f6e3a206661696c656420746f207769746864726177205760448201526208aa8960eb1b60648201526084016102b0565b8154610c6a906001600160a01b03163383610d78565b60408051338152602081018390527f3bf4596a6f108248534598ed9782e48c7abd1ff9398b5ffef44b7764936a4b1b910161052a565b6040516001600160a01b0380851660248301528316604482015260648101829052610d519085907f23b872dd00000000000000000000000000000000000000000000000000000000906084015b60408051601f198184030181529190526020810180517bffffffffffffffffffffffffffffffffffffffffffffffffffffffff167fffffffff0000000000000000000000000000000000000000000000000000000090931692909217909152610dd0565b50505050565b6000610d6382846112da565b90505b92915050565b6000610d6382846112f9565b6040516001600160a01b038316602482015260448101829052610dc19084907fa9059cbb0000000000000000000000000000000000000000000000000000000090606401610ced565b505050565b610dce610eb5565b565b6000610e25826040518060400160405280602081526020017f5361666545524332303a206c6f772d6c6576656c2063616c6c206661696c6564815250856001600160a01b0316610f579092919063ffffffff16565b805190915015610dc15780806020019051810190610e439190611334565b610dc15760405162461bcd60e51b815260206004820152602a60248201527f5361666545524332303a204552433230206f7065726174696f6e20646964206e60448201527f6f7420737563636565640000000000000000000000000000000000000000000060648201526084016102b0565b7fc8fcad8db84d3cc18b4c41d551ea0ee66dd599cde068d998e57d5e09332c131c600401546001600160a01b03163314610dce5760405162461bcd60e51b815260206004820152602260248201527f4c69624469616d6f6e643a20696e76616c696420636f6e7472616374206f776e60448201527f657200000000000000000000000000000000000000000000000000000000000060648201526084016102b0565b6060610f668484600085610f70565b90505b9392505050565b606082471015610fe85760405162461bcd60e51b815260206004820152602660248201527f416464726573733a20696e73756666696369656e742062616c616e636520666f60448201527f722063616c6c000000000000000000000000000000000000000000000000000060648201526084016102b0565b843b6110365760405162461bcd60e51b815260206004820152601d60248201527f416464726573733a2063616c6c20746f206e6f6e2d636f6e747261637400000060448201526064016102b0565b600080866001600160a01b031685876040516110529190611382565b60006040518083038185875af1925050503d806000811461108f576040519150601f19603f3d011682016040523d82523d6000602084013e611094565b606091505b50915091506110a48282866110af565b979650505050505050565b606083156110be575081610f69565b8251156110ce5782518084602001fd5b8160405162461bcd60e51b81526004016102b0919061139e565b6000602082840312156110fa57600080fd5b5035919050565b80356001600160a01b038116811461111857600080fd5b919050565b60008060008060008060c0878903121561113657600080fd5b61113f87611101565b955061114d60208801611101565b945061115b60408801611101565b9350606087013592506080870135915060a087013590509295509295509295565b60006020828403121561118e57600080fd5b815160ff81168114610f6957600080fd5b7f4e487b7100000000000000000000000000000000000000000000000000000000600052601160045260246000fd5b600181815b808511156112095781600019048211156111ef576111ef61119f565b808516156111fc57918102915b93841c93908002906111d3565b509250929050565b60008261122057506001610d66565b8161122d57506000610d66565b8160018114611243576002811461124d57611269565b6001915050610d66565b60ff84111561125e5761125e61119f565b50506001821b610d66565b5060208310610133831016604e8410600b841016171561128c575081810a610d66565b61129683836111ce565b80600019048211156112aa576112aa61119f565b029392505050565b6000610d6360ff841683611211565b6000602082840312156112d357600080fd5b5051919050565b60008160001904831182151516156112f4576112f461119f565b500290565b60008261132f577f4e487b7100000000000000000000000000000000000000000000000000000000600052601260045260246000fd5b500490565b60006020828403121561134657600080fd5b81518015158114610f6957600080fd5b60005b83811015611371578181015183820152602001611359565b83811115610d515750506000910152565b60008251611394818460208701611356565b9190910192915050565b60208152600082518060208401526113bd816040850160208701611356565b601f01601f1916919091016040019291505056fea264697066735822122038e7222c38ec476a789d4eccbb107c167be361607977b9feb0d660233995d50464736f6c634300080a0033",
  "linkReferences": {},
  "deployedLinkReferences": {}
}