{
  "_format": "hh-sol-artifact-1",
  "contractName": "sNeccFacet",
  "sourceName": "contracts/facets/sNecc/sNeccFacet.sol",
  "abi": [
    {
      "anonymous": false,
      "inputs": [
        {
          "indexed": true,
          "internalType": "address",
          "name": "owner",
          "type": "address"
        },
        {
          "indexed": true,
          "internalType": "address",
          "name": "spender",
          "type": "address"
        },
        {
          "indexed": false,
          "internalType": "uint256",
          "name": "value",
          "type": "uint256"
        }
      ],
      "name": "Approval",
      "type": "event"
    },
    {
      "anonymous": false,
      "inputs": [
        {
          "indexed": true,
          "internalType": "uint256",
          "name": "epoch",
          "type": "uint256"
        },
        {
          "indexed": false,
          "internalType": "uint256",
          "name": "rebase",
          "type": "uint256"
        },
        {
          "indexed": false,
          "internalType": "uint256",
          "name": "index",
          "type": "uint256"
        }
      ],
      "name": "LogRebase",
      "type": "event"
    },
    {
      "anonymous": false,
      "inputs": [
        {
          "indexed": false,
          "internalType": "address",
          "name": "stakingContract",
          "type": "address"
        }
      ],
      "name": "LogStakingContractUpdated",
      "type": "event"
    },
    {
      "anonymous": false,
      "inputs": [
        {
          "indexed": true,
          "internalType": "uint256",
          "name": "epoch",
          "type": "uint256"
        },
        {
          "indexed": false,
          "internalType": "uint256",
          "name": "timestamp",
          "type": "uint256"
        },
        {
          "indexed": false,
          "internalType": "uint256",
          "name": "totalSupply",
          "type": "uint256"
        }
      ],
      "name": "LogSupply",
      "type": "event"
    },
    {
      "anonymous": false,
      "inputs": [
        {
          "indexed": true,
          "internalType": "address",
          "name": "from",
          "type": "address"
        },
        {
          "indexed": true,
          "internalType": "address",
          "name": "to",
          "type": "address"
        },
        {
          "indexed": false,
          "internalType": "uint256",
          "name": "value",
          "type": "uint256"
        }
      ],
      "name": "Transfer",
      "type": "event"
    },
    {
      "inputs": [
        {
          "internalType": "address",
          "name": "holder",
          "type": "address"
        },
        {
          "internalType": "address",
          "name": "spender",
          "type": "address"
        }
      ],
      "name": "allowance",
      "outputs": [
        {
          "internalType": "uint256",
          "name": "",
          "type": "uint256"
        }
      ],
      "stateMutability": "view",
      "type": "function"
    },
    {
      "inputs": [
        {
          "internalType": "address",
          "name": "spender",
          "type": "address"
        },
        {
          "internalType": "uint256",
          "name": "amount",
          "type": "uint256"
        }
      ],
      "name": "approve",
      "outputs": [
        {
          "internalType": "bool",
          "name": "",
          "type": "bool"
        }
      ],
      "stateMutability": "nonpayable",
      "type": "function"
    },
    {
      "inputs": [
        {
          "internalType": "uint256",
          "name": "gons",
          "type": "uint256"
        }
      ],
      "name": "balanceForGons",
      "outputs": [
        {
          "internalType": "uint256",
          "name": "",
          "type": "uint256"
        }
      ],
      "stateMutability": "view",
      "type": "function"
    },
    {
      "inputs": [
        {
          "internalType": "address",
          "name": "who",
          "type": "address"
        }
      ],
      "name": "balanceOf",
      "outputs": [
        {
          "internalType": "uint256",
          "name": "",
          "type": "uint256"
        }
      ],
      "stateMutability": "view",
      "type": "function"
    },
    {
      "inputs": [],
      "name": "circulatingSupply",
      "outputs": [
        {
          "internalType": "uint256",
          "name": "",
          "type": "uint256"
        }
      ],
      "stateMutability": "view",
      "type": "function"
    },
    {
      "inputs": [],
      "name": "decimals",
      "outputs": [
        {
          "internalType": "uint8",
          "name": "",
          "type": "uint8"
        }
      ],
      "stateMutability": "view",
      "type": "function"
    },
    {
      "inputs": [
        {
          "internalType": "address",
          "name": "spender",
          "type": "address"
        },
        {
          "internalType": "uint256",
          "name": "subtractedValue",
          "type": "uint256"
        }
      ],
      "name": "decreaseAllowance",
      "outputs": [
        {
          "internalType": "bool",
          "name": "",
          "type": "bool"
        }
      ],
      "stateMutability": "nonpayable",
      "type": "function"
    },
    {
      "inputs": [
        {
          "internalType": "uint256",
          "name": "amount",
          "type": "uint256"
        }
      ],
      "name": "gonsForBalance",
      "outputs": [
        {
          "internalType": "uint256",
          "name": "",
          "type": "uint256"
        }
      ],
      "stateMutability": "view",
      "type": "function"
    },
    {
      "inputs": [],
      "name": "gov",
      "outputs": [
        {
          "internalType": "address",
          "name": "",
          "type": "address"
        }
      ],
      "stateMutability": "view",
      "type": "function"
    },
    {
      "inputs": [
        {
          "internalType": "address",
          "name": "spender",
          "type": "address"
        },
        {
          "internalType": "uint256",
          "name": "addedValue",
          "type": "uint256"
        }
      ],
      "name": "increaseAllowance",
      "outputs": [
        {
          "internalType": "bool",
          "name": "",
          "type": "bool"
        }
      ],
      "stateMutability": "nonpayable",
      "type": "function"
    },
    {
      "inputs": [],
      "name": "index",
      "outputs": [
        {
          "internalType": "uint256",
          "name": "",
          "type": "uint256"
        }
      ],
      "stateMutability": "view",
      "type": "function"
    },
    {
      "inputs": [
        {
          "internalType": "address",
          "name": "_stakingContract",
          "type": "address"
        }
      ],
      "name": "initialize",
      "outputs": [],
      "stateMutability": "nonpayable",
      "type": "function"
    },
    {
      "inputs": [],
      "name": "name",
      "outputs": [
        {
          "internalType": "string",
          "name": "",
          "type": "string"
        }
      ],
      "stateMutability": "view",
      "type": "function"
    },
    {
      "inputs": [
        {
          "internalType": "address",
          "name": "owner",
          "type": "address"
        }
      ],
      "name": "nonces",
      "outputs": [
        {
          "internalType": "uint256",
          "name": "",
          "type": "uint256"
        }
      ],
      "stateMutability": "view",
      "type": "function"
    },
    {
      "inputs": [
        {
          "internalType": "address",
          "name": "owner",
          "type": "address"
        },
        {
          "internalType": "address",
          "name": "spender",
          "type": "address"
        },
        {
          "internalType": "uint256",
          "name": "amount",
          "type": "uint256"
        },
        {
          "internalType": "uint256",
          "name": "deadline",
          "type": "uint256"
        },
        {
          "internalType": "uint8",
          "name": "v",
          "type": "uint8"
        },
        {
          "internalType": "bytes32",
          "name": "r",
          "type": "bytes32"
        },
        {
          "internalType": "bytes32",
          "name": "s",
          "type": "bytes32"
        }
      ],
      "name": "permit",
      "outputs": [],
      "stateMutability": "nonpayable",
      "type": "function"
    },
    {
      "inputs": [
        {
          "internalType": "uint256",
          "name": "profit_",
          "type": "uint256"
        },
        {
          "internalType": "uint256",
          "name": "epoch_",
          "type": "uint256"
        }
      ],
      "name": "rebase",
      "outputs": [
        {
          "internalType": "uint256",
          "name": "",
          "type": "uint256"
        }
      ],
      "stateMutability": "nonpayable",
      "type": "function"
    },
    {
      "inputs": [
        {
          "internalType": "address",
          "name": "_newOwner",
          "type": "address"
        }
      ],
      "name": "setGov",
      "outputs": [],
      "stateMutability": "nonpayable",
      "type": "function"
    },
    {
      "inputs": [
        {
          "internalType": "uint256",
          "name": "_INDEX",
          "type": "uint256"
        }
      ],
      "name": "setIndex",
      "outputs": [
        {
          "internalType": "bool",
          "name": "",
          "type": "bool"
        }
      ],
      "stateMutability": "nonpayable",
      "type": "function"
    },
    {
      "inputs": [],
      "name": "stakingContract",
      "outputs": [
        {
          "internalType": "address",
          "name": "",
          "type": "address"
        }
      ],
      "stateMutability": "view",
      "type": "function"
    },
    {
      "inputs": [],
      "name": "symbol",
      "outputs": [
        {
          "internalType": "string",
          "name": "",
          "type": "string"
        }
      ],
      "stateMutability": "view",
      "type": "function"
    },
    {
      "inputs": [],
      "name": "totalSupply",
      "outputs": [
        {
          "internalType": "uint256",
          "name": "",
          "type": "uint256"
        }
      ],
      "stateMutability": "view",
      "type": "function"
    },
    {
      "inputs": [
        {
          "internalType": "address",
          "name": "to",
          "type": "address"
        },
        {
          "internalType": "uint256",
          "name": "value",
          "type": "uint256"
        }
      ],
      "name": "transfer",
      "outputs": [
        {
          "internalType": "bool",
          "name": "",
          "type": "bool"
        }
      ],
      "stateMutability": "nonpayable",
      "type": "function"
    },
    {
      "inputs": [
        {
          "internalType": "address",
          "name": "from",
          "type": "address"
        },
        {
          "internalType": "address",
          "name": "to",
          "type": "address"
        },
        {
          "internalType": "uint256",
          "name": "value",
          "type": "uint256"
        }
      ],
      "name": "transferFrom",
      "outputs": [
        {
          "internalType": "bool",
          "name": "",
          "type": "bool"
        }
      ],
      "stateMutability": "nonpayable",
      "type": "function"
    }
  ],
  "bytecode": "0x608060405234801561001057600080fd5b50612ba1806100206000396000f3fe608060405234801561001057600080fd5b506004361061014d5760003560e01c806370a08231116100c3578063a9059cbb1161007c578063a9059cbb14610404578063c4d66de814610434578063cfad57a214610450578063d505accf1461046c578063dd62ed3e14610488578063ee99205c146104b85761014d565b806370a08231146103085780637965d56d146103385780637ecebe00146103685780639358928b1461039857806395d89b41146103b6578063a457c2d7146103d45761014d565b80631bd39674116101155780631bd396741461020c57806323b872dd1461023c5780632986c0e51461026c578063313ce5671461028a57806339509351146102a857806340a5737f146102d85761014d565b8063058ecdb41461015257806306fdde0314610182578063095ea7b3146101a057806312d43a51146101d057806318160ddd146101ee575b600080fd5b61016c60048036038101906101679190611e9e565b6104d6565b6040516101799190611eed565b60405180910390f35b61018a610696565b6040516101979190611fa1565b60405180910390f35b6101ba60048036038101906101b59190612021565b610731565b6040516101c7919061207c565b60405180910390f35b6101d8610748565b6040516101e591906120a6565b60405180910390f35b6101f6610757565b6040516102039190611eed565b60405180910390f35b610226600480360381019061022191906120c1565b610766565b6040516102339190611eed565b60405180910390f35b610256600480360381019061025191906120ee565b610792565b604051610263919061207c565b60405180910390f35b6102746109c9565b6040516102819190611eed565b60405180910390f35b6102926109e9565b60405161029f919061215d565b60405180910390f35b6102c260048036038101906102bd9190612021565b610a09565b6040516102cf919061207c565b60405180910390f35b6102f260048036038101906102ed91906120c1565b610a3b565b6040516102ff919061207c565b60405180910390f35b610322600480360381019061031d9190612178565b610aaa565b60405161032f9190611eed565b60405180910390f35b610352600480360381019061034d91906120c1565b610b17565b60405161035f9190611eed565b60405180910390f35b610382600480360381019061037d9190612178565b610b43565b60405161038f9190611eed565b60405180910390f35b6103a0610b95565b6040516103ad9190611eed565b60405180910390f35b6103be610bf8565b6040516103cb9190611fa1565b60405180910390f35b6103ee60048036038101906103e99190612021565b610c93565b6040516103fb919061207c565b60405180910390f35b61041e60048036038101906104199190612021565b610ce3565b60405161042b919061207c565b60405180910390f35b61044e60048036038101906104499190612178565b610eae565b005b61046a60048036038101906104659190612178565b611143565b005b61048660048036038101906104819190612207565b61114f565b005b6104a2600480360381019061049d91906122a9565b611372565b6040516104af9190611eed565b60405180910390f35b6104c0611402565b6040516104cd91906120a6565b60405180910390f35b6000806104e161143a565b905060006104ed611467565b90506104f882611494565b600080610503610b95565b9050600087141561059e57857f917acfbe39be6509ccf7fecb66a7e42ce2be1083c2d7dd3b9b7491dabddb8da44285600201546040516105449291906122e9565b60405180910390a2857f6012dbce857565c4a40974aa5de8373a761fc429077ef0c8c8611d1e20d63fb260006105786109c9565b604051610586929190612357565b60405180910390a28260020154945050505050610690565b60008111156105d7576105d0816105c285600201548a61152990919063ffffffff16565b61153f90919063ffffffff16565b91506105db565b8691505b6105f282846002015461155590919063ffffffff16565b83600201819055506000196fffffffffffffffffffffffffffffffff1683600201541115610638576000196fffffffffffffffffffffffffffffffff1683600201819055505b61067083600201546611c37937e0800060001961065591906123af565b600019610662919061240f565b61153f90919063ffffffff16565b846005018190555061068381888861156b565b5082600201549450505050505b92915050565b60606106a06116f8565b60000180546106ae90612472565b80601f01602080910402602001604051908101604052809291908181526020018280546106da90612472565b80156107275780601f106106fc57610100808354040283529160200191610727565b820191906000526020600020905b81548152906001019060200180831161070a57829003601f168201915b5050505050905090565b600061073e338484611725565b6001905092915050565b60006107526118f9565b905090565b6000610761611931565b905090565b60008061077161143a565b905061078a81600501548461152990919063ffffffff16565b915050919050565b60008061079d61143a565b90506107a98484610c93565b503373ffffffffffffffffffffffffffffffffffffffff168573ffffffffffffffffffffffffffffffffffffffff167f8c5be1e5ebec7d5bd14f71427d1e84f3dd0314c0f7b2291e5b200ac8c7c3b9256108033388611372565b6040516108109190611eed565b60405180910390a3600061082384610766565b9050610879818360060160008973ffffffffffffffffffffffffffffffffffffffff1673ffffffffffffffffffffffffffffffffffffffff1681526020019081526020016000205461194490919063ffffffff16565b8260060160008873ffffffffffffffffffffffffffffffffffffffff1673ffffffffffffffffffffffffffffffffffffffff16815260200190815260200160002081905550610912818360060160008873ffffffffffffffffffffffffffffffffffffffff1673ffffffffffffffffffffffffffffffffffffffff1681526020019081526020016000205461155590919063ffffffff16565b8260060160008773ffffffffffffffffffffffffffffffffffffffff1673ffffffffffffffffffffffffffffffffffffffff168152602001908152602001600020819055508473ffffffffffffffffffffffffffffffffffffffff168673ffffffffffffffffffffffffffffffffffffffff167fddf252ad1be2c89b69c2b068fc378daa952ba7f163c4a11628f55a4df523b3ef866040516109b49190611eed565b60405180910390a36001925050509392505050565b6000806109d461143a565b90506109e38160000154610b17565b91505090565b60006109f36116f8565b60020160009054906101000a900460ff16905090565b6000610a313384610a2c85610a1e3389611372565b61155590919063ffffffff16565b611725565b6001905092915050565b600080610a4661143a565b90506000816000015414610a8f576040517f08c379a0000000000000000000000000000000000000000000000000000000008152600401610a86906124f0565b60405180910390fd5b610a9883610766565b81600001819055506001915050919050565b600080610ab561143a565b9050610b0f81600501548260060160008673ffffffffffffffffffffffffffffffffffffffff1673ffffffffffffffffffffffffffffffffffffffff1681526020019081526020016000205461153f90919063ffffffff16565b915050919050565b600080610b2261143a565b9050610b3b81600501548461153f90919063ffffffff16565b915050919050565b6000610b4d61195a565b60000160008373ffffffffffffffffffffffffffffffffffffffff1673ffffffffffffffffffffffffffffffffffffffff168152602001908152602001600020549050919050565b600080610ba061143a565b90506000610bac611467565b9050610bf1610bde8360010160009054906101000a900473ffffffffffffffffffffffffffffffffffffffff16610aaa565b826002015461194490919063ffffffff16565b9250505090565b6060610c026116f8565b6001018054610c1090612472565b80601f0160208091040260200160405190810160405280929190818152602001828054610c3c90612472565b8015610c895780601f10610c5e57610100808354040283529160200191610c89565b820191906000526020600020905b815481529060010190602001808311610c6c57829003601f168201915b5050505050905090565b600080610ca03385611372565b9050808310610cba57610cb533856000611725565b610cd8565b610cd73385610cd2868561194490919063ffffffff16565b611725565b5b600191505092915050565b600080610cee61143a565b90506000610d0982600501548561152990919063ffffffff16565b9050610d5f818360060160003373ffffffffffffffffffffffffffffffffffffffff1673ffffffffffffffffffffffffffffffffffffffff1681526020019081526020016000205461194490919063ffffffff16565b8260060160003373ffffffffffffffffffffffffffffffffffffffff1673ffffffffffffffffffffffffffffffffffffffff16815260200190815260200160002081905550610df8818360060160008873ffffffffffffffffffffffffffffffffffffffff1673ffffffffffffffffffffffffffffffffffffffff1681526020019081526020016000205461155590919063ffffffff16565b8260060160008773ffffffffffffffffffffffffffffffffffffffff1673ffffffffffffffffffffffffffffffffffffffff168152602001908152602001600020819055508473ffffffffffffffffffffffffffffffffffffffff163373ffffffffffffffffffffffffffffffffffffffff167fddf252ad1be2c89b69c2b068fc378daa952ba7f163c4a11628f55a4df523b3ef86604051610e9a9190611eed565b60405180910390a360019250505092915050565b610eb6611987565b6000610ec0611467565b90506000610ecc6116f8565b90506000610ed861143a565b9050610f226040518060400160405280600b81526020017f5374616b6564204e6563630000000000000000000000000000000000000000008152508361199190919063ffffffff16565b610f6a6040518060400160405280600581526020017f734e454343000000000000000000000000000000000000000000000000000000815250836119ae90919063ffffffff16565b610f7e6009836119cb90919063ffffffff16565b6611c37937e080008360020181905550610fc683600201546611c37937e08000600019610fab91906123af565b600019610fb8919061240f565b61153f90919063ffffffff16565b8160050181905550838160010160006101000a81548173ffffffffffffffffffffffffffffffffffffffff021916908373ffffffffffffffffffffffffffffffffffffffff1602179055506611c37937e0800060001961102691906123af565b600019611033919061240f565b8160060160008360010160009054906101000a900473ffffffffffffffffffffffffffffffffffffffff1673ffffffffffffffffffffffffffffffffffffffff1673ffffffffffffffffffffffffffffffffffffffff168152602001908152602001600020819055508373ffffffffffffffffffffffffffffffffffffffff16600073ffffffffffffffffffffffffffffffffffffffff167fddf252ad1be2c89b69c2b068fc378daa952ba7f163c4a11628f55a4df523b3ef85600201546040516110fe9190611eed565b60405180910390a37f817c653428858ed536dc085c5d8273734c517b55de44b55f5c5877a75e3373a18460405161113591906120a6565b60405180910390a150505050565b61114c816119ec565b50565b83421115611192576040517f08c379a00000000000000000000000000000000000000000000000000000000081526004016111899061255c565b60405180910390fd5b60008061119d61195a565b60000160008a73ffffffffffffffffffffffffffffffffffffffff1673ffffffffffffffffffffffffffffffffffffffff1681526020019081526020016000205490506040517f6e71edae12b1b97f4d1f60370fef10105fa2faae0126114a169c64845d6126c981528960208201528860408201528760608201528160808201528660a082015260c081209250506000611235611a47565b905060006040517f1901000000000000000000000000000000000000000000000000000000000000815282600282015284602282015260428120915050600061128b88888885611a92909392919063ffffffff16565b90508b73ffffffffffffffffffffffffffffffffffffffff168173ffffffffffffffffffffffffffffffffffffffff16146112fb576040517f08c379a00000000000000000000000000000000000000000000000000000000081526004016112f2906125c8565b60405180910390fd5b61130361195a565b60000160008d73ffffffffffffffffffffffffffffffffffffffff1673ffffffffffffffffffffffffffffffffffffffff1681526020019081526020016000206000815480929190611354906125e8565b91905055506113648c8c8c611725565b505050505050505050505050565b600061137c611467565b60010160008473ffffffffffffffffffffffffffffffffffffffff1673ffffffffffffffffffffffffffffffffffffffff16815260200190815260200160002060008373ffffffffffffffffffffffffffffffffffffffff1673ffffffffffffffffffffffffffffffffffffffff16815260200190815260200160002054905092915050565b60008061140d61143a565b90508060010160009054906101000a900473ffffffffffffffffffffffffffffffffffffffff1691505090565b6000807f85cc79b6be0f7f23d750ce271d29ecc56c7c1a80fc209736f2b226ac13ce4e5a90508091505090565b6000807fc991b2e918acaba8e5721668ed0b1982684e5a8692a621bcd2d7ef326bb015b490508091505090565b8060010160009054906101000a900473ffffffffffffffffffffffffffffffffffffffff1673ffffffffffffffffffffffffffffffffffffffff163373ffffffffffffffffffffffffffffffffffffffff1614611526576040517f08c379a000000000000000000000000000000000000000000000000000000000815260040161151d9061267d565b60405180910390fd5b50565b60008183611537919061269d565b905092915050565b6000818361154d91906126f7565b905092915050565b600081836115639190612728565b905092915050565b60008061157661143a565b90506000611582611467565b905060006115b3876115a5670de0b6b3a76400008961152990919063ffffffff16565b61153f90919063ffffffff16565b9050826004016040518060e001604052808781526020018381526020018981526020016115de610b95565b81526020018881526020016115f16109c9565b8152602001438152509080600181540180825580915050600190039060005260206000209060070201600090919091909150600082015181600001556020820151816001015560408201518160020155606082015181600301556080820151816004015560a0820151816005015560c082015181600601555050847f917acfbe39be6509ccf7fecb66a7e42ce2be1083c2d7dd3b9b7491dabddb8da44284600201546040516116a19291906122e9565b60405180910390a2847f6012dbce857565c4a40974aa5de8373a761fc429077ef0c8c8611d1e20d63fb2826116d46109c9565b6040516116e29291906122e9565b60405180910390a2600193505050509392505050565b6000807f2967a798b92539a1b9eefe4d8eb931f96b68d27665e276f1bee2d5db7f74304790508091505090565b600073ffffffffffffffffffffffffffffffffffffffff168373ffffffffffffffffffffffffffffffffffffffff161415611795576040517f08c379a000000000000000000000000000000000000000000000000000000000815260040161178c906127f0565b60405180910390fd5b600073ffffffffffffffffffffffffffffffffffffffff168273ffffffffffffffffffffffffffffffffffffffff161415611805576040517f08c379a00000000000000000000000000000000000000000000000000000000081526004016117fc90612882565b60405180910390fd5b8061180e611467565b60010160008573ffffffffffffffffffffffffffffffffffffffff1673ffffffffffffffffffffffffffffffffffffffff16815260200190815260200160002060008473ffffffffffffffffffffffffffffffffffffffff1673ffffffffffffffffffffffffffffffffffffffff168152602001908152602001600020819055508173ffffffffffffffffffffffffffffffffffffffff168373ffffffffffffffffffffffffffffffffffffffff167f8c5be1e5ebec7d5bd14f71427d1e84f3dd0314c0f7b2291e5b200ac8c7c3b925836040516118ec9190611eed565b60405180910390a3505050565b600080611904611c1d565b90508060040160009054906101000a900473ffffffffffffffffffffffffffffffffffffffff1691505090565b600061193b611467565b60020154905090565b60008183611952919061240f565b905092915050565b6000807fbb9c3660b51e1fafa886fcf600a68efa81371bd50359eccba98f0c4fff2cfeb990508091505090565b61198f611c4a565b565b808260000190805190602001906119a9929190611dc0565b505050565b808260010190805190602001906119c6929190611dc0565b505050565b808260020160006101000a81548160ff021916908360ff1602179055505050565b6119f4611c4a565b60006119fe611c1d565b9050818160040160006101000a81548173ffffffffffffffffffffffffffffffffffffffff021916908373ffffffffffffffffffffffffffffffffffffffff1602179055505050565b600080611a5261195a565b6001016000611a5f611ce5565b81526020019081526020016000205490506000801b8114611a835780915050611a8f565b611a8b611ced565b9150505b90565b60007f7fffffffffffffffffffffffffffffff5d576e7357a4501ddfe92f46681b20a08260001c1115611afa576040517f08c379a0000000000000000000000000000000000000000000000000000000008152600401611af190612914565b60405180910390fd5b601b8460ff161480611b0f5750601c8460ff16145b611b4e576040517f08c379a0000000000000000000000000000000000000000000000000000000008152600401611b45906129a6565b60405180910390fd5b600060018686868660405160008152602001604052604051611b7394939291906129d5565b6020604051602081039080840390855afa158015611b95573d6000803e3d6000fd5b505050602060405103519050600073ffffffffffffffffffffffffffffffffffffffff168173ffffffffffffffffffffffffffffffffffffffff161415611c11576040517f08c379a0000000000000000000000000000000000000000000000000000000008152600401611c0890612a66565b60405180910390fd5b80915050949350505050565b6000807fc8fcad8db84d3cc18b4c41d551ea0ee66dd599cde068d998e57d5e09332c131c90508091505090565b611c52611c1d565b60040160009054906101000a900473ffffffffffffffffffffffffffffffffffffffff1673ffffffffffffffffffffffffffffffffffffffff163373ffffffffffffffffffffffffffffffffffffffff1614611ce3576040517f08c379a0000000000000000000000000000000000000000000000000000000008152600401611cda90612af8565b60405180910390fd5b565b600046905090565b600080611cf8611ce5565b905060007f8b73c3c69bb8fe3d512ecc4cf759cc79239f7b179b0ffacaa9a75d522b39400f611d25610696565b805190602001206040518060400160405280600181526020017f3100000000000000000000000000000000000000000000000000000000000000815250805190602001208430604051602001611d7f959493929190612b18565b60405160208183030381529060405280519060200120905080611da061195a565b600101600084815260200190815260200160002081905550809250505090565b828054611dcc90612472565b90600052602060002090601f016020900481019282611dee5760008555611e35565b82601f10611e0757805160ff1916838001178555611e35565b82800160010185558215611e35579182015b82811115611e34578251825591602001919060010190611e19565b5b509050611e429190611e46565b5090565b5b80821115611e5f576000816000905550600101611e47565b5090565b600080fd5b6000819050919050565b611e7b81611e68565b8114611e8657600080fd5b50565b600081359050611e9881611e72565b92915050565b60008060408385031215611eb557611eb4611e63565b5b6000611ec385828601611e89565b9250506020611ed485828601611e89565b9150509250929050565b611ee781611e68565b82525050565b6000602082019050611f026000830184611ede565b92915050565b600081519050919050565b600082825260208201905092915050565b60005b83811015611f42578082015181840152602081019050611f27565b83811115611f51576000848401525b50505050565b6000601f19601f8301169050919050565b6000611f7382611f08565b611f7d8185611f13565b9350611f8d818560208601611f24565b611f9681611f57565b840191505092915050565b60006020820190508181036000830152611fbb8184611f68565b905092915050565b600073ffffffffffffffffffffffffffffffffffffffff82169050919050565b6000611fee82611fc3565b9050919050565b611ffe81611fe3565b811461200957600080fd5b50565b60008135905061201b81611ff5565b92915050565b6000806040838503121561203857612037611e63565b5b60006120468582860161200c565b925050602061205785828601611e89565b9150509250929050565b60008115159050919050565b61207681612061565b82525050565b6000602082019050612091600083018461206d565b92915050565b6120a081611fe3565b82525050565b60006020820190506120bb6000830184612097565b92915050565b6000602082840312156120d7576120d6611e63565b5b60006120e584828501611e89565b91505092915050565b60008060006060848603121561210757612106611e63565b5b60006121158682870161200c565b93505060206121268682870161200c565b925050604061213786828701611e89565b9150509250925092565b600060ff82169050919050565b61215781612141565b82525050565b6000602082019050612172600083018461214e565b92915050565b60006020828403121561218e5761218d611e63565b5b600061219c8482850161200c565b91505092915050565b6121ae81612141565b81146121b957600080fd5b50565b6000813590506121cb816121a5565b92915050565b6000819050919050565b6121e4816121d1565b81146121ef57600080fd5b50565b600081359050612201816121db565b92915050565b600080600080600080600060e0888a03121561222657612225611e63565b5b60006122348a828b0161200c565b97505060206122458a828b0161200c565b96505060406122568a828b01611e89565b95505060606122678a828b01611e89565b94505060806122788a828b016121bc565b93505060a06122898a828b016121f2565b92505060c061229a8a828b016121f2565b91505092959891949750929550565b600080604083850312156122c0576122bf611e63565b5b60006122ce8582860161200c565b92505060206122df8582860161200c565b9150509250929050565b60006040820190506122fe6000830185611ede565b61230b6020830184611ede565b9392505050565b6000819050919050565b6000819050919050565b600061234161233c61233784612312565b61231c565b611e68565b9050919050565b61235181612326565b82525050565b600060408201905061236c6000830185612348565b6123796020830184611ede565b9392505050565b7f4e487b7100000000000000000000000000000000000000000000000000000000600052601260045260246000fd5b60006123ba82611e68565b91506123c583611e68565b9250826123d5576123d4612380565b5b828206905092915050565b7f4e487b7100000000000000000000000000000000000000000000000000000000600052601160045260246000fd5b600061241a82611e68565b915061242583611e68565b925082821015612438576124376123e0565b5b828203905092915050565b7f4e487b7100000000000000000000000000000000000000000000000000000000600052602260045260246000fd5b6000600282049050600182168061248a57607f821691505b6020821081141561249e5761249d612443565b5b50919050565b7f496e64657820616c726561647920736574000000000000000000000000000000600082015250565b60006124da601183611f13565b91506124e5826124a4565b602082019050919050565b60006020820190508181036000830152612509816124cd565b9050919050565b7f45524332305065726d69743a206578706972656420646561646c696e65000000600082015250565b6000612546601d83611f13565b915061255182612510565b602082019050919050565b6000602082019050818103600083015261257581612539565b9050919050565b7f45524332305065726d69743a20696e76616c6964207369676e61747572650000600082015250565b60006125b2601e83611f13565b91506125bd8261257c565b602082019050919050565b600060208201905081810360008301526125e1816125a5565b9050919050565b60006125f382611e68565b91507fffffffffffffffffffffffffffffffffffffffffffffffffffffffffffffffff821415612626576126256123e0565b5b600182019050919050565b7f4e444f4c3a206f6e6c79207374616b696e67436f6e7472616374000000000000600082015250565b6000612667601a83611f13565b915061267282612631565b602082019050919050565b600060208201905081810360008301526126968161265a565b9050919050565b60006126a882611e68565b91506126b383611e68565b9250817fffffffffffffffffffffffffffffffffffffffffffffffffffffffffffffffff04831182151516156126ec576126eb6123e0565b5b828202905092915050565b600061270282611e68565b915061270d83611e68565b92508261271d5761271c612380565b5b828204905092915050565b600061273382611e68565b915061273e83611e68565b9250827fffffffffffffffffffffffffffffffffffffffffffffffffffffffffffffffff03821115612773576127726123e0565b5b828201905092915050565b7f45524332303a20617070726f76652066726f6d20746865207a65726f2061646460008201527f7265737300000000000000000000000000000000000000000000000000000000602082015250565b60006127da602483611f13565b91506127e58261277e565b604082019050919050565b60006020820190508181036000830152612809816127cd565b9050919050565b7f45524332303a20617070726f766520746f20746865207a65726f20616464726560008201527f7373000000000000000000000000000000000000000000000000000000000000602082015250565b600061286c602283611f13565b915061287782612810565b604082019050919050565b6000602082019050818103600083015261289b8161285f565b9050919050565b7f45434453413a20696e76616c6964207369676e6174757265202773272076616c60008201527f7565000000000000000000000000000000000000000000000000000000000000602082015250565b60006128fe602283611f13565b9150612909826128a2565b604082019050919050565b6000602082019050818103600083015261292d816128f1565b9050919050565b7f45434453413a20696e76616c6964207369676e6174757265202776272076616c60008201527f7565000000000000000000000000000000000000000000000000000000000000602082015250565b6000612990602283611f13565b915061299b82612934565b604082019050919050565b600060208201905081810360008301526129bf81612983565b9050919050565b6129cf816121d1565b82525050565b60006080820190506129ea60008301876129c6565b6129f7602083018661214e565b612a0460408301856129c6565b612a1160608301846129c6565b95945050505050565b7f45434453413a20696e76616c6964207369676e61747572650000000000000000600082015250565b6000612a50601883611f13565b9150612a5b82612a1a565b602082019050919050565b60006020820190508181036000830152612a7f81612a43565b9050919050565b7f4c69624469616d6f6e643a20696e76616c696420636f6e7472616374206f776e60008201527f6572000000000000000000000000000000000000000000000000000000000000602082015250565b6000612ae2602283611f13565b9150612aed82612a86565b604082019050919050565b60006020820190508181036000830152612b1181612ad5565b9050919050565b600060a082019050612b2d60008301886129c6565b612b3a60208301876129c6565b612b4760408301866129c6565b612b546060830185611ede565b612b616080830184612097565b969550505050505056fea264697066735822122056939443d20147216ade25bc2c2b1af64e35c1039dc86637634d3a965cdc4eb064736f6c634300080a0033",
  "linkReferences": {},
  "deployedLinkReferences": {}
}