{
  "_format": "hh-sol-artifact-1",
  "contractName": "StakingFacet",
  "sourceName": "contracts/facets/Bond/StakingFacet.sol",
  "abi": [
    {
      "inputs": [
        {
          "internalType": "address",
          "name": "_recipient",
          "type": "address"
        }
      ],
      "name": "claim",
      "outputs": [],
      "stateMutability": "nonpayable",
      "type": "function"
    },
    {
      "inputs": [],
      "name": "contractBalance",
      "outputs": [
        {
          "internalType": "uint256",
          "name": "",
          "type": "uint256"
        }
      ],
      "stateMutability": "view",
      "type": "function"
    },
    {
      "inputs": [],
      "name": "epoch",
      "outputs": [
        {
          "components": [
            {
              "internalType": "uint256",
              "name": "number",
              "type": "uint256"
            },
            {
              "internalType": "uint256",
              "name": "distribute",
              "type": "uint256"
            },
            {
              "internalType": "uint256",
              "name": "length",
              "type": "uint256"
            },
            {
              "internalType": "uint256",
              "name": "endTime",
              "type": "uint256"
            }
          ],
          "internalType": "struct LibBondStorage.Epoch",
          "name": "",
          "type": "tuple"
        }
      ],
      "stateMutability": "view",
      "type": "function"
    },
    {
      "inputs": [],
      "name": "forfeit",
      "outputs": [],
      "stateMutability": "nonpayable",
      "type": "function"
    },
    {
      "inputs": [
        {
          "internalType": "uint256",
          "name": "_amount",
          "type": "uint256"
        }
      ],
      "name": "giveLockBonus",
      "outputs": [],
      "stateMutability": "nonpayable",
      "type": "function"
    },
    {
      "inputs": [],
      "name": "index",
      "outputs": [
        {
          "internalType": "uint256",
          "name": "",
          "type": "uint256"
        }
      ],
      "stateMutability": "view",
      "type": "function"
    },
    {
      "inputs": [
        {
          "internalType": "uint32",
          "name": "_epochLength",
          "type": "uint32"
        },
        {
          "internalType": "uint256",
          "name": "_firstEpochNumber",
          "type": "uint256"
        },
        {
          "internalType": "uint32",
          "name": "_firstEpochTime",
          "type": "uint32"
        }
      ],
      "name": "initializeStaking",
      "outputs": [],
      "stateMutability": "nonpayable",
      "type": "function"
    },
    {
      "inputs": [],
      "name": "rebase",
      "outputs": [],
      "stateMutability": "nonpayable",
      "type": "function"
    },
    {
      "inputs": [
        {
          "internalType": "uint256",
          "name": "_amount",
          "type": "uint256"
        }
      ],
      "name": "returnLockBonus",
      "outputs": [],
      "stateMutability": "nonpayable",
      "type": "function"
    },
    {
      "inputs": [
        {
          "internalType": "enum CONTRACTS",
          "name": "_contract",
          "type": "uint8"
        },
        {
          "internalType": "address",
          "name": "_address",
          "type": "address"
        }
      ],
      "name": "setContract",
      "outputs": [],
      "stateMutability": "nonpayable",
      "type": "function"
    },
    {
      "inputs": [
        {
          "internalType": "uint256",
          "name": "_warmupPeriod",
          "type": "uint256"
        }
      ],
      "name": "setWarmup",
      "outputs": [],
      "stateMutability": "nonpayable",
      "type": "function"
    },
    {
      "inputs": [
        {
          "internalType": "uint256",
          "name": "_amount",
          "type": "uint256"
        },
        {
          "internalType": "address",
          "name": "_recipient",
          "type": "address"
        }
      ],
      "name": "stake",
      "outputs": [
        {
          "internalType": "bool",
          "name": "",
          "type": "bool"
        }
      ],
      "stateMutability": "nonpayable",
      "type": "function"
    },
    {
      "inputs": [],
      "name": "toggleDepositLock",
      "outputs": [],
      "stateMutability": "nonpayable",
      "type": "function"
    },
    {
      "inputs": [
        {
          "internalType": "uint256",
          "name": "_amount",
          "type": "uint256"
        },
        {
          "internalType": "bool",
          "name": "_trigger",
          "type": "bool"
        }
      ],
      "name": "unstake",
      "outputs": [],
      "stateMutability": "nonpayable",
      "type": "function"
    },
    {
      "inputs": [
        {
          "internalType": "address",
          "name": "_recipient",
          "type": "address"
        }
      ],
      "name": "warmupInfo",
      "outputs": [
        {
          "components": [
            {
              "internalType": "uint256",
              "name": "deposit",
              "type": "uint256"
            },
            {
              "internalType": "uint256",
              "name": "gons",
              "type": "uint256"
            },
            {
              "internalType": "uint256",
              "name": "expiry",
              "type": "uint256"
            },
            {
              "internalType": "bool",
              "name": "lock",
              "type": "bool"
            }
          ],
          "internalType": "struct LibBondStorage.Claim",
          "name": "",
          "type": "tuple"
        }
      ],
      "stateMutability": "view",
      "type": "function"
    }
  ],
  "bytecode": "0x608060405234801561001057600080fd5b506121da806100206000396000f3fe608060405234801561001057600080fd5b50600436106100f55760003560e01c80638b7afe2e11610097578063af14052c11610066578063af14052c1461024a578063c9f464ff14610254578063f3d86e4a14610270578063f62ae76a1461027a576100f5565b80638b7afe2e146101e85780638f077b8314610206578063900cf0cf146102105780639ebea88c1461022e576100f5565b806344dab062116100d357806344dab062146101505780636746f4c21461016c5780637acb77571461019c578063865e6fd3146101cc576100f5565b806303c23670146100fa5780631e83409a146101165780632986c0e514610132575b600080fd5b610114600480360381019061010f9190611c2c565b610296565b005b610130600480360381019061012b9190611bc7565b61038b565b005b61013a6105d4565b604051610147919061203b565b60405180910390f35b61016a60048036038101906101659190611cf6565b61067d565b005b61018660048036038101906101819190611bc7565b6106e0565b6040516101939190612005565b60405180910390f35b6101b660048036038101906101b19190611c7e565b610775565b6040516101c39190611f8a565b60405180910390f35b6101e660048036038101906101e19190611bf0565b610a9e565b005b6101f0610ba1565b6040516101fd919061203b565b60405180910390f35b61020e610c6d565b005b610218610d1f565b6040516102259190612020565b60405180910390f35b61024860048036038101906102439190611cba565b610d64565b005b610252610e18565b005b61026e60048036038101906102699190611c2c565b6110a7565b005b6102786110bc565b005b610294600480360381019061028f9190611c2c565b611331565b005b600060160160009054906101000a900473ffffffffffffffffffffffffffffffffffffffff1673ffffffffffffffffffffffffffffffffffffffff163373ffffffffffffffffffffffffffffffffffffffff16146102f357600080fd5b61030b8160006017015461142890919063ffffffff16565b600060170181905550610388600060160160009054906101000a900473ffffffffffffffffffffffffffffffffffffffff16826000800160009054906101000a900473ffffffffffffffffffffffffffffffffffffffff1673ffffffffffffffffffffffffffffffffffffffff166114b09092919063ffffffff16565b50565b610393611af7565b600060190160008373ffffffffffffffffffffffffffffffffffffffff1673ffffffffffffffffffffffffffffffffffffffff1681526020019081526020016000206040518060800160405290816000820154815260200160018201548152602001600282015481526020016003820160009054906101000a900460ff161515151581525050905080604001516000601001600001541015801561043c57506000816040015114155b156105d057600060190160008373ffffffffffffffffffffffffffffffffffffffff1673ffffffffffffffffffffffffffffffffffffffff168152602001908152602001600020600080820160009055600182016000905560028201600090556003820160006101000a81549060ff021916905550503073ffffffffffffffffffffffffffffffffffffffff1663c3a2a665836000800160009054906101000a900473ffffffffffffffffffffffffffffffffffffffff1673ffffffffffffffffffffffffffffffffffffffff16637965d56d85602001516040518263ffffffff1660e01b8152600401610530919061203b565b60206040518083038186803b15801561054857600080fd5b505afa15801561055c573d6000803e3d6000fd5b505050506040513d601f19601f820116820180604052508101906105809190611c55565b6040518363ffffffff1660e01b815260040161059d929190611f61565b600060405180830381600087803b1580156105b757600080fd5b505af11580156105cb573d6000803e3d6000fd5b505050505b5050565b60008060000160009054906101000a900473ffffffffffffffffffffffffffffffffffffffff1673ffffffffffffffffffffffffffffffffffffffff16632986c0e56040518163ffffffff1660e01b815260040160206040518083038186803b15801561064057600080fd5b505afa158015610654573d6000803e3d6000fd5b505050506040513d601f19601f820116820180604052508101906106789190611c55565b905090565b6040518060800160405280838152602001600081526020018463ffffffff1681526020018263ffffffff16815250600060100160008201518160000155602082015181600101556040820151816002015560608201518160030155905050505050565b6106e8611af7565b600060190160008373ffffffffffffffffffffffffffffffffffffffff1673ffffffffffffffffffffffffffffffffffffffff1681526020019081526020016000206040518060800160405290816000820154815260200160018201548152602001600282015481526020016003820160009054906101000a900460ff1615151515815250509050919050565b600061077f610e18565b6107d1333085600060010160009054906101000a900473ffffffffffffffffffffffffffffffffffffffff1673ffffffffffffffffffffffffffffffffffffffff16611552909392919063ffffffff16565b6107d9611af7565b600060190160008473ffffffffffffffffffffffffffffffffffffffff1673ffffffffffffffffffffffffffffffffffffffff1681526020019081526020016000206040518060800160405290816000820154815260200160018201548152602001600282015481526020016003820160009054906101000a900460ff16151515158152505090508060600151156108a6576040517f08c379a000000000000000000000000000000000000000000000000000000000815260040161089d90611fa5565b60405180910390fd5b60405180608001604052806108c886846000015161142890919063ffffffff16565b81526020016109906000800160009054906101000a900473ffffffffffffffffffffffffffffffffffffffff1673ffffffffffffffffffffffffffffffffffffffff16631bd39674886040518263ffffffff1660e01b815260040161092d919061203b565b60206040518083038186803b15801561094557600080fd5b505afa158015610959573d6000803e3d6000fd5b505050506040513d601f19601f8201168201806040525081019061097d9190611c55565b846020015161142890919063ffffffff16565b81526020016109b560006018015460006010016000015461142890919063ffffffff16565b815260200160001515815250600060190160008573ffffffffffffffffffffffffffffffffffffffff1673ffffffffffffffffffffffffffffffffffffffff16815260200190815260200160002060008201518160000155602082015181600101556040820151816002015560608201518160030160006101000a81548160ff021916908315150217905550905050610a9330856000800160009054906101000a900473ffffffffffffffffffffffffffffffffffffffff1673ffffffffffffffffffffffffffffffffffffffff166114b09092919063ffffffff16565b600191505092915050565b610aa6611613565b600280811115610ab257fe5b826002811115610abe57fe5b1415610b9d57600073ffffffffffffffffffffffffffffffffffffffff16600060160160009054906101000a900473ffffffffffffffffffffffffffffffffffffffff1673ffffffffffffffffffffffffffffffffffffffff1614610b58576040517f08c379a0000000000000000000000000000000000000000000000000000000008152600401610b4f90611fc5565b60405180910390fd5b80600060160160006101000a81548173ffffffffffffffffffffffffffffffffffffffff021916908373ffffffffffffffffffffffffffffffffffffffff1602179055505b5050565b6000610c68600060170154600060010160009054906101000a900473ffffffffffffffffffffffffffffffffffffffff1673ffffffffffffffffffffffffffffffffffffffff166370a08231306040518263ffffffff1660e01b8152600401610c0a9190611f46565b60206040518083038186803b158015610c2257600080fd5b505afa158015610c36573d6000803e3d6000fd5b505050506040513d601f19601f82011682018060405250810190610c5a9190611c55565b61142890919063ffffffff16565b905090565b600060190160003373ffffffffffffffffffffffffffffffffffffffff1673ffffffffffffffffffffffffffffffffffffffff16815260200190815260200160002060030160009054906101000a900460ff1615600060190160003373ffffffffffffffffffffffffffffffffffffffff1673ffffffffffffffffffffffffffffffffffffffff16815260200190815260200160002060030160006101000a81548160ff021916908315150217905550565b610d27611b21565b6000601001604051806080016040529081600082015481526020016001820154815260200160028201548152602001600382015481525050905090565b8015610d7357610d72610e18565b5b610dc43330846000800160009054906101000a900473ffffffffffffffffffffffffffffffffffffffff1673ffffffffffffffffffffffffffffffffffffffff16611552909392919063ffffffff16565b610e143383600060010160009054906101000a900473ffffffffffffffffffffffffffffffffffffffff1673ffffffffffffffffffffffffffffffffffffffff166114b09092919063ffffffff16565b5050565b4263ffffffff16600060100160030154116110a5576000800160009054906101000a900473ffffffffffffffffffffffffffffffffffffffff1673ffffffffffffffffffffffffffffffffffffffff1663058ecdb46000601001600101546000601001600001546040518363ffffffff1660e01b8152600401610e9c929190612056565b602060405180830381600087803b158015610eb657600080fd5b505af1158015610eca573d6000803e3d6000fd5b505050506040513d601f19601f82011682018060405250810190610eee9190611c55565b50610f1260006010016002015460006010016003015461142890919063ffffffff16565b6000601001600301819055506000601001600001600081548092919060010191905055503073ffffffffffffffffffffffffffffffffffffffff1663e4fc6b6d6040518163ffffffff1660e01b8152600401602060405180830381600087803b158015610f7e57600080fd5b505af1158015610f92573d6000803e3d6000fd5b505050506040513d601f19601f82011682018060405250810190610fb69190611c55565b506000610fc1610ba1565b905060008060000160009054906101000a900473ffffffffffffffffffffffffffffffffffffffff1673ffffffffffffffffffffffffffffffffffffffff16639358928b6040518163ffffffff1660e01b815260040160206040518083038186803b15801561102f57600080fd5b505afa158015611043573d6000803e3d6000fd5b505050506040513d601f19601f820116820180604052508101906110679190611c55565b905080821161108257600080601001600101819055506110a2565b611095818361161d90919063ffffffff16565b6000601001600101819055505b50505b565b6110af611613565b8060006018018190555050565b6110c4611af7565b600060190160003373ffffffffffffffffffffffffffffffffffffffff1673ffffffffffffffffffffffffffffffffffffffff1681526020019081526020016000206040518060800160405290816000820154815260200160018201548152602001600282015481526020016003820160009054906101000a900460ff1615151515815250509050600060190160003373ffffffffffffffffffffffffffffffffffffffff1673ffffffffffffffffffffffffffffffffffffffff168152602001908152602001600020600080820160009055600182016000905560028201600090556003820160006101000a81549060ff021916905550503073ffffffffffffffffffffffffffffffffffffffff1663c3a2a665306000800160009054906101000a900473ffffffffffffffffffffffffffffffffffffffff1673ffffffffffffffffffffffffffffffffffffffff16637965d56d85602001516040518263ffffffff1660e01b815260040161123b919061203b565b60206040518083038186803b15801561125357600080fd5b505afa158015611267573d6000803e3d6000fd5b505050506040513d601f19601f8201168201806040525081019061128b9190611c55565b6040518363ffffffff1660e01b81526004016112a8929190611f61565b600060405180830381600087803b1580156112c257600080fd5b505af11580156112d6573d6000803e3d6000fd5b5050505061132e338260000151600060010160009054906101000a900473ffffffffffffffffffffffffffffffffffffffff1673ffffffffffffffffffffffffffffffffffffffff166114b09092919063ffffffff16565b50565b600060160160009054906101000a900473ffffffffffffffffffffffffffffffffffffffff1673ffffffffffffffffffffffffffffffffffffffff163373ffffffffffffffffffffffffffffffffffffffff161461138e57600080fd5b6113a68160006017015461161d90919063ffffffff16565b600060170181905550611425600060160160009054906101000a900473ffffffffffffffffffffffffffffffffffffffff1630836000800160009054906101000a900473ffffffffffffffffffffffffffffffffffffffff1673ffffffffffffffffffffffffffffffffffffffff16611552909392919063ffffffff16565b50565b6000808284019050838110156114a6576040517f08c379a000000000000000000000000000000000000000000000000000000000815260040180806020018281038252601b8152602001807f536166654d6174683a206164646974696f6e206f766572666c6f77000000000081525060200191505060405180910390fd5b8091505092915050565b61154d8363a9059cbb60e01b8484604051602401808373ffffffffffffffffffffffffffffffffffffffff16815260200182815260200192505050604051602081830303815290604052907bffffffffffffffffffffffffffffffffffffffffffffffffffffffff19166020820180517bffffffffffffffffffffffffffffffffffffffffffffffffffffffff83818316178352505050506116a0565b505050565b61160d846323b872dd60e01b858585604051602401808473ffffffffffffffffffffffffffffffffffffffff1681526020018373ffffffffffffffffffffffffffffffffffffffff1681526020018281526020019350505050604051602081830303815290604052907bffffffffffffffffffffffffffffffffffffffffffffffffffffffff19166020820180517bffffffffffffffffffffffffffffffffffffffffffffffffffffffff83818316178352505050506116a0565b50505050565b61161b61178f565b565b600082821115611695576040517f08c379a000000000000000000000000000000000000000000000000000000000815260040180806020018281038252601e8152602001807f536166654d6174683a207375627472616374696f6e206f766572666c6f77000081525060200191505060405180910390fd5b818303905092915050565b6060611702826040518060400160405280602081526020017f5361666545524332303a206c6f772d6c6576656c2063616c6c206661696c65648152508573ffffffffffffffffffffffffffffffffffffffff1661182a9092919063ffffffff16565b905060008151111561178a5780806020019051602081101561172357600080fd5b8101908080519060200190929190505050611789576040517f08c379a000000000000000000000000000000000000000000000000000000000815260040180806020018281038252602a81526020018061217b602a913960400191505060405180910390fd5b5b505050565b611797611842565b60040160009054906101000a900473ffffffffffffffffffffffffffffffffffffffff1673ffffffffffffffffffffffffffffffffffffffff163373ffffffffffffffffffffffffffffffffffffffff1614611828576040517f08c379a000000000000000000000000000000000000000000000000000000000815260040161181f90611fe5565b60405180910390fd5b565b6060611839848460008561186f565b90509392505050565b6000807fc8fcad8db84d3cc18b4c41d551ea0ee66dd599cde068d998e57d5e09332c131c90508091505090565b6060824710156118ca576040517f08c379a00000000000000000000000000000000000000000000000000000000081526004018080602001828103825260268152602001806121556026913960400191505060405180910390fd5b6118d385611a18565b611945576040517f08c379a000000000000000000000000000000000000000000000000000000000815260040180806020018281038252601d8152602001807f416464726573733a2063616c6c20746f206e6f6e2d636f6e747261637400000081525060200191505060405180910390fd5b600060608673ffffffffffffffffffffffffffffffffffffffff1685876040518082805190602001908083835b602083106119955780518252602082019150602081019050602083039250611972565b6001836020036101000a03801982511681845116808217855250505050505090500191505060006040518083038185875af1925050503d80600081146119f7576040519150601f19603f3d011682016040523d82523d6000602084013e6119fc565b606091505b5091509150611a0c828286611a2b565b92505050949350505050565b600080823b905060008111915050919050565b60608315611a3b57829050611af0565b600083511115611a4e5782518084602001fd5b816040517f08c379a00000000000000000000000000000000000000000000000000000000081526004018080602001828103825283818151815260200191508051906020019080838360005b83811015611ab5578082015181840152602081019050611a9a565b50505050905090810190601f168015611ae25780820380516001836020036101000a031916815260200191505b509250505060405180910390fd5b9392505050565b60405180608001604052806000815260200160008152602001600081526020016000151581525090565b6040518060800160405280600081526020016000815260200160008152602001600081525090565b600081359050611b58816120e8565b92915050565b600081359050611b6d816120ff565b92915050565b600081359050611b8281612116565b92915050565b600081359050611b9781612126565b92915050565b600081519050611bac81612126565b92915050565b600081359050611bc18161213d565b92915050565b600060208284031215611bd957600080fd5b6000611be784828501611b49565b91505092915050565b60008060408385031215611c0357600080fd5b6000611c1185828601611b73565b9250506020611c2285828601611b49565b9150509250929050565b600060208284031215611c3e57600080fd5b6000611c4c84828501611b88565b91505092915050565b600060208284031215611c6757600080fd5b6000611c7584828501611b9d565b91505092915050565b60008060408385031215611c9157600080fd5b6000611c9f85828601611b88565b9250506020611cb085828601611b49565b9150509250929050565b60008060408385031215611ccd57600080fd5b6000611cdb85828601611b88565b9250506020611cec85828601611b5e565b9150509250929050565b600080600060608486031215611d0b57600080fd5b6000611d1986828701611bb2565b9350506020611d2a86828701611b88565b9250506040611d3b86828701611bb2565b9150509250925092565b611d4e81612090565b82525050565b611d5d816120a2565b82525050565b611d6c816120a2565b82525050565b6000611d7f601f8361207f565b91507f4465706f7369747320666f72206163636f756e7420617265206c6f636b6564006000830152602082019050919050565b6000611dbf60238361207f565b91507f4c6f636b65722063616e6e6f7420626520736574206d6f7265207468616e206f60008301527f6e636500000000000000000000000000000000000000000000000000000000006020830152604082019050919050565b6000611e2560228361207f565b91507f4c69624469616d6f6e643a20696e76616c696420636f6e7472616374206f776e60008301527f65720000000000000000000000000000000000000000000000000000000000006020830152604082019050919050565b608082016000820151611e946000850182611f28565b506020820151611ea76020850182611f28565b506040820151611eba6040850182611f28565b506060820151611ecd6060850182611d54565b50505050565b608082016000820151611ee96000850182611f28565b506020820151611efc6020850182611f28565b506040820151611f0f6040850182611f28565b506060820151611f226060850182611f28565b50505050565b611f31816120ce565b82525050565b611f40816120ce565b82525050565b6000602082019050611f5b6000830184611d45565b92915050565b6000604082019050611f766000830185611d45565b611f836020830184611f37565b9392505050565b6000602082019050611f9f6000830184611d63565b92915050565b60006020820190508181036000830152611fbe81611d72565b9050919050565b60006020820190508181036000830152611fde81611db2565b9050919050565b60006020820190508181036000830152611ffe81611e18565b9050919050565b600060808201905061201a6000830184611e7e565b92915050565b60006080820190506120356000830184611ed3565b92915050565b60006020820190506120506000830184611f37565b92915050565b600060408201905061206b6000830185611f37565b6120786020830184611f37565b9392505050565b600082825260208201905092915050565b600061209b826120ae565b9050919050565b60008115159050919050565b600073ffffffffffffffffffffffffffffffffffffffff82169050919050565b6000819050919050565b600063ffffffff82169050919050565b6120f181612090565b81146120fc57600080fd5b50565b612108816120a2565b811461211357600080fd5b50565b6003811061212357600080fd5b50565b61212f816120ce565b811461213a57600080fd5b50565b612146816120d8565b811461215157600080fd5b5056fe416464726573733a20696e73756666696369656e742062616c616e636520666f722063616c6c5361666545524332303a204552433230206f7065726174696f6e20646964206e6f742073756363656564a26469706673582212203fd06505639e3c8f5811b3bd9f24e928aebf890b5f9dd162ea9fc767a57410e064736f6c63430007050033",
  "linkReferences": {},
  "deployedLinkReferences": {}
}