{
  "_format": "hh-sol-artifact-1",
  "contractName": "TimeDistributor",
  "sourceName": "contracts/tokens/TimeDistributor.sol",
  "abi": [
    {
      "inputs": [
        {
          "internalType": "address",
          "name": "_rewardToken",
          "type": "address"
        }
      ],
      "stateMutability": "nonpayable",
      "type": "constructor"
    },
    {
      "anonymous": false,
      "inputs": [
        {
          "indexed": false,
          "internalType": "address",
          "name": "collateralToken",
          "type": "address"
        },
        {
          "indexed": false,
          "internalType": "uint256",
          "name": "amount",
          "type": "uint256"
        }
      ],
      "name": "Distribute",
      "type": "event"
    },
    {
      "anonymous": false,
      "inputs": [
        {
          "indexed": false,
          "internalType": "address[]",
          "name": "collateralToken",
          "type": "address[]"
        },
        {
          "indexed": false,
          "internalType": "uint256[]",
          "name": "amount",
          "type": "uint256[]"
        }
      ],
      "name": "DistributionChange",
      "type": "event"
    },
    {
      "anonymous": false,
      "inputs": [
        {
          "indexed": false,
          "internalType": "address",
          "name": "admin",
          "type": "address"
        },
        {
          "indexed": false,
          "internalType": "uint256",
          "name": "amount",
          "type": "uint256"
        }
      ],
      "name": "EmergencyWithdraw",
      "type": "event"
    },
    {
      "anonymous": false,
      "inputs": [
        {
          "indexed": false,
          "internalType": "address",
          "name": "collateralToken",
          "type": "address"
        },
        {
          "indexed": false,
          "internalType": "uint256",
          "name": "amount",
          "type": "uint256"
        }
      ],
      "name": "TokensPerIntervalPerCollateralChange",
      "type": "event"
    },
    {
      "inputs": [],
      "name": "DISTRIBUTION_INTERVAL",
      "outputs": [
        {
          "internalType": "uint256",
          "name": "",
          "type": "uint256"
        }
      ],
      "stateMutability": "view",
      "type": "function"
    },
    {
      "inputs": [],
      "name": "admin",
      "outputs": [
        {
          "internalType": "address",
          "name": "",
          "type": "address"
        }
      ],
      "stateMutability": "view",
      "type": "function"
    },
    {
      "inputs": [
        {
          "internalType": "uint256",
          "name": "",
          "type": "uint256"
        }
      ],
      "name": "collaterals",
      "outputs": [
        {
          "internalType": "address",
          "name": "",
          "type": "address"
        }
      ],
      "stateMutability": "view",
      "type": "function"
    },
    {
      "inputs": [
        {
          "internalType": "address",
          "name": "_collateralToken",
          "type": "address"
        }
      ],
      "name": "distribute",
      "outputs": [
        {
          "internalType": "uint256",
          "name": "",
          "type": "uint256"
        }
      ],
      "stateMutability": "nonpayable",
      "type": "function"
    },
    {
      "inputs": [
        {
          "internalType": "uint256",
          "name": "_amount",
          "type": "uint256"
        }
      ],
      "name": "emergencyWithdraw",
      "outputs": [],
      "stateMutability": "nonpayable",
      "type": "function"
    },
    {
      "inputs": [],
      "name": "getCollaterals",
      "outputs": [
        {
          "internalType": "address[]",
          "name": "",
          "type": "address[]"
        }
      ],
      "stateMutability": "view",
      "type": "function"
    },
    {
      "inputs": [
        {
          "internalType": "address",
          "name": "_collateralToken",
          "type": "address"
        }
      ],
      "name": "getDistributionAmount",
      "outputs": [
        {
          "internalType": "uint256",
          "name": "",
          "type": "uint256"
        }
      ],
      "stateMutability": "view",
      "type": "function"
    },
    {
      "inputs": [],
      "name": "getIntervals",
      "outputs": [
        {
          "internalType": "uint256",
          "name": "",
          "type": "uint256"
        }
      ],
      "stateMutability": "view",
      "type": "function"
    },
    {
      "inputs": [],
      "name": "getLastDistributionTime",
      "outputs": [
        {
          "internalType": "uint256",
          "name": "",
          "type": "uint256"
        }
      ],
      "stateMutability": "view",
      "type": "function"
    },
    {
      "inputs": [],
      "name": "getRewardToken",
      "outputs": [
        {
          "internalType": "address",
          "name": "",
          "type": "address"
        }
      ],
      "stateMutability": "view",
      "type": "function"
    },
    {
      "inputs": [
        {
          "internalType": "address",
          "name": "_collateralToken",
          "type": "address"
        }
      ],
      "name": "getTokensPerIntervalPerCollateral",
      "outputs": [
        {
          "internalType": "uint256",
          "name": "",
          "type": "uint256"
        }
      ],
      "stateMutability": "view",
      "type": "function"
    },
    {
      "inputs": [],
      "name": "gov",
      "outputs": [
        {
          "internalType": "address",
          "name": "",
          "type": "address"
        }
      ],
      "stateMutability": "view",
      "type": "function"
    },
    {
      "inputs": [],
      "name": "lastDistributionTime",
      "outputs": [
        {
          "internalType": "uint256",
          "name": "",
          "type": "uint256"
        }
      ],
      "stateMutability": "view",
      "type": "function"
    },
    {
      "inputs": [],
      "name": "receiver",
      "outputs": [
        {
          "internalType": "address",
          "name": "",
          "type": "address"
        }
      ],
      "stateMutability": "view",
      "type": "function"
    },
    {
      "inputs": [],
      "name": "rewardToken",
      "outputs": [
        {
          "internalType": "address",
          "name": "",
          "type": "address"
        }
      ],
      "stateMutability": "view",
      "type": "function"
    },
    {
      "inputs": [
        {
          "internalType": "address[]",
          "name": "_collaterals",
          "type": "address[]"
        },
        {
          "internalType": "uint256[]",
          "name": "_amountPerCollateral",
          "type": "uint256[]"
        }
      ],
      "name": "setDistribution",
      "outputs": [],
      "stateMutability": "nonpayable",
      "type": "function"
    },
    {
      "inputs": [
        {
          "internalType": "address",
          "name": "_gov",
          "type": "address"
        }
      ],
      "name": "setGov",
      "outputs": [],
      "stateMutability": "nonpayable",
      "type": "function"
    },
    {
      "inputs": [
        {
          "internalType": "address",
          "name": "_receiver",
          "type": "address"
        }
      ],
      "name": "setReceiver",
      "outputs": [],
      "stateMutability": "nonpayable",
      "type": "function"
    },
    {
      "inputs": [
        {
          "internalType": "address",
          "name": "_collateralToken",
          "type": "address"
        },
        {
          "internalType": "uint256",
          "name": "_amount",
          "type": "uint256"
        }
      ],
      "name": "setTokensPerIntervalPerCollateral",
      "outputs": [],
      "stateMutability": "nonpayable",
      "type": "function"
    },
    {
      "inputs": [
        {
          "internalType": "address",
          "name": "",
          "type": "address"
        }
      ],
      "name": "tokensPerIntervalPerCollateral",
      "outputs": [
        {
          "internalType": "uint256",
          "name": "",
          "type": "uint256"
        }
      ],
      "stateMutability": "view",
      "type": "function"
    },
    {
      "inputs": [],
      "name": "updateLastDistributionTime",
      "outputs": [],
      "stateMutability": "nonpayable",
      "type": "function"
    }
  ],
  "bytecode": "0x608060405234801561001057600080fd5b506040516110ad3803806110ad83398101604081905261002f9161006f565b60018054336001600160a01b03199182168117909255600280548216909217909155600380549091166001600160a01b039290921691909117905561009d565b600060208284031215610080578081fd5b81516001600160a01b0381168114610096578182fd5b9392505050565b611001806100ac6000396000f3fe608060405234801561001057600080fd5b50600436106101075760003560e01c806308b26b751461010c57806312d43a511461012857806324c1173b1461014857806331de466e1461015b5780633ae6d6eb1461017b57806348ca730c14610185578063492bd276146101985780634ae76632146101a05780634dc3a390146101b35780635312ea8e146101bb57806363453ae1146101ce57806369940d79146101e1578063718da7ee146101f257806375b173501461020557806378b926361461020e578063b7fba9f614610223578063cb338ff514610236578063cfad57a21461025f578063f7260d3e14610272578063f7c618c114610285578063f851a44014610298575b600080fd5b610115610e1081565b6040519081526020015b60405180910390f35b60015461013b906001600160a01b031681565b60405161011f9190610db6565b61013b610156366004610d6a565b6102ab565b610115610169366004610c9f565b60066020526000908152604090205481565b6101836102d5565b005b610183610193366004610cb9565b610312565b61011561034a565b6101836101ae366004610ce2565b610376565b600454610115565b6101836101c9366004610d6a565b610465565b6101156101dc366004610c9f565b6104f6565b6003546001600160a01b031661013b565b610183610200366004610c9f565b61064a565b61011560045481565b610216610696565b60405161011f9190610e60565b610115610231366004610c9f565b6106f8565b610115610244366004610c9f565b6001600160a01b031660009081526006602052604090205490565b61018361026d366004610c9f565b6107cf565b60005461013b906001600160a01b031681565b60035461013b906001600160a01b031681565b60025461013b906001600160a01b031681565b600581815481106102bb57600080fd5b6000918252602090912001546001600160a01b0316905081565b6002546001600160a01b031633146103085760405162461bcd60e51b81526004016102ff90610ee0565b60405180910390fd5b61031061081b565b565b6002546001600160a01b0316331461033c5760405162461bcd60e51b81526004016102ff90610ee0565b6103468282610836565b5050565b6000806103626004544261097190919063ffffffff16565b905061037081610e1061097d565b91505090565b6001546001600160a01b031633146103a05760405162461bcd60e51b81526004016102ff90610ee0565b60005b838110156104215761040f8585838181106103ce57634e487b7160e01b600052603260045260246000fd5b90506020020160208101906103e39190610c9f565b84848481811061040357634e487b7160e01b600052603260045260246000fd5b90506020020135610836565b8061041981610f9a565b9150506103a3565b507fa921ea378063e32bca364b9e61c46b5d41bbe7a4adbfb42e100adbb14c4ef0aa848484846040516104579493929190610de3565b60405180910390a150505050565b6002546001600160a01b0316331461048f5760405162461bcd60e51b81526004016102ff90610ee0565b6002546003546104ac916001600160a01b03918216911683610989565b6002546040517f5fafa99d0643513820be26656b45130b01e1c03062e1266bf36f88cbd3bd9695916104eb916001600160a01b03909116908490610dca565b60405180910390a150565b6003546000906001600160a01b03166105515760405162461bcd60e51b815260206004820181905260248201527f54696d654469737472696275746f723a206e6f2072657761726420746f6b656e60448201526064016102ff565b600061055b61034a565b90508061056b5750600092915050565b6000610576846106f8565b905061058061081b565b8061058f575060009392505050565b6000546003546105ac916001600160a01b03918216911683610989565b600354604051632b99ba0560e21b8152600481018390526001600160a01b039091169063ae66e81490602401600060405180830381600087803b1580156105f257600080fd5b505af1158015610606573d6000803e3d6000fd5b505050507fc1d32ad5cca423e7dda2123dbf8c482f8e77d00b631c06e903a47f2cec1334df848260405161063b929190610dca565b60405180910390a19392505050565b6002546001600160a01b031633146106745760405162461bcd60e51b81526004016102ff90610ee0565b600080546001600160a01b0319166001600160a01b0392909216919091179055565b606060058054806020026020016040519081016040528092919081815260200182805480156106ee57602002820191906000526020600020905b81546001600160a01b031681526001909101906020018083116106d0575b5050505050905090565b6001600160a01b0381166000908152600660205260408120548061071f5750600092915050565b600061073361072c61034a565b83906109e4565b6003546040516370a0823160e01b815291925082916001600160a01b03909116906370a0823190610768903090600401610db6565b60206040518083038186803b15801561078057600080fd5b505afa158015610794573d6000803e3d6000fd5b505050506040513d601f19601f820116820180604052508101906107b89190610d82565b10156107c8575060009392505050565b9392505050565b6001546001600160a01b031633146107f95760405162461bcd60e51b81526004016102ff90610ee0565b600180546001600160a01b0319166001600160a01b0392909216919091179055565b610831610e1061082b428261097d565b906109e4565b600455565b600454156108a857600061084861034a565b905080156108a65760405162461bcd60e51b815260206004820152602560248201527f54696d654469737472696275746f723a2070656e64696e6720646973747269626044820152643aba34b7b760d91b60648201526084016102ff565b505b6001600160a01b03821660009081526006602052604090205461091157600580546001810182556000919091527f036b6384b5eca791c62761152d0c79bb0604c104a5fb6f4eb0703f3154bb3db00180546001600160a01b0319166001600160a01b0384161790555b6001600160a01b038216600090815260066020526040902081905561093461081b565b7f64a9e030909fcc342fc6d1f7efa20975eadbb31a8a0208806ef336fda665af0b8282604051610965929190610dca565b60405180910390a15050565b60006107c88284610f53565b60006107c88284610f14565b6109df8363a9059cbb60e01b84846040516024016109a8929190610dca565b60408051601f198184030181529190526020810180516001600160e01b03166001600160e01b0319909316929092179091526109f0565b505050565b60006107c88284610f34565b6000610a45826040518060400160405280602081526020017f5361666545524332303a206c6f772d6c6576656c2063616c6c206661696c6564815250856001600160a01b0316610ac29092919063ffffffff16565b8051909150156109df5780806020019051810190610a639190610d4a565b6109df5760405162461bcd60e51b815260206004820152602a60248201527f5361666545524332303a204552433230206f7065726174696f6e20646964206e6044820152691bdd081cdd58d8d9595960b21b60648201526084016102ff565b6060610ad18484600085610ad9565b949350505050565b606082471015610b3a5760405162461bcd60e51b815260206004820152602660248201527f416464726573733a20696e73756666696369656e742062616c616e636520666f6044820152651c8818d85b1b60d21b60648201526084016102ff565b843b610b885760405162461bcd60e51b815260206004820152601d60248201527f416464726573733a2063616c6c20746f206e6f6e2d636f6e747261637400000060448201526064016102ff565b600080866001600160a01b03168587604051610ba49190610d9a565b60006040518083038185875af1925050503d8060008114610be1576040519150601f19603f3d011682016040523d82523d6000602084013e610be6565b606091505b5091509150610bf6828286610c01565b979650505050505050565b60608315610c105750816107c8565b825115610c205782518084602001fd5b8160405162461bcd60e51b81526004016102ff9190610ead565b80356001600160a01b0381168114610c5157600080fd5b919050565b60008083601f840112610c67578182fd5b5081356001600160401b03811115610c7d578182fd5b6020830191508360208260051b8501011115610c9857600080fd5b9250929050565b600060208284031215610cb0578081fd5b6107c882610c3a565b60008060408385031215610ccb578081fd5b610cd483610c3a565b946020939093013593505050565b60008060008060408587031215610cf7578182fd5b84356001600160401b0380821115610d0d578384fd5b610d1988838901610c56565b90965094506020870135915080821115610d31578384fd5b50610d3e87828801610c56565b95989497509550505050565b600060208284031215610d5b578081fd5b815180151581146107c8578182fd5b600060208284031215610d7b578081fd5b5035919050565b600060208284031215610d93578081fd5b5051919050565b60008251610dac818460208701610f6a565b9190910192915050565b6001600160a01b0391909116815260200190565b6001600160a01b03929092168252602082015260400190565b6040808252810184905260008560608301825b87811015610e24576001600160a01b03610e0f84610c3a565b16825260209283019290910190600101610df6565b5083810360208501528481526001600160fb1b03851115610e43578283fd5b8460051b9150818660208301370160200190815295945050505050565b6020808252825182820181905260009190848201906040850190845b81811015610ea15783516001600160a01b031683529284019291840191600101610e7c565b50909695505050505050565b6020815260008251806020840152610ecc816040850160208701610f6a565b601f01601f19169190910160400192915050565b6020808252601a90820152792a34b6b2a234b9ba3934b13aba37b91d103337b93134b23232b760311b604082015260600190565b600082610f2f57634e487b7160e01b81526012600452602481fd5b500490565b6000816000190483118215151615610f4e57610f4e610fb5565b500290565b600082821015610f6557610f65610fb5565b500390565b60005b83811015610f85578181015183820152602001610f6d565b83811115610f94576000848401525b50505050565b6000600019821415610fae57610fae610fb5565b5060010190565b634e487b7160e01b600052601160045260246000fdfea26469706673582212203f490b56dec0e88744cc49afe71d9f184703bd963af34a11b826c8c8961bcc5964736f6c63430008040033",
  "linkReferences": {},
  "deployedLinkReferences": {}
}