{
  "_format": "hh-sol-artifact-1",
  "contractName": "VaultFacet",
  "sourceName": "contracts/facets/Vault/VaultFacet.sol",
  "abi": [
    {
      "anonymous": false,
      "inputs": [
        {
          "indexed": false,
          "internalType": "bytes32",
          "name": "key",
          "type": "bytes32"
        },
        {
          "indexed": false,
          "internalType": "uint256",
          "name": "size",
          "type": "uint256"
        },
        {
          "indexed": false,
          "internalType": "uint256",
          "name": "collateral",
          "type": "uint256"
        },
        {
          "indexed": false,
          "internalType": "uint256",
          "name": "averagePrice",
          "type": "uint256"
        },
        {
          "indexed": false,
          "internalType": "uint256",
          "name": "entryFundingRate",
          "type": "uint256"
        },
        {
          "indexed": false,
          "internalType": "uint256",
          "name": "reserveAmount",
          "type": "uint256"
        },
        {
          "indexed": false,
          "internalType": "int256",
          "name": "realisedPnl",
          "type": "int256"
        }
      ],
      "name": "ClosePosition",
      "type": "event"
    },
    {
      "anonymous": false,
      "inputs": [
        {
          "indexed": false,
          "internalType": "bytes32",
          "name": "key",
          "type": "bytes32"
        },
        {
          "indexed": false,
          "internalType": "address",
          "name": "account",
          "type": "address"
        },
        {
          "indexed": false,
          "internalType": "address",
          "name": "collateralToken",
          "type": "address"
        },
        {
          "indexed": false,
          "internalType": "address",
          "name": "indexToken",
          "type": "address"
        },
        {
          "indexed": false,
          "internalType": "uint256",
          "name": "collateralDelta",
          "type": "uint256"
        },
        {
          "indexed": false,
          "internalType": "uint256",
          "name": "sizeDelta",
          "type": "uint256"
        },
        {
          "indexed": false,
          "internalType": "bool",
          "name": "isLong",
          "type": "bool"
        },
        {
          "indexed": false,
          "internalType": "uint256",
          "name": "price",
          "type": "uint256"
        },
        {
          "indexed": false,
          "internalType": "uint256",
          "name": "fee",
          "type": "uint256"
        }
      ],
      "name": "DecreasePosition",
      "type": "event"
    },
    {
      "anonymous": false,
      "inputs": [
        {
          "indexed": false,
          "internalType": "bytes32",
          "name": "key",
          "type": "bytes32"
        },
        {
          "indexed": false,
          "internalType": "address",
          "name": "account",
          "type": "address"
        },
        {
          "indexed": false,
          "internalType": "address",
          "name": "collateralToken",
          "type": "address"
        },
        {
          "indexed": false,
          "internalType": "address",
          "name": "indexToken",
          "type": "address"
        },
        {
          "indexed": false,
          "internalType": "uint256",
          "name": "collateralDelta",
          "type": "uint256"
        },
        {
          "indexed": false,
          "internalType": "uint256",
          "name": "sizeDelta",
          "type": "uint256"
        },
        {
          "indexed": false,
          "internalType": "bool",
          "name": "isLong",
          "type": "bool"
        },
        {
          "indexed": false,
          "internalType": "uint256",
          "name": "price",
          "type": "uint256"
        },
        {
          "indexed": false,
          "internalType": "uint256",
          "name": "fee",
          "type": "uint256"
        }
      ],
      "name": "IncreasePosition",
      "type": "event"
    },
    {
      "anonymous": false,
      "inputs": [
        {
          "indexed": false,
          "internalType": "bytes32",
          "name": "key",
          "type": "bytes32"
        },
        {
          "indexed": false,
          "internalType": "address",
          "name": "account",
          "type": "address"
        },
        {
          "indexed": false,
          "internalType": "address",
          "name": "collateralToken",
          "type": "address"
        },
        {
          "indexed": false,
          "internalType": "address",
          "name": "indexToken",
          "type": "address"
        },
        {
          "indexed": false,
          "internalType": "bool",
          "name": "isLong",
          "type": "bool"
        },
        {
          "indexed": false,
          "internalType": "uint256",
          "name": "size",
          "type": "uint256"
        },
        {
          "indexed": false,
          "internalType": "uint256",
          "name": "collateral",
          "type": "uint256"
        },
        {
          "indexed": false,
          "internalType": "uint256",
          "name": "reserveAmount",
          "type": "uint256"
        },
        {
          "indexed": false,
          "internalType": "int256",
          "name": "realisedPnl",
          "type": "int256"
        },
        {
          "indexed": false,
          "internalType": "uint256",
          "name": "markPrice",
          "type": "uint256"
        }
      ],
      "name": "LiquidatePosition",
      "type": "event"
    },
    {
      "anonymous": false,
      "inputs": [
        {
          "indexed": false,
          "internalType": "bytes32",
          "name": "key",
          "type": "bytes32"
        },
        {
          "indexed": false,
          "internalType": "uint256",
          "name": "size",
          "type": "uint256"
        },
        {
          "indexed": false,
          "internalType": "uint256",
          "name": "collateral",
          "type": "uint256"
        },
        {
          "indexed": false,
          "internalType": "uint256",
          "name": "averagePrice",
          "type": "uint256"
        },
        {
          "indexed": false,
          "internalType": "uint256",
          "name": "entryFundingRate",
          "type": "uint256"
        },
        {
          "indexed": false,
          "internalType": "uint256",
          "name": "reserveAmount",
          "type": "uint256"
        },
        {
          "indexed": false,
          "internalType": "int256",
          "name": "realisedPnl",
          "type": "int256"
        }
      ],
      "name": "UpdatePosition",
      "type": "event"
    },
    {
      "inputs": [
        {
          "internalType": "address",
          "name": "_account",
          "type": "address"
        },
        {
          "internalType": "address",
          "name": "_collateralToken",
          "type": "address"
        },
        {
          "internalType": "address",
          "name": "_indexToken",
          "type": "address"
        },
        {
          "internalType": "uint256",
          "name": "_collateralDelta",
          "type": "uint256"
        },
        {
          "internalType": "uint256",
          "name": "_sizeDelta",
          "type": "uint256"
        },
        {
          "internalType": "bool",
          "name": "_isLong",
          "type": "bool"
        },
        {
          "internalType": "address",
          "name": "_receiver",
          "type": "address"
        }
      ],
      "name": "decreasePosition",
      "outputs": [
        {
          "internalType": "uint256",
          "name": "",
          "type": "uint256"
        }
      ],
      "stateMutability": "nonpayable",
      "type": "function"
    },
    {
      "inputs": [
        {
          "internalType": "address",
          "name": "_token",
          "type": "address"
        }
      ],
      "name": "feeReserves",
      "outputs": [
        {
          "internalType": "uint256",
          "name": "",
          "type": "uint256"
        }
      ],
      "stateMutability": "view",
      "type": "function"
    },
    {
      "inputs": [
        {
          "internalType": "address",
          "name": "_indexToken",
          "type": "address"
        },
        {
          "internalType": "uint256",
          "name": "_size",
          "type": "uint256"
        },
        {
          "internalType": "uint256",
          "name": "_averagePrice",
          "type": "uint256"
        },
        {
          "internalType": "bool",
          "name": "_isLong",
          "type": "bool"
        },
        {
          "internalType": "uint256",
          "name": "_lastIncreasedTime",
          "type": "uint256"
        }
      ],
      "name": "getDelta",
      "outputs": [
        {
          "internalType": "bool",
          "name": "",
          "type": "bool"
        },
        {
          "internalType": "uint256",
          "name": "",
          "type": "uint256"
        }
      ],
      "stateMutability": "view",
      "type": "function"
    },
    {
      "inputs": [
        {
          "internalType": "address",
          "name": "_token",
          "type": "address"
        },
        {
          "internalType": "uint256",
          "name": "_size",
          "type": "uint256"
        },
        {
          "internalType": "uint256",
          "name": "_entryFundingRate",
          "type": "uint256"
        }
      ],
      "name": "getFundingFee",
      "outputs": [
        {
          "internalType": "uint256",
          "name": "",
          "type": "uint256"
        }
      ],
      "stateMutability": "view",
      "type": "function"
    },
    {
      "inputs": [
        {
          "internalType": "address",
          "name": "_indexToken",
          "type": "address"
        },
        {
          "internalType": "uint256",
          "name": "_size",
          "type": "uint256"
        },
        {
          "internalType": "uint256",
          "name": "_averagePrice",
          "type": "uint256"
        },
        {
          "internalType": "bool",
          "name": "_isLong",
          "type": "bool"
        },
        {
          "internalType": "uint256",
          "name": "_nextPrice",
          "type": "uint256"
        },
        {
          "internalType": "uint256",
          "name": "_sizeDelta",
          "type": "uint256"
        },
        {
          "internalType": "uint256",
          "name": "_lastIncreasedTime",
          "type": "uint256"
        }
      ],
      "name": "getNextAveragePrice",
      "outputs": [
        {
          "internalType": "uint256",
          "name": "",
          "type": "uint256"
        }
      ],
      "stateMutability": "view",
      "type": "function"
    },
    {
      "inputs": [
        {
          "internalType": "address",
          "name": "_token",
          "type": "address"
        }
      ],
      "name": "getNextFundingRate",
      "outputs": [
        {
          "internalType": "uint256",
          "name": "",
          "type": "uint256"
        }
      ],
      "stateMutability": "view",
      "type": "function"
    },
    {
      "inputs": [
        {
          "internalType": "address",
          "name": "_account",
          "type": "address"
        },
        {
          "internalType": "address",
          "name": "_collateralToken",
          "type": "address"
        },
        {
          "internalType": "address",
          "name": "_indexToken",
          "type": "address"
        },
        {
          "internalType": "bool",
          "name": "_isLong",
          "type": "bool"
        }
      ],
      "name": "getPosition",
      "outputs": [
        {
          "internalType": "uint256",
          "name": "",
          "type": "uint256"
        },
        {
          "internalType": "uint256",
          "name": "",
          "type": "uint256"
        },
        {
          "internalType": "uint256",
          "name": "",
          "type": "uint256"
        },
        {
          "internalType": "uint256",
          "name": "",
          "type": "uint256"
        },
        {
          "internalType": "uint256",
          "name": "",
          "type": "uint256"
        },
        {
          "internalType": "uint256",
          "name": "",
          "type": "uint256"
        },
        {
          "internalType": "bool",
          "name": "",
          "type": "bool"
        },
        {
          "internalType": "uint256",
          "name": "",
          "type": "uint256"
        }
      ],
      "stateMutability": "view",
      "type": "function"
    },
    {
      "inputs": [
        {
          "internalType": "address",
          "name": "_account",
          "type": "address"
        },
        {
          "internalType": "address",
          "name": "_collateralToken",
          "type": "address"
        },
        {
          "internalType": "address",
          "name": "_indexToken",
          "type": "address"
        },
        {
          "internalType": "bool",
          "name": "_isLong",
          "type": "bool"
        }
      ],
      "name": "getPositionDelta",
      "outputs": [
        {
          "internalType": "bool",
          "name": "",
          "type": "bool"
        },
        {
          "internalType": "uint256",
          "name": "",
          "type": "uint256"
        }
      ],
      "stateMutability": "view",
      "type": "function"
    },
    {
      "inputs": [
        {
          "internalType": "uint256",
          "name": "_sizeDelta",
          "type": "uint256"
        }
      ],
      "name": "getPositionFee",
      "outputs": [
        {
          "internalType": "uint256",
          "name": "",
          "type": "uint256"
        }
      ],
      "stateMutability": "pure",
      "type": "function"
    },
    {
      "inputs": [
        {
          "internalType": "address",
          "name": "_account",
          "type": "address"
        },
        {
          "internalType": "address",
          "name": "_collateralToken",
          "type": "address"
        },
        {
          "internalType": "address",
          "name": "_indexToken",
          "type": "address"
        },
        {
          "internalType": "bool",
          "name": "_isLong",
          "type": "bool"
        }
      ],
      "name": "getPositionLeverage",
      "outputs": [
        {
          "internalType": "uint256",
          "name": "",
          "type": "uint256"
        }
      ],
      "stateMutability": "view",
      "type": "function"
    },
    {
      "inputs": [
        {
          "internalType": "address",
          "name": "_token",
          "type": "address"
        }
      ],
      "name": "getUtilisation",
      "outputs": [
        {
          "internalType": "uint256",
          "name": "",
          "type": "uint256"
        }
      ],
      "stateMutability": "view",
      "type": "function"
    },
    {
      "inputs": [
        {
          "internalType": "address",
          "name": "_account",
          "type": "address"
        },
        {
          "internalType": "address",
          "name": "_collateralToken",
          "type": "address"
        },
        {
          "internalType": "address",
          "name": "_indexToken",
          "type": "address"
        },
        {
          "internalType": "uint256",
          "name": "_sizeDelta",
          "type": "uint256"
        },
        {
          "internalType": "bool",
          "name": "_isLong",
          "type": "bool"
        }
      ],
      "name": "increasePosition",
      "outputs": [],
      "stateMutability": "nonpayable",
      "type": "function"
    },
    {
      "inputs": [
        {
          "internalType": "address",
          "name": "_account",
          "type": "address"
        },
        {
          "internalType": "address",
          "name": "_collateralToken",
          "type": "address"
        },
        {
          "internalType": "address",
          "name": "_indexToken",
          "type": "address"
        },
        {
          "internalType": "bool",
          "name": "_isLong",
          "type": "bool"
        },
        {
          "internalType": "address",
          "name": "_feeReceiver",
          "type": "address"
        }
      ],
      "name": "liquidatePosition",
      "outputs": [],
      "stateMutability": "nonpayable",
      "type": "function"
    },
    {
      "inputs": [],
      "name": "priceFeed",
      "outputs": [
        {
          "internalType": "address",
          "name": "",
          "type": "address"
        }
      ],
      "stateMutability": "view",
      "type": "function"
    },
    {
      "inputs": [
        {
          "internalType": "address",
          "name": "_account",
          "type": "address"
        },
        {
          "internalType": "address",
          "name": "_collateralToken",
          "type": "address"
        },
        {
          "internalType": "address",
          "name": "_indexToken",
          "type": "address"
        },
        {
          "internalType": "bool",
          "name": "_isLong",
          "type": "bool"
        },
        {
          "internalType": "bool",
          "name": "_raise",
          "type": "bool"
        }
      ],
      "name": "validateLiquidation",
      "outputs": [
        {
          "internalType": "uint256",
          "name": "",
          "type": "uint256"
        },
        {
          "internalType": "uint256",
          "name": "",
          "type": "uint256"
        }
      ],
      "stateMutability": "view",
      "type": "function"
    }
  ],
  "bytecode": "0x608060405234801561001057600080fd5b5060008060000160006101000a81548160ff02191690831515021790555061498a8061003d6000396000f3fe608060405234801561001057600080fd5b50600436106100f55760003560e01c80635c07eaab11610097578063cc5b814411610066578063cc5b81441461069d578063d54d5a9f14610709578063db97495f146107c0578063de2ea94814610856576100f5565b80635c07eaab146104ae578063741bef1a1461053957806382a084901461056d578063a93acac214610645576100f5565b806345a6f370116100d357806345a6f370146101ec57806348d91abf146102995780634a3f088d1461033357806351723e821461040a576100f5565b806304fef1db146100fa57806317bbf25c146101525780631ce9cb8f14610194575b600080fd5b61013c6004803603602081101561011057600080fd5b81019080803573ffffffffffffffffffffffffffffffffffffffff169060200190929190505050610906565b6040518082815260200191505060405180910390f35b61017e6004803603602081101561016857600080fd5b81019080803590602001909291905050506109d4565b6040518082815260200191505060405180910390f35b6101d6600480360360208110156101aa57600080fd5b81019080803573ffffffffffffffffffffffffffffffffffffffff1690602001909291905050506109e6565b6040518082815260200191505060405180910390f35b61027a6004803603608081101561020257600080fd5b81019080803573ffffffffffffffffffffffffffffffffffffffff169060200190929190803573ffffffffffffffffffffffffffffffffffffffff169060200190929190803573ffffffffffffffffffffffffffffffffffffffff169060200190929190803515159060200190929190505050610a31565b6040518083151581526020018281526020019250505060405180910390f35b610331600480360360a08110156102af57600080fd5b81019080803573ffffffffffffffffffffffffffffffffffffffff169060200190929190803573ffffffffffffffffffffffffffffffffffffffff169060200190929190803573ffffffffffffffffffffffffffffffffffffffff16906020019092919080359060200190929190803515159060200190929190505050610add565b005b6103c16004803603608081101561034957600080fd5b81019080803573ffffffffffffffffffffffffffffffffffffffff169060200190929190803573ffffffffffffffffffffffffffffffffffffffff169060200190929190803573ffffffffffffffffffffffffffffffffffffffff169060200190929190803515159060200190929190505050610f77565b6040518089815260200188815260200187815260200186815260200185815260200184815260200183151581526020018281526020019850505050505050505060405180910390f35b6104986004803603608081101561042057600080fd5b81019080803573ffffffffffffffffffffffffffffffffffffffff169060200190929190803573ffffffffffffffffffffffffffffffffffffffff169060200190929190803573ffffffffffffffffffffffffffffffffffffffff169060200190929190803515159060200190929190505050611070565b6040518082815260200191505060405180910390f35b61051a600480360360a08110156104c457600080fd5b81019080803573ffffffffffffffffffffffffffffffffffffffff1690602001909291908035906020019092919080359060200190929190803515159060200190929190803590602001909291905050506111a7565b6040518083151581526020018281526020019250505060405180910390f35b6105416111c5565b604051808273ffffffffffffffffffffffffffffffffffffffff16815260200191505060405180910390f35b61062f600480360360e081101561058357600080fd5b81019080803573ffffffffffffffffffffffffffffffffffffffff169060200190929190803573ffffffffffffffffffffffffffffffffffffffff169060200190929190803573ffffffffffffffffffffffffffffffffffffffff1690602001909291908035906020019092919080359060200190929190803515159060200190929190803573ffffffffffffffffffffffffffffffffffffffff1690602001909291905050506111f1565b6040518082815260200191505060405180910390f35b6106876004803603602081101561065b57600080fd5b81019080803573ffffffffffffffffffffffffffffffffffffffff169060200190929190505050611229565b6040518082815260200191505060405180910390f35b6106f3600480360360608110156106b357600080fd5b81019080803573ffffffffffffffffffffffffffffffffffffffff169060200190929190803590602001909291908035906020019092919050505061123b565b6040518082815260200191505060405180910390f35b6107a3600480360360a081101561071f57600080fd5b81019080803573ffffffffffffffffffffffffffffffffffffffff169060200190929190803573ffffffffffffffffffffffffffffffffffffffff169060200190929190803573ffffffffffffffffffffffffffffffffffffffff169060200190929190803515159060200190929190803515159060200190929190505050611251565b604051808381526020018281526020019250505060405180910390f35b610840600480360360e08110156107d657600080fd5b81019080803573ffffffffffffffffffffffffffffffffffffffff16906020019092919080359060200190929190803590602001909291908035151590602001909291908035906020019092919080359060200190929190803590602001909291905050506115d5565b6040518082815260200191505060405180910390f35b610904600480360360a081101561086c57600080fd5b81019080803573ffffffffffffffffffffffffffffffffffffffff169060200190929190803573ffffffffffffffffffffffffffffffffffffffff169060200190929190803573ffffffffffffffffffffffffffffffffffffffff169060200190929190803515159060200190929190803573ffffffffffffffffffffffffffffffffffffffff1690602001909291905050506116ac565b005b6000806000600d0160008473ffffffffffffffffffffffffffffffffffffffff1673ffffffffffffffffffffffffffffffffffffffff16815260200190815260200160002054905060008114156109615760009150506109cf565b6109cb816109bd620f42406000600e0160008873ffffffffffffffffffffffffffffffffffffffff1673ffffffffffffffffffffffffffffffffffffffff16815260200190815260200160002054611b3890919063ffffffff16565b611bbe90919063ffffffff16565b9150505b919050565b60006109df82611c47565b9050919050565b60008060120160008373ffffffffffffffffffffffffffffffffffffffff1673ffffffffffffffffffffffffffffffffffffffff168152602001908152602001600020549050919050565b6000806000610a4287878787611cb6565b9050610a4c6147c0565b600060070160008381526020019081526020016000206040518060e00160405290816000820154815260200160018201548152602001600282015481526020016003820154815260200160048201548152602001600582015481526020016006820154815250509050610ace8682600001518360400151888560c001516111a7565b93509350505094509492505050565b610ae5611d51565b610aef8484611d8c565b610af884611e43565b6000610b0686868685611cb6565b905060008060070160008381526020019081526020016000209050600083610b4957610b4486600060040160149054906101000a900460ff16612120565b610b66565b610b6586600060040160149054906101000a900460ff166121e1565b5b9050600082600001541415610b7f578082600201819055505b60008260000154118015610b935750600085115b15610bbc57610bb3868360000154846002015487858a88600601546115d5565b82600201819055505b6000610bd28887856000015486600301546122a2565b90506000610bdf896123f3565b90506000610bed8a8361254f565b9050610c0681866001015461260890919063ffffffff16565b85600101819055508285600101541015610c6b576040517f08c379a000000000000000000000000000000000000000000000000000000000815260040180806020018281038252602781526020018061492e6027913960400191505060405180910390fd5b610c8283866001015461269090919063ffffffff16565b8560010181905550600060100160008b73ffffffffffffffffffffffffffffffffffffffff1673ffffffffffffffffffffffffffffffffffffffff168152602001908152602001600020548560030181905550610cec88866000015461260890919063ffffffff16565b85600001819055504285600601819055506000856000015411610d77576040517f08c379a000000000000000000000000000000000000000000000000000000000815260040180806020018281038252601c8152602001807f5661756c743a20696e76616c696420706f736974696f6e2e73697a650000000081525060200191505060405180910390fd5b610d8985600001548660010154612713565b610d978b8b8b8a6001611251565b50506000610db88b8a600060040160149054906101000a900460ff166127d8565b9050610dd181876004015461260890919063ffffffff16565b8660040181905550610de38b82612809565b610dff8b610dfa868c61260890919063ffffffff16565b612a00565b610e098b83612aff565b610e138b84612bfe565b50610e278b610e228d87612d4d565b612d9c565b7f2fe68525253654c21998f35787a8d0f361905ef647c854092430ab65f2f15022878d8d8d868e8e8c8c604051808a81526020018973ffffffffffffffffffffffffffffffffffffffff1681526020018873ffffffffffffffffffffffffffffffffffffffff1681526020018773ffffffffffffffffffffffffffffffffffffffff1681526020018681526020018581526020018415158152602001838152602001828152602001995050505050505050505060405180910390a17f25e8a331a7394a9f09862048843323b00bdbada258f524f5ce624a45bf00aabb878760000154886001015489600201548a600301548b600401548c600501546040518088815260200187815260200186815260200185815260200184815260200183815260200182815260200197505050505050505060405180910390a1610f69612fca565b505050505050505050505050565b6000806000806000806000806000610f918d8d8d8d611cb6565b9050610f9b6147c0565b600060070160008381526020019081526020016000206040518060e001604052908160008201548152602001600182015481526020016002820154815260200160038201548152602001600482015481526020016005820154815260200160068201548152505090506000808260a001511361101e578160a00151600003611024565b8160a001515b9050816000015182602001518360400151846060015185608001518560008860a0015112158860c001519a509a509a509a509a509a509a509a5050505094995094995094999196509450565b60008061107f86868686611cb6565b90506110896147c0565b600060070160008381526020019081526020016000206040518060e00160405290816000820154815260200160018201548152602001600282015481526020016003820154815260200160048201548152602001600582015481526020016006820154815250509050600081602001511161116c576040517f08c379a00000000000000000000000000000000000000000000000000000000081526004018080602001828103825260178152602001807f5661756c743a20696e76616c696420706f736974696f6e00000000000000000081525060200191505060405180910390fd5b61119b816020015161118d6127108460000151611b3890919063ffffffff16565b611bbe90919063ffffffff16565b92505050949350505050565b6000806111b78787878787612fe9565b915091509550959350505050565b60008060010160009054906101000a900473ffffffffffffffffffffffffffffffffffffffff16905090565b60006111fb611d51565b6112058787611d8c565b61120d612fca565b61121c888888888888886131e7565b9050979650505050505050565b600061123482613857565b9050919050565b6000611248848484613a17565b90509392505050565b600080600061126288888888611cb6565b905061126c6147c0565b600060070160008381526020019081526020016000206040518060e001604052908160008201548152602001600182015481526020016002820154815260200160038201548152602001600482015481526020016005820154815260200160068201548152505090506000806112f189846000015185604001518b8760c001516111a7565b91509150600061130a8b8560000151866060015161123b565b905061132b61131c85600001516109d4565b8261260890919063ffffffff16565b90508215801561133e5750818460200151105b156113c85787156113b7576040517f08c379a000000000000000000000000000000000000000000000000000000000815260040180806020018281038252601f8152602001807f5661756c743a206c6f737365732065786365656420636f6c6c61746572616c0081525060200191505060405180910390fd5b6001819650965050505050506115cb565b600084602001519050836113f0576113ed83866020015161269090919063ffffffff16565b90505b8181101561147e57881561146c576040517f08c379a000000000000000000000000000000000000000000000000000000000815260040180806020018281038252601d8152602001807f5661756c743a20666565732065786365656420636f6c6c61746572616c00000081525060200191505060405180910390fd5b600181975097505050505050506115cb565b611492600a8361260890919063ffffffff16565b8110156115025788156114f0576040517f08c379a000000000000000000000000000000000000000000000000000000000815260040180806020018281038252602981526020018061484c6029913960400191505060405180910390fd5b600182975097505050505050506115cb565b61151b6127108660000151611b3890919063ffffffff16565b6115316207a12083611b3890919063ffffffff16565b10156115bd5788156115ab576040517f08c379a000000000000000000000000000000000000000000000000000000000815260040180806020018281038252601b8152602001807f5661756c743a206d61784c65766572616765206578636565646564000000000081525060200191505060405180910390fd5b600282975097505050505050506115cb565b600082975097505050505050505b9550959350505050565b60008060006115e78a8a8a8a886111a7565b915091506000611600868b61260890919063ffffffff16565b905060008815611642578361162757611622838361269090919063ffffffff16565b61163b565b61163a838361260890919063ffffffff16565b5b9050611676565b8361165f5761165a838361260890919063ffffffff16565b611673565b611672838361269090919063ffffffff16565b5b90505b61169b8161168d848b611b3890919063ffffffff16565b611bbe90919063ffffffff16565b945050505050979650505050505050565b6116b4611d51565b60008060040160146101000a81548160ff0219169083151502179055506116db8484611d8c565b6116e484611e43565b60006116f286868686611cb6565b90506116fc6147c0565b600060070160008381526020019081526020016000206040518060e0016040529081600082015481526020016001820154815260200160028201548152602001600382015481526020016004820154815260200160058201548152602001600682015481525050905060008160000151116117df576040517f08c379a00000000000000000000000000000000000000000000000000000000081526004018080602001828103825260158152602001807f5661756c743a20656d70747920706f736974696f6e000000000000000000000081525060200191505060405180910390fd5b6000806117f0898989896000611251565b91509150600082141561184e576040517f08c379a00000000000000000000000000000000000000000000000000000000081526004018080602001828103825260248152602001806147fe6024913960400191505060405180910390fd5b600282141561189b57611891898989600061188a600a61187c60058b60000151611b3890919063ffffffff16565b611bbe90919063ffffffff16565b8b8f6131e7565b5050505050611b31565b6118f96118a88983612d4d565b600060120160008b73ffffffffffffffffffffffffffffffffffffffff1673ffffffffffffffffffffffffffffffffffffffff1681526020019081526020016000205461260890919063ffffffff16565b600060120160008a73ffffffffffffffffffffffffffffffffffffffff1673ffffffffffffffffffffffffffffffffffffffff1681526020019081526020016000208190555061194d888460800151613ad7565b6119718861196c8560200151866000015161269090919063ffffffff16565b612aff565b6000866119995761199488600060040160149054906101000a900460ff166121e1565b6119b6565b6119b588600060040160149054906101000a900460ff16612120565b5b90507f2e1f85a64a2f22cf2f0c42584e7c919ed4abe8d53675cff0f62bf1e95a1c676f858b8b8b8b89600001518a602001518b608001518c60a001518a604051808b81526020018a73ffffffffffffffffffffffffffffffffffffffff1681526020018973ffffffffffffffffffffffffffffffffffffffff1681526020018873ffffffffffffffffffffffffffffffffffffffff16815260200187151581526020018681526020018581526020018481526020018381526020018281526020019a505050505050505050505060405180910390a1600060070160008681526020019081526020016000206000808201600090556001820160009055600282016000905560038201600090556004820160009055600582016000905560068201600090555050611af089611aeb8b600a612d4d565b612d9c565b611b0589611aff8b600a612d4d565b88613c0d565b6001600060040160146101000a81548160ff021916908315150217905550611b2b612fca565b50505050505b5050505050565b600080831415611b4b5760009050611bb8565b6000828402905082848281611b5c57fe5b0414611bb3576040517f08c379a00000000000000000000000000000000000000000000000000000000081526004018080602001828103825260218152602001806148be6021913960400191505060405180910390fd5b809150505b92915050565b6000808211611c35576040517f08c379a000000000000000000000000000000000000000000000000000000000815260040180806020018281038252601a8152602001807f536166654d6174683a206469766973696f6e206279207a65726f00000000000081525060200191505060405180910390fd5b818381611c3e57fe5b04905092915050565b600080821415611c5a5760009050611cb1565b6000611c98612710611c8a611c7b600a61271061269090919063ffffffff16565b86611b3890919063ffffffff16565b611bbe90919063ffffffff16565b9050611cad818461269090919063ffffffff16565b9150505b919050565b600084848484604051602001808573ffffffffffffffffffffffffffffffffffffffff1660601b81526014018473ffffffffffffffffffffffffffffffffffffffff1660601b81526014018373ffffffffffffffffffffffffffffffffffffffff1660601b815260140182151560f81b8152600101945050505050604051602081830303815290604052805190602001209050949350505050565b6000800160009054906101000a900460ff1615611d6d57600080fd5b60016000800160006101000a81548160ff021916908315150217905550565b8073ffffffffffffffffffffffffffffffffffffffff168273ffffffffffffffffffffffffffffffffffffffff1614611e2d576040517f08c379a00000000000000000000000000000000000000000000000000000000081526004018080602001828103825260188152602001807f5661756c743a206d69736d61746368656420746f6b656e73000000000000000081525060200191505060405180910390fd5b611e3682613d31565b611e3f81613d31565b5050565b6000611e4d613dc0565b905060008160110160008473ffffffffffffffffffffffffffffffffffffffff1673ffffffffffffffffffffffffffffffffffffffff168152602001908152602001600020541415611f0d57611ec2617080611eb461708042611bbe90919063ffffffff16565b611b3890919063ffffffff16565b8160110160008473ffffffffffffffffffffffffffffffffffffffff1673ffffffffffffffffffffffffffffffffffffffff168152602001908152602001600020819055505061211d565b42611f646170808360110160008673ffffffffffffffffffffffffffffffffffffffff1673ffffffffffffffffffffffffffffffffffffffff1681526020019081526020016000205461260890919063ffffffff16565b1115611f70575061211d565b6000611f7b83613857565b9050611fd1818360100160008673ffffffffffffffffffffffffffffffffffffffff1673ffffffffffffffffffffffffffffffffffffffff1681526020019081526020016000205461260890919063ffffffff16565b8260100160008573ffffffffffffffffffffffffffffffffffffffff1673ffffffffffffffffffffffffffffffffffffffff1681526020019081526020016000208190555061203f61708061203161708042611bbe90919063ffffffff16565b611b3890919063ffffffff16565b8260110160008573ffffffffffffffffffffffffffffffffffffffff1673ffffffffffffffffffffffffffffffffffffffff168152602001908152602001600020819055507fa146fc154e1913322e9817d49f0d5c37466c24326e15de10e739a948be815eab838360100160008673ffffffffffffffffffffffffffffffffffffffff1673ffffffffffffffffffffffffffffffffffffffff16815260200190815260200160002054604051808373ffffffffffffffffffffffffffffffffffffffff1681526020018281526020019250505060405180910390a150505b50565b60003073ffffffffffffffffffffffffffffffffffffffff16635ae69163846000856040518463ffffffff1660e01b8152600401808473ffffffffffffffffffffffffffffffffffffffff16815260200183151581526020018215158152602001935050505060206040518083038186803b15801561219e57600080fd5b505afa1580156121b2573d6000803e3d6000fd5b505050506040513d60208110156121c857600080fd5b8101908080519060200190929190505050905092915050565b60003073ffffffffffffffffffffffffffffffffffffffff16635ae69163846001856040518463ffffffff1660e01b8152600401808473ffffffffffffffffffffffffffffffffffffffff16815260200183151581526020018215158152602001935050505060206040518083038186803b15801561225f57600080fd5b505afa158015612273573d6000803e3d6000fd5b505050506040513d602081101561228957600080fd5b8101908080519060200190929190505050905092915050565b6000806122ad613dc0565b905060006122ba86611c47565b905060006122c9888787613a17565b90506122de818361260890919063ffffffff16565b915060006122ec8984612d4d565b9050612342818560120160008c73ffffffffffffffffffffffffffffffffffffffff1673ffffffffffffffffffffffffffffffffffffffff1681526020019081526020016000205461260890919063ffffffff16565b8460120160008b73ffffffffffffffffffffffffffffffffffffffff1673ffffffffffffffffffffffffffffffffffffffff168152602001908152602001600020819055507f5d0c0019d3d45fadeb74eff9d2c9924d146d000ac6bcf3c28bf0ac3c9baa011a898483604051808473ffffffffffffffffffffffffffffffffffffffff168152602001838152602001828152602001935050505060405180910390a182945050505050949350505050565b6000806123fe613dc0565b9050600081600b0160008573ffffffffffffffffffffffffffffffffffffffff1673ffffffffffffffffffffffffffffffffffffffff16815260200190815260200160002054905060008473ffffffffffffffffffffffffffffffffffffffff166370a08231306040518263ffffffff1660e01b8152600401808273ffffffffffffffffffffffffffffffffffffffff16815260200191505060206040518083038186803b1580156124af57600080fd5b505afa1580156124c3573d6000803e3d6000fd5b505050506040513d60208110156124d957600080fd5b810190808051906020019092919050505090508083600b0160008773ffffffffffffffffffffffffffffffffffffffff1673ffffffffffffffffffffffffffffffffffffffff16815260200190815260200160002081905550612545828261269090919063ffffffff16565b9350505050919050565b60008061255a613dc0565b9050600083141561256f576000915050612602565b600061258c858360040160149054906101000a900460ff16612120565b905060008260080160008773ffffffffffffffffffffffffffffffffffffffff1673ffffffffffffffffffffffffffffffffffffffff1681526020019081526020016000205490506125fc81600a0a6125ee8488611b3890919063ffffffff16565b611bbe90919063ffffffff16565b93505050505b92915050565b600080828401905083811015612686576040517f08c379a000000000000000000000000000000000000000000000000000000000815260040180806020018281038252601b8152602001807f536166654d6174683a206164646974696f6e206f766572666c6f77000000000081525060200191505060405180910390fd5b8091505092915050565b600082821115612708576040517f08c379a000000000000000000000000000000000000000000000000000000000815260040180806020018281038252601e8152602001807f536166654d6174683a207375627472616374696f6e206f766572666c6f77000081525060200191505060405180910390fd5b818303905092915050565b600082141561277a5760008114612775576040517f08c379a00000000000000000000000000000000000000000000000000000000081526004018080602001828103825260258152602001806148df6025913960400191505060405180910390fd5b6127d4565b808210156127d3576040517f08c379a000000000000000000000000000000000000000000000000000000000815260040180806020018281038252602a815260200180614822602a913960400191505060405180910390fd5b5b5050565b6000808314156127eb5760009050612802565b6127ff84846127fa8786612120565b613ded565b90505b9392505050565b6000612813613dc0565b90506128698282600e0160008673ffffffffffffffffffffffffffffffffffffffff1673ffffffffffffffffffffffffffffffffffffffff1681526020019081526020016000205461260890919063ffffffff16565b81600e0160008573ffffffffffffffffffffffffffffffffffffffff1673ffffffffffffffffffffffffffffffffffffffff1681526020019081526020016000208190555080600d0160008473ffffffffffffffffffffffffffffffffffffffff1673ffffffffffffffffffffffffffffffffffffffff1681526020019081526020016000205481600e0160008573ffffffffffffffffffffffffffffffffffffffff1673ffffffffffffffffffffffffffffffffffffffff1681526020019081526020016000205411156129a6576040517f08c379a000000000000000000000000000000000000000000000000000000000815260040180806020018281038252601b8152602001807f5661756c743a2072657365727665206578636565647320706f6f6c000000000081525060200191505060405180910390fd5b7faa5649d82f5462be9d19b0f2b31a59b2259950a6076550bac9f3a1c07db9f66d8383604051808373ffffffffffffffffffffffffffffffffffffffff1681526020018281526020019250505060405180910390a1505050565b6000612a0a613dc0565b9050612a608282600f0160008673ffffffffffffffffffffffffffffffffffffffff1673ffffffffffffffffffffffffffffffffffffffff1681526020019081526020016000205461260890919063ffffffff16565b81600f0160008573ffffffffffffffffffffffffffffffffffffffff1673ffffffffffffffffffffffffffffffffffffffff168152602001908152602001600020819055507fd9d4761f75e0d0103b5cbeab941eeb443d7a56a35b5baf2a0787c03f03f4e4748383604051808373ffffffffffffffffffffffffffffffffffffffff1681526020018281526020019250505060405180910390a1505050565b6000612b09613dc0565b9050612b5f8282600f0160008673ffffffffffffffffffffffffffffffffffffffff1673ffffffffffffffffffffffffffffffffffffffff1681526020019081526020016000205461269090919063ffffffff16565b81600f0160008573ffffffffffffffffffffffffffffffffffffffff1673ffffffffffffffffffffffffffffffffffffffff168152602001908152602001600020819055507f34e07158b9db50df5613e591c44ea2ebc82834eff4a4dc3a46e000e608261d688383604051808373ffffffffffffffffffffffffffffffffffffffff1681526020018281526020019250505060405180910390a1505050565b600080612c09613dc0565b9050612c5f8382600d0160008773ffffffffffffffffffffffffffffffffffffffff1673ffffffffffffffffffffffffffffffffffffffff1681526020019081526020016000205461260890919063ffffffff16565b81600d0160008673ffffffffffffffffffffffffffffffffffffffff1673ffffffffffffffffffffffffffffffffffffffff16815260200190815260200160002081905550612cad84613e87565b7f976177fbe09a15e5e43f848844963a42b41ef919ef17ff21a17a5421de8f47378484604051808373ffffffffffffffffffffffffffffffffffffffff1681526020018281526020019250505060405180910390a180600d0160008573ffffffffffffffffffffffffffffffffffffffff1673ffffffffffffffffffffffffffffffffffffffff1681526020019081526020016000205491505092915050565b600080612d58613dc0565b90506000831415612d6d576000915050612d96565b612d928484612d8d878560040160149054906101000a900460ff166121e1565b613ded565b9150505b92915050565b6000612da6613dc0565b9050612e33826040518060400160405280601a81526020017f5661756c743a20706f6f6c416d6f756e7420657863656564656400000000000081525083600d0160008773ffffffffffffffffffffffffffffffffffffffff1673ffffffffffffffffffffffffffffffffffffffff16815260200190815260200160002054613ff59092919063ffffffff16565b81600d0160008573ffffffffffffffffffffffffffffffffffffffff1673ffffffffffffffffffffffffffffffffffffffff1681526020019081526020016000208190555080600d0160008473ffffffffffffffffffffffffffffffffffffffff1673ffffffffffffffffffffffffffffffffffffffff1681526020019081526020016000205481600e0160008573ffffffffffffffffffffffffffffffffffffffff1673ffffffffffffffffffffffffffffffffffffffff168152602001908152602001600020541115612f70576040517f08c379a000000000000000000000000000000000000000000000000000000000815260040180806020018281038252601b8152602001807f5661756c743a2072657365727665206578636565647320706f6f6c000000000081525060200191505060405180910390fd5b7f112726233fbeaeed0f5b1dba5cb0b2b81883dee49fb35ff99fd98ed9f6d31eb08383604051808373ffffffffffffffffffffffffffffffffffffffff1681526020018281526020019250505060405180910390a1505050565b60008060000160006101000a81548160ff021916908315150217905550565b6000806000612ff6613dc0565b90506000861161306e576040517f08c379a000000000000000000000000000000000000000000000000000000000815260040180806020018281038252601c8152602001807f5661756c743a20696e76616c6964205f6176657261676550726963650000000081525060200191505060405180910390fd5b60008561309557613090898360040160149054906101000a900460ff166121e1565b6130b1565b6130b0898360040160149054906101000a900460ff16612120565b5b905060008188116130d4576130cf888361269090919063ffffffff16565b6130e8565b6130e7828961269090919063ffffffff16565b5b9050600061311189613103848d611b3890919063ffffffff16565b611bbe90919063ffffffff16565b90506000881561312557898411905061312b565b838a1190505b60006131426103848a61260890919063ffffffff16565b421161318f5785600a0160008e73ffffffffffffffffffffffffffffffffffffffff1673ffffffffffffffffffffffffffffffffffffffff16815260200190815260200160002054613192565b60005b90508180156131c757506131af818d611b3890919063ffffffff16565b6131c461271085611b3890919063ffffffff16565b11155b156131d157600092505b8183975097505050505050509550959350505050565b60006131f287611e43565b600061320089898987611cb6565b9050600080600701600083815260200190815260200160002090506000816000015411613295576040517f08c379a00000000000000000000000000000000000000000000000000000000081526004018080602001828103825260158152602001807f5661756c743a20656d70747920706f736974696f6e000000000000000000000081525060200191505060405180910390fd5b858160000154101561330f576040517f08c379a000000000000000000000000000000000000000000000000000000000815260040180806020018281038252601d8152602001807f5661756c743a20706f736974696f6e2073697a6520657863656564656400000081525060200191505060405180910390fd5b868160010154101561336c576040517f08c379a000000000000000000000000000000000000000000000000000000000815260040180806020018281038252602381526020018061489b6023913960400191505060405180910390fd5b60008160010154905060006133a483600001546133968a8660040154611b3890919063ffffffff16565b611bbe90919063ffffffff16565b90506133bd81846004015461269090919063ffffffff16565b83600401819055506133cf8b82613ad7565b506000806133e18d8d8d8d8d8d6140af565b915091508884600001541461363f57600060100160008d73ffffffffffffffffffffffffffffffffffffffff1673ffffffffffffffffffffffffffffffffffffffff16815260200190815260200160002054846003018190555061345289856000015461269090919063ffffffff16565b846000018190555061346c84600001548560010154612713565b61347a8d8d8d8b6001611251565b505061349c8c61349786600101548661269090919063ffffffff16565b612a00565b6134a68c8a612aff565b6000886134ce576134c98c600060040160149054906101000a900460ff166121e1565b6134eb565b6134ea8c600060040160149054906101000a900460ff16612120565b5b90507f93d75d64d1f84fc6f430a64fc578bdd4c1e090e90ea2d51773e626d19de56d30868f8f8f8f8f8f886135298b8d61269090919063ffffffff16565b604051808a81526020018973ffffffffffffffffffffffffffffffffffffffff1681526020018873ffffffffffffffffffffffffffffffffffffffff1681526020018773ffffffffffffffffffffffffffffffffffffffff1681526020018681526020018581526020018415158152602001838152602001828152602001995050505050505050505060405180910390a17f25e8a331a7394a9f09862048843323b00bdbada258f524f5ce624a45bf00aabb8686600001548760010154886002015489600301548a600401548b600501546040518088815260200187815260200186815260200185815260200184815260200183815260200182815260200197505050505050505060405180910390a150613839565b6136498c84612a00565b6136538c8a612aff565b60008861367b576136768c600060040160149054906101000a900460ff166121e1565b613698565b6136978c600060040160149054906101000a900460ff16612120565b5b90507f93d75d64d1f84fc6f430a64fc578bdd4c1e090e90ea2d51773e626d19de56d30868f8f8f8f8f8f886136d68b8d61269090919063ffffffff16565b604051808a81526020018973ffffffffffffffffffffffffffffffffffffffff1681526020018873ffffffffffffffffffffffffffffffffffffffff1681526020018773ffffffffffffffffffffffffffffffffffffffff1681526020018681526020018581526020018415158152602001838152602001828152602001995050505050505050505060405180910390a17f73af1d417d82c240fdb6d319b34ad884487c6bf2845d98980cc52ad9171cb4558686600001548760010154886002015489600301548a600401548b600501546040518088815260200187815260200186815260200185815260200184815260200183815260200182815260200197505050505050505060405180910390a1600060070160008781526020019081526020016000206000808201600090556001820160009055600282016000905560038201600090556004820160009055600582016000905560068201600090555050505b6138458c8884846142f0565b95505050505050979650505050505050565b600080613862613dc0565b9050426138bb6170808360110160008773ffffffffffffffffffffffffffffffffffffffff1673ffffffffffffffffffffffffffffffffffffffff1681526020019081526020016000205461260890919063ffffffff16565b11156138cb576000915050613a12565b60006139356170806139278460110160008873ffffffffffffffffffffffffffffffffffffffff1673ffffffffffffffffffffffffffffffffffffffff168152602001908152602001600020544261269090919063ffffffff16565b611bbe90919063ffffffff16565b9050600082600d0160008673ffffffffffffffffffffffffffffffffffffffff1673ffffffffffffffffffffffffffffffffffffffff16815260200190815260200160002054905060008114156139925760009350505050613a12565b613a0c816139fe846139f087600e0160008b73ffffffffffffffffffffffffffffffffffffffff1673ffffffffffffffffffffffffffffffffffffffff16815260200190815260200160002054610258611b3890919063ffffffff16565b611b3890919063ffffffff16565b611bbe90919063ffffffff16565b93505050505b919050565b600080613a22613dc0565b90506000841415613a37576000915050613ad0565b6000613a8d848360100160008973ffffffffffffffffffffffffffffffffffffffff1673ffffffffffffffffffffffffffffffffffffffff1681526020019081526020016000205461269090919063ffffffff16565b90506000811415613aa357600092505050613ad0565b613acb620f4240613abd8388611b3890919063ffffffff16565b611bbe90919063ffffffff16565b925050505b9392505050565b6000613ae1613dc0565b9050613b6e826040518060400160405280601b81526020017f5661756c743a20696e73756666696369656e742072657365727665000000000081525083600e0160008773ffffffffffffffffffffffffffffffffffffffff1673ffffffffffffffffffffffffffffffffffffffff16815260200190815260200160002054613ff59092919063ffffffff16565b81600e0160008573ffffffffffffffffffffffffffffffffffffffff1673ffffffffffffffffffffffffffffffffffffffff168152602001908152602001600020819055507f533cb5ed32be6a90284e96b5747a1bfc2d38fdb5768a6b5f67ff7d62144ed67b8383604051808373ffffffffffffffffffffffffffffffffffffffff1681526020018281526020019250505060405180910390a1505050565b6000613c17613dc0565b9050613c4482848673ffffffffffffffffffffffffffffffffffffffff1661433c9092919063ffffffff16565b8373ffffffffffffffffffffffffffffffffffffffff166370a08231306040518263ffffffff1660e01b8152600401808273ffffffffffffffffffffffffffffffffffffffff16815260200191505060206040518083038186803b158015613cab57600080fd5b505afa158015613cbf573d6000803e3d6000fd5b505050506040513d6020811015613cd557600080fd5b810190808051906020019092919050505081600b0160008673ffffffffffffffffffffffffffffffffffffffff1673ffffffffffffffffffffffffffffffffffffffff1681526020019081526020016000208190555050505050565b6000613d3b613dc0565b9050613d4a81600501836143de565b613dbc576040517f08c379a000000000000000000000000000000000000000000000000000000000815260040180806020018281038252601c8152602001807f5661756c743a20746f6b656e206e6f742077686974656c69737465640000000081525060200191505060405180910390fd5b5050565b6000807f7cb844567d08de0aea8bd535cf2547626d7310c37ea6e89341d354bf971f48a990508091505090565b600080613df8613dc0565b90506000841415613e0d576000915050613e80565b60008160080160008773ffffffffffffffffffffffffffffffffffffffff1673ffffffffffffffffffffffffffffffffffffffff168152602001908152602001600020549050613e7b84613e6d83600a0a88611b3890919063ffffffff16565b611bbe90919063ffffffff16565b925050505b9392505050565b6000613e91613dc0565b905060008273ffffffffffffffffffffffffffffffffffffffff166370a08231306040518263ffffffff1660e01b8152600401808273ffffffffffffffffffffffffffffffffffffffff16815260200191505060206040518083038186803b158015613efc57600080fd5b505afa158015613f10573d6000803e3d6000fd5b505050506040513d6020811015613f2657600080fd5b810190808051906020019092919050505090508082600d0160008573ffffffffffffffffffffffffffffffffffffffff1673ffffffffffffffffffffffffffffffffffffffff168152602001908152602001600020541115613ff0576040517f08c379a00000000000000000000000000000000000000000000000000000000081526004018080602001828103825260178152602001807f5661756c743a20696e76616c696420696e63726561736500000000000000000081525060200191505060405180910390fd5b505050565b60008383111582906140a2576040517f08c379a00000000000000000000000000000000000000000000000000000000081526004018080602001828103825283818151815260200191508051906020019080838360005b8381101561406757808201518184015260208101905061404c565b50505050905090810190601f1680156140945780820380516001836020036101000a031916815260200191505b509250505060405180910390fd5b5082840390509392505050565b60008060006140bc613dc0565b905060008160070160006140d28c8c8c8a611cb6565b8152602001908152602001600020905060006140f88a88846000015485600301546122a2565b90506000806000806141198d876000015488600201548d8a60060154612fe9565b91509150819350614149866000015461413b838e611b3890919063ffffffff16565b611bbe90919063ffffffff16565b92505050600082801561415c5750600082115b15614174578190508185600501540185600501819055505b821580156141825750600082115b156141b65761419e82866001015461269090919063ffffffff16565b85600101819055508185600501540385600501819055505b60008b11156141f4576141d28b8261260890919063ffffffff16565b90506141eb8b866001015461269090919063ffffffff16565b85600101819055505b89856000015414156142245761421785600101548261260890919063ffffffff16565b9050600085600101819055505b838110156142655761424384866001015461269090919063ffffffff16565b856001018190555060006142578e86612d4d565b90506142638e82612d9c565b505b7f3ff41bdde87755b687ae83d0221a232b6be51a803330ed9661c1b5d0105e0d8a6142928f8f8f8d611cb6565b8484604051808481526020018315158152602001828152602001935050505060405180910390a1808482116142c757816142db565b6142da858361269090919063ffffffff16565b5b97509750505050505050965096945050505050565b60008083111561432f5761430d856143088786612d4d565b612d9c565b60006143198684612d4d565b9050614326868287613c0d565b80915050614334565b600090505b949350505050565b6143d98363a9059cbb60e01b8484604051602401808373ffffffffffffffffffffffffffffffffffffffff16815260200182815260200192505050604051602081830303815290604052907bffffffffffffffffffffffffffffffffffffffffffffffffffffffff19166020820180517bffffffffffffffffffffffffffffffffffffffffffffffffffffffff838183161783525050505061440e565b505050565b6000614406836000018373ffffffffffffffffffffffffffffffffffffffff1660001b6144fd565b905092915050565b6060614470826040518060400160405280602081526020017f5361666545524332303a206c6f772d6c6576656c2063616c6c206661696c65648152508573ffffffffffffffffffffffffffffffffffffffff166145209092919063ffffffff16565b90506000815111156144f85780806020019051602081101561449157600080fd5b81019080805190602001909291905050506144f7576040517f08c379a000000000000000000000000000000000000000000000000000000000815260040180806020018281038252602a815260200180614904602a913960400191505060405180910390fd5b5b505050565b600080836001016000848152602001908152602001600020541415905092915050565b606061452f8484600085614538565b90509392505050565b606082471015614593576040517f08c379a00000000000000000000000000000000000000000000000000000000081526004018080602001828103825260268152602001806148756026913960400191505060405180910390fd5b61459c856146e1565b61460e576040517f08c379a000000000000000000000000000000000000000000000000000000000815260040180806020018281038252601d8152602001807f416464726573733a2063616c6c20746f206e6f6e2d636f6e747261637400000081525060200191505060405180910390fd5b600060608673ffffffffffffffffffffffffffffffffffffffff1685876040518082805190602001908083835b6020831061465e578051825260208201915060208101905060208303925061463b565b6001836020036101000a03801982511681845116808217855250505050505090500191505060006040518083038185875af1925050503d80600081146146c0576040519150601f19603f3d011682016040523d82523d6000602084013e6146c5565b606091505b50915091506146d58282866146f4565b92505050949350505050565b600080823b905060008111915050919050565b60608315614704578290506147b9565b6000835111156147175782518084602001fd5b816040517f08c379a00000000000000000000000000000000000000000000000000000000081526004018080602001828103825283818151815260200191508051906020019080838360005b8381101561477e578082015181840152602081019050614763565b50505050905090810190601f1680156147ab5780820380516001836020036101000a031916815260200191505b509250505060405180910390fd5b9392505050565b6040518060e0016040528060008152602001600081526020016000815260200160008152602001600081526020016000815260200160008152509056fe5661756c743a20706f736974696f6e2063616e6e6f74206265206c6971756964617465645661756c743a205f73697a65206d757374206265206d6f7265207468616e205f636f6c6c61746572616c5661756c743a206c69717569646174696f6e20666565732065786365656420636f6c6c61746572616c416464726573733a20696e73756666696369656e742062616c616e636520666f722063616c6c5661756c743a20706f736974696f6e20636f6c6c61746572616c206578636565646564536166654d6174683a206d756c7469706c69636174696f6e206f766572666c6f775661756c743a20636f6c6c61746572616c2073686f756c642062652077697468647261776e5361666545524332303a204552433230206f7065726174696f6e20646964206e6f7420737563636565645661756c743a20696e73756666696369656e7420636f6c6c61746572616c20666f722066656573a26469706673582212206966ea49d11f3efe2e06d93ec0bd057b4501b9169a94692dda8bf6d692cbeb5e64736f6c63430007050033",
  "linkReferences": {},
  "deployedLinkReferences": {}
}