{
  "_format": "hh-sol-artifact-1",
  "contractName": "VaultNDOLFacet",
  "sourceName": "contracts/facets/Vault/VaultNDOLFacet.sol",
  "abi": [
    {
      "anonymous": false,
      "inputs": [
        {
          "indexed": false,
          "internalType": "address",
          "name": "account",
          "type": "address"
        },
        {
          "indexed": false,
          "internalType": "address",
          "name": "token",
          "type": "address"
        },
        {
          "indexed": false,
          "internalType": "uint256",
          "name": "tokenAmount",
          "type": "uint256"
        },
        {
          "indexed": false,
          "internalType": "uint256",
          "name": "ndolAmount",
          "type": "uint256"
        }
      ],
      "name": "BuyNDOL",
      "type": "event"
    },
    {
      "anonymous": false,
      "inputs": [
        {
          "indexed": false,
          "internalType": "address",
          "name": "account",
          "type": "address"
        },
        {
          "indexed": false,
          "internalType": "address",
          "name": "token",
          "type": "address"
        },
        {
          "indexed": false,
          "internalType": "uint256",
          "name": "ndolAmount",
          "type": "uint256"
        },
        {
          "indexed": false,
          "internalType": "uint256",
          "name": "tokenAmount",
          "type": "uint256"
        }
      ],
      "name": "SellNDOL",
      "type": "event"
    },
    {
      "anonymous": false,
      "inputs": [
        {
          "indexed": false,
          "internalType": "address",
          "name": "account",
          "type": "address"
        },
        {
          "indexed": false,
          "internalType": "address",
          "name": "tokenIn",
          "type": "address"
        },
        {
          "indexed": false,
          "internalType": "address",
          "name": "tokenOut",
          "type": "address"
        },
        {
          "indexed": false,
          "internalType": "uint256",
          "name": "amountIn",
          "type": "uint256"
        },
        {
          "indexed": false,
          "internalType": "uint256",
          "name": "amountOut",
          "type": "uint256"
        }
      ],
      "name": "Swap",
      "type": "event"
    },
    {
      "inputs": [
        {
          "internalType": "address",
          "name": "_token",
          "type": "address"
        }
      ],
      "name": "availableReserve",
      "outputs": [
        {
          "internalType": "uint256",
          "name": "",
          "type": "uint256"
        }
      ],
      "stateMutability": "view",
      "type": "function"
    },
    {
      "inputs": [
        {
          "internalType": "address",
          "name": "_token",
          "type": "address"
        },
        {
          "internalType": "address",
          "name": "_receiver",
          "type": "address"
        }
      ],
      "name": "buyNDOL",
      "outputs": [
        {
          "internalType": "uint256",
          "name": "",
          "type": "uint256"
        }
      ],
      "stateMutability": "nonpayable",
      "type": "function"
    },
    {
      "inputs": [
        {
          "internalType": "address",
          "name": "_token",
          "type": "address"
        },
        {
          "internalType": "uint256",
          "name": "_ndolAmount",
          "type": "uint256"
        }
      ],
      "name": "getRedemptionAmount",
      "outputs": [
        {
          "internalType": "uint256",
          "name": "",
          "type": "uint256"
        }
      ],
      "stateMutability": "view",
      "type": "function"
    },
    {
      "inputs": [
        {
          "internalType": "address",
          "name": "_token",
          "type": "address"
        }
      ],
      "name": "getRedemptionBasisPoints",
      "outputs": [
        {
          "internalType": "uint256",
          "name": "",
          "type": "uint256"
        }
      ],
      "stateMutability": "view",
      "type": "function"
    },
    {
      "inputs": [
        {
          "internalType": "address",
          "name": "_token",
          "type": "address"
        }
      ],
      "name": "getRedemptionCollateral",
      "outputs": [
        {
          "internalType": "uint256",
          "name": "",
          "type": "uint256"
        }
      ],
      "stateMutability": "view",
      "type": "function"
    },
    {
      "inputs": [
        {
          "internalType": "address",
          "name": "_token",
          "type": "address"
        }
      ],
      "name": "getRedemptionCollateralUsd",
      "outputs": [
        {
          "internalType": "uint256",
          "name": "",
          "type": "uint256"
        }
      ],
      "stateMutability": "view",
      "type": "function"
    },
    {
      "inputs": [
        {
          "internalType": "address",
          "name": "_token",
          "type": "address"
        },
        {
          "internalType": "uint256",
          "name": "_fee",
          "type": "uint256"
        }
      ],
      "name": "getTargetAdjustedFee",
      "outputs": [
        {
          "internalType": "uint256",
          "name": "",
          "type": "uint256"
        }
      ],
      "stateMutability": "view",
      "type": "function"
    },
    {
      "inputs": [
        {
          "internalType": "address",
          "name": "_token",
          "type": "address"
        }
      ],
      "name": "ndolAmounts",
      "outputs": [
        {
          "internalType": "uint256",
          "name": "",
          "type": "uint256"
        }
      ],
      "stateMutability": "view",
      "type": "function"
    },
    {
      "inputs": [
        {
          "internalType": "address",
          "name": "_token",
          "type": "address"
        }
      ],
      "name": "poolAmounts",
      "outputs": [
        {
          "internalType": "uint256",
          "name": "",
          "type": "uint256"
        }
      ],
      "stateMutability": "view",
      "type": "function"
    },
    {
      "inputs": [
        {
          "internalType": "address",
          "name": "_token",
          "type": "address"
        }
      ],
      "name": "reservedAmounts",
      "outputs": [
        {
          "internalType": "uint256",
          "name": "",
          "type": "uint256"
        }
      ],
      "stateMutability": "view",
      "type": "function"
    },
    {
      "inputs": [
        {
          "internalType": "address",
          "name": "_token",
          "type": "address"
        },
        {
          "internalType": "address",
          "name": "_receiver",
          "type": "address"
        }
      ],
      "name": "sellNDOL",
      "outputs": [
        {
          "internalType": "uint256",
          "name": "",
          "type": "uint256"
        }
      ],
      "stateMutability": "nonpayable",
      "type": "function"
    },
    {
      "inputs": [
        {
          "internalType": "address",
          "name": "_tokenIn",
          "type": "address"
        },
        {
          "internalType": "address",
          "name": "_tokenOut",
          "type": "address"
        },
        {
          "internalType": "address",
          "name": "_receiver",
          "type": "address"
        }
      ],
      "name": "swap",
      "outputs": [
        {
          "internalType": "uint256",
          "name": "",
          "type": "uint256"
        }
      ],
      "stateMutability": "nonpayable",
      "type": "function"
    }
  ],
  "bytecode": "0x608060405234801561001057600080fd5b5060008060000160006101000a81548160ff0219169083151502179055506135688061003d6000396000f3fe608060405234801561001057600080fd5b50600436106100b45760003560e01c8063815b3c7411610071578063815b3c7414610313578063933162121461036b578063b136ca4914610403578063b319ce0f1461045b578063c3c7b9e9146104bd578063e62b398014610515576100b4565b80630d4b0497146100b957806329ff9615146101315780632c668ec1146101895780632ef1477a146101eb57806352f55eed146102635780637fed3cb4146102bb575b600080fd5b61011b600480360360408110156100cf57600080fd5b81019080803573ffffffffffffffffffffffffffffffffffffffff169060200190929190803573ffffffffffffffffffffffffffffffffffffffff16906020019092919050505061056d565b6040518082815260200191505060405180910390f35b6101736004803603602081101561014757600080fd5b81019080803573ffffffffffffffffffffffffffffffffffffffff1690602001909291905050506108d4565b6040518082815260200191505060405180910390f35b6101d56004803603604081101561019f57600080fd5b81019080803573ffffffffffffffffffffffffffffffffffffffff169060200190929190803590602001909291905050506108f1565b6040518082815260200191505060405180910390f35b61024d6004803603604081101561020157600080fd5b81019080803573ffffffffffffffffffffffffffffffffffffffff169060200190929190803573ffffffffffffffffffffffffffffffffffffffff169060200190929190505050610a76565b6040518082815260200191505060405180910390f35b6102a56004803603602081101561027957600080fd5b81019080803573ffffffffffffffffffffffffffffffffffffffff169060200190929190505050610e0a565b6040518082815260200191505060405180910390f35b6102fd600480360360208110156102d157600080fd5b81019080803573ffffffffffffffffffffffffffffffffffffffff169060200190929190505050610e55565b6040518082815260200191505060405180910390f35b6103556004803603602081101561032957600080fd5b81019080803573ffffffffffffffffffffffffffffffffffffffff169060200190929190505050610ea0565b6040518082815260200191505060405180910390f35b6103ed6004803603606081101561038157600080fd5b81019080803573ffffffffffffffffffffffffffffffffffffffff169060200190929190803573ffffffffffffffffffffffffffffffffffffffff169060200190929190803573ffffffffffffffffffffffffffffffffffffffff169060200190929190505050610fa4565b6040518082815260200191505060405180910390f35b6104456004803603602081101561041957600080fd5b81019080803573ffffffffffffffffffffffffffffffffffffffff16906020019092919050505061136a565b6040518082815260200191505060405180910390f35b6104a76004803603604081101561047157600080fd5b81019080803573ffffffffffffffffffffffffffffffffffffffff1690602001909291908035906020019092919050505061146e565b6040518082815260200191505060405180910390f35b6104ff600480360360208110156104d357600080fd5b81019080803573ffffffffffffffffffffffffffffffffffffffff169060200190929190505050611525565b6040518082815260200191505060405180910390f35b6105576004803603602081101561052b57600080fd5b81019080803573ffffffffffffffffffffffffffffffffffffffff169060200190929190505050611570565b6040518082815260200191505060405180910390f35b60006105776115bb565b6105826000846115f6565b60006105b360008060040160009054906101000a900473ffffffffffffffffffffffffffffffffffffffff166116bb565b90506000811161062b576040517f08c379a00000000000000000000000000000000000000000000000000000000081526004018080602001828103825260198152602001807f5661756c743a20696e76616c6964206e757364416d6f756e740000000000000081525060200191505060405180910390fd5b61063660008561180b565b600061064285836108f1565b9050600081116106ba576040517f08c379a000000000000000000000000000000000000000000000000000000000815260040180806020018281038252601f8152602001807f5661756c743a20696e76616c696420726564656d7074696f6e416d6f756e740081525060200191505060405180910390fd5b6106c660008684611adb565b6106d260008683611c7e565b600060040160009054906101000a900473ffffffffffffffffffffffffffffffffffffffff1673ffffffffffffffffffffffffffffffffffffffff16639dc29fac30846040518363ffffffff1660e01b8152600401808373ffffffffffffffffffffffffffffffffffffffff16815260200182815260200192505050600060405180830381600087803b15801561076857600080fd5b505af115801561077c573d6000803e3d6000fd5b505050506107af60008060040160009054906101000a900473ffffffffffffffffffffffffffffffffffffffff16611ea0565b60006107bf600087846000611f91565b91505060008111610838576040517f08c379a000000000000000000000000000000000000000000000000000000000815260040180806020018281038252601a8152602001807f5661756c743a20696e76616c696420746f6b656e416d6f756e7400000000000081525060200191505060405180910390fd5b6108456000878388612119565b7ff43bbb0dc03c77d9da8fef3a487ede08ca6d460d004d1734a49f16b8effb571d85878584604051808573ffffffffffffffffffffffffffffffffffffffff1681526020018473ffffffffffffffffffffffffffffffffffffffff16815260200183815260200182815260200194505050505060405180910390a16108c86121e3565b80935050505092915050565b60006108ea6000836108e58561136a565b612202565b9050919050565b60008061091084600060040160149054906101000a900460ff166122ae565b90506000610946826109386c0c9f2c9cd04674edea400000008761236f90919063ffffffff16565b6123f590919063ffffffff16565b905061097a600082600060040160009054906101000a900473ffffffffffffffffffffffffffffffffffffffff168861247e565b905060006109878661136a565b9050600081141561099e5760009350505050610a70565b600080600d0160008873ffffffffffffffffffffffffffffffffffffffff1673ffffffffffffffffffffffffffffffffffffffff16815260200190815260200160002054905060008114156109f95782945050505050610a70565b6000610a2082610a12858a61236f90919063ffffffff16565b6123f590919063ffffffff16565b90506000610a2d89611570565b9050610a56612710610a48838561236f90919063ffffffff16565b6123f590919063ffffffff16565b9150848210610a655784610a67565b815b96505050505050505b92915050565b6000610a806115bb565b600060040160159054906101000a900460ff16610b05576040517f08c379a00000000000000000000000000000000000000000000000000000000081526004018080602001828103825260168152602001807f5661756c743a206e6f7420696e697469616c697a65640000000000000000000081525060200191505060405180910390fd5b610b106000846115f6565b6000610b1d6000856116bb565b905060008111610b95576040517f08c379a000000000000000000000000000000000000000000000000000000000815260040180806020018281038252601a8152602001807f5661756c743a20696e76616c696420746f6b656e416d6f756e7400000000000081525060200191505060405180910390fd5b610ba060008561180b565b6000610bbe85600060040160149054906101000a900460ff16612600565b90506000610bd0600087856001611f91565b9150506000610c076c0c9f2c9cd04674edea40000000610bf9858561236f90919063ffffffff16565b6123f590919063ffffffff16565b9050610c3b60008289600060040160009054906101000a900473ffffffffffffffffffffffffffffffffffffffff1661247e565b905060008111610cb3576040517f08c379a00000000000000000000000000000000000000000000000000000000081526004018080602001828103825260198152602001807f5661756c743a20696e76616c6964206e757364416d6f756e740000000000000081525060200191505060405180910390fd5b610cbf600088836126c1565b610ccb600088846127b4565b50600060040160009054906101000a900473ffffffffffffffffffffffffffffffffffffffff1673ffffffffffffffffffffffffffffffffffffffff166340c10f1987836040518363ffffffff1660e01b8152600401808373ffffffffffffffffffffffffffffffffffffffff16815260200182815260200192505050600060405180830381600087803b158015610d6257600080fd5b505af1158015610d76573d6000803e3d6000fd5b505050507f476f011d8c2a9058922b2e97ecf3623534fdb3dd8e1cdacf19faa16c145ad1d286888684604051808573ffffffffffffffffffffffffffffffffffffffff1681526020018473ffffffffffffffffffffffffffffffffffffffff16815260200183815260200182815260200194505050505060405180910390a1610dfd6121e3565b8094505050505092915050565b600080600e0160008373ffffffffffffffffffffffffffffffffffffffff1673ffffffffffffffffffffffffffffffffffffffff168152602001908152602001600020549050919050565b600080600d0160008373ffffffffffffffffffffffffffffffffffffffff1673ffffffffffffffffffffffffffffffffffffffff168152602001908152602001600020549050919050565b6000808273ffffffffffffffffffffffffffffffffffffffff166370a08231306040518263ffffffff1660e01b8152600401808273ffffffffffffffffffffffffffffffffffffffff16815260200191505060206040518083038186803b158015610f0a57600080fd5b505afa158015610f1e573d6000803e3d6000fd5b505050506040513d6020811015610f3457600080fd5b81019080805190602001909291905050509050610f9c6000600f0160008573ffffffffffffffffffffffffffffffffffffffff1673ffffffffffffffffffffffffffffffffffffffff16815260200190815260200160002054826128f990919063ffffffff16565b915050919050565b6000610fae6115bb565b600060040160159054906101000a900460ff16611033576040517f08c379a00000000000000000000000000000000000000000000000000000000081526004018080602001828103825260168152602001807f5661756c743a206e6f7420696e697469616c697a65640000000000000000000081525060200191505060405180910390fd5b8273ffffffffffffffffffffffffffffffffffffffff168473ffffffffffffffffffffffffffffffffffffffff1614156110d5576040517f08c379a00000000000000000000000000000000000000000000000000000000081526004018080602001828103825260158152602001807f5661756c743a20696e76616c696420746f6b656e73000000000000000000000081525060200191505060405180910390fd5b6110e06000856115f6565b6110eb6000846115f6565b6110f660008561180b565b61110160008461180b565b600061110e6000866116bb565b905060008111611186576040517f08c379a00000000000000000000000000000000000000000000000000000000081526004018080602001828103825260178152602001807f5661756c743a20696e76616c696420616d6f756e74496e00000000000000000081525060200191505060405180910390fd5b60006111a486600060040160149054906101000a900460ff16612600565b905060006111c486600060040160149054906101000a900460ff166122ae565b905060006111ed826111df858761236f90919063ffffffff16565b6123f590919063ffffffff16565b90506111fc6000828a8a61247e565b9050600061120e600089846000611f91565b91505060006112456c0c9f2c9cd04674edea40000000611237878961236f90919063ffffffff16565b6123f590919063ffffffff16565b90506112796000828c600060040160009054906101000a900473ffffffffffffffffffffffffffffffffffffffff1661247e565b905061128760008b836126c1565b61129360008a83611adb565b61129f60008b886127b4565b506112ac60008a85611c7e565b6112b960008a848b612119565b7fcd3829a3813dc3cdd188fd3d01dcf3268c16be2fdd2dd21d0665418816e46062888b8b8986604051808673ffffffffffffffffffffffffffffffffffffffff1681526020018573ffffffffffffffffffffffffffffffffffffffff1681526020018473ffffffffffffffffffffffffffffffffffffffff1681526020018381526020018281526020019550505050505060405180910390a161135a6121e3565b8196505050505050509392505050565b6000806113bb600084600060100160008773ffffffffffffffffffffffffffffffffffffffff1673ffffffffffffffffffffffffffffffffffffffff1681526020019081526020016000205461297c565b90506114666000600f0160008573ffffffffffffffffffffffffffffffffffffffff1673ffffffffffffffffffffffffffffffffffffffff168152602001908152602001600020546114586000600e0160008773ffffffffffffffffffffffffffffffffffffffff1673ffffffffffffffffffffffffffffffffffffffff16815260200190815260200160002054846129bf90919063ffffffff16565b6128f990919063ffffffff16565b915050919050565b6000806000600d0160008573ffffffffffffffffffffffffffffffffffffffff1673ffffffffffffffffffffffffffffffffffffffff16815260200190815260200160002054905060006114c3600086612a47565b905060008114806114d45750600082145b156114e357839250505061151f565b808211156114f557839250505061151f565b61151a8161150c848761236f90919063ffffffff16565b6123f590919063ffffffff16565b925050505b92915050565b600080600f0160008373ffffffffffffffffffffffffffffffffffffffff1673ffffffffffffffffffffffffffffffffffffffff168152602001908152602001600020549050919050565b600080600a0160008373ffffffffffffffffffffffffffffffffffffffff1673ffffffffffffffffffffffffffffffffffffffff168152602001908152602001600020549050919050565b6000800160009054906101000a900460ff16156115d757600080fd5b60016000800160006101000a81548160ff021916908315150217905550565b8160070160008273ffffffffffffffffffffffffffffffffffffffff1673ffffffffffffffffffffffffffffffffffffffff16815260200190815260200160002060009054906101000a900460ff166116b7576040517f08c379a000000000000000000000000000000000000000000000000000000000815260040180806020018281038252601c8152602001807f5661756c743a20746f6b656e206e6f742077686974656c69737465640000000081525060200191505060405180910390fd5b5050565b60008083600c0160008473ffffffffffffffffffffffffffffffffffffffff1673ffffffffffffffffffffffffffffffffffffffff16815260200190815260200160002054905060008373ffffffffffffffffffffffffffffffffffffffff166370a08231306040518263ffffffff1660e01b8152600401808273ffffffffffffffffffffffffffffffffffffffff16815260200191505060206040518083038186803b15801561176b57600080fd5b505afa15801561177f573d6000803e3d6000fd5b505050506040513d602081101561179557600080fd5b810190808051906020019092919050505090508085600c0160008673ffffffffffffffffffffffffffffffffffffffff1673ffffffffffffffffffffffffffffffffffffffff1681526020019081526020016000208190555061180182826128f990919063ffffffff16565b9250505092915050565b60008260120160008373ffffffffffffffffffffffffffffffffffffffff1673ffffffffffffffffffffffffffffffffffffffff1681526020019081526020016000205414156118c85761187e617080611870617080426123f590919063ffffffff16565b61236f90919063ffffffff16565b8260120160008373ffffffffffffffffffffffffffffffffffffffff1673ffffffffffffffffffffffffffffffffffffffff16815260200190815260200160002081905550611ad7565b4261191f6170808460120160008573ffffffffffffffffffffffffffffffffffffffff1673ffffffffffffffffffffffffffffffffffffffff168152602001908152602001600020546129bf90919063ffffffff16565b111561192a57611ad7565b60006119368383612b7e565b905061198c818460110160008573ffffffffffffffffffffffffffffffffffffffff1673ffffffffffffffffffffffffffffffffffffffff168152602001908152602001600020546129bf90919063ffffffff16565b8360110160008473ffffffffffffffffffffffffffffffffffffffff1673ffffffffffffffffffffffffffffffffffffffff168152602001908152602001600020819055506119fa6170806119ec617080426123f590919063ffffffff16565b61236f90919063ffffffff16565b8360120160008473ffffffffffffffffffffffffffffffffffffffff1673ffffffffffffffffffffffffffffffffffffffff168152602001908152602001600020819055507fa146fc154e1913322e9817d49f0d5c37466c24326e15de10e739a948be815eab828460110160008573ffffffffffffffffffffffffffffffffffffffff1673ffffffffffffffffffffffffffffffffffffffff16815260200190815260200160002054604051808373ffffffffffffffffffffffffffffffffffffffff1681526020018281526020019250505060405180910390a1505b5050565b600083600d0160008473ffffffffffffffffffffffffffffffffffffffff1673ffffffffffffffffffffffffffffffffffffffff168152602001908152602001600020549050818111611bca57600084600d0160008573ffffffffffffffffffffffffffffffffffffffff1673ffffffffffffffffffffffffffffffffffffffff168152602001908152602001600020819055507f8e97f52ebe0fff2b2bf547c79160e7d99d6cd067752899e0fe2fa4184ae14f0e8382604051808373ffffffffffffffffffffffffffffffffffffffff1681526020018281526020019250505060405180910390a150611c79565b611bdd82826128f990919063ffffffff16565b84600d0160008573ffffffffffffffffffffffffffffffffffffffff1673ffffffffffffffffffffffffffffffffffffffff168152602001908152602001600020819055507f8e97f52ebe0fff2b2bf547c79160e7d99d6cd067752899e0fe2fa4184ae14f0e8383604051808373ffffffffffffffffffffffffffffffffffffffff1681526020018281526020019250505060405180910390a1505b505050565b611d09816040518060400160405280601a81526020017f5661756c743a20706f6f6c416d6f756e7420657863656564656400000000000081525085600e0160008673ffffffffffffffffffffffffffffffffffffffff1673ffffffffffffffffffffffffffffffffffffffff16815260200190815260200160002054612d319092919063ffffffff16565b83600e0160008473ffffffffffffffffffffffffffffffffffffffff1673ffffffffffffffffffffffffffffffffffffffff1681526020019081526020016000208190555082600e0160008373ffffffffffffffffffffffffffffffffffffffff1673ffffffffffffffffffffffffffffffffffffffff1681526020019081526020016000205483600f0160008473ffffffffffffffffffffffffffffffffffffffff1673ffffffffffffffffffffffffffffffffffffffff168152602001908152602001600020541115611e46576040517f08c379a000000000000000000000000000000000000000000000000000000000815260040180806020018281038252601b8152602001807f5661756c743a2072657365727665206578636565647320706f6f6c000000000081525060200191505060405180910390fd5b7f112726233fbeaeed0f5b1dba5cb0b2b81883dee49fb35ff99fd98ed9f6d31eb08282604051808373ffffffffffffffffffffffffffffffffffffffff1681526020018281526020019250505060405180910390a1505050565b60008173ffffffffffffffffffffffffffffffffffffffff166370a08231306040518263ffffffff1660e01b8152600401808273ffffffffffffffffffffffffffffffffffffffff16815260200191505060206040518083038186803b158015611f0957600080fd5b505afa158015611f1d573d6000803e3d6000fd5b505050506040513d6020811015611f3357600080fd5b810190808051906020019092919050505090508083600c0160008473ffffffffffffffffffffffffffffffffffffffff1673ffffffffffffffffffffffffffffffffffffffff16815260200190815260200160002081905550505050565b6000806000611fa28787601e612deb565b90506000611fee612710611fe0611fd188611fbe57601e611fc0565b855b6127106128f990919063ffffffff16565b8961236f90919063ffffffff16565b6123f590919063ffffffff16565b9050600061200582886128f990919063ffffffff16565b905061205b818a60130160008b73ffffffffffffffffffffffffffffffffffffffff1673ffffffffffffffffffffffffffffffffffffffff168152602001908152602001600020546129bf90919063ffffffff16565b8960130160008a73ffffffffffffffffffffffffffffffffffffffff1673ffffffffffffffffffffffffffffffffffffffff168152602001908152602001600020819055507f47cd9dda0e50ce30bcaaacd0488452b596221c07ac402a581cfae4d3933cac2b886120cd8b8b85612202565b83604051808473ffffffffffffffffffffffffffffffffffffffff168152602001838152602001828152602001935050505060405180910390a180829450945050505094509492505050565b61214481838573ffffffffffffffffffffffffffffffffffffffff16612ea19092919063ffffffff16565b6121988285600c0160008673ffffffffffffffffffffffffffffffffffffffff1673ffffffffffffffffffffffffffffffffffffffff168152602001908152602001600020546128f990919063ffffffff16565b84600c0160008573ffffffffffffffffffffffffffffffffffffffff1673ffffffffffffffffffffffffffffffffffffffff1681526020019081526020016000208190555050505050565b60008060000160006101000a81548160ff021916908315150217905550565b60008082141561221557600090506122a7565b6000612232848660040160149054906101000a900460ff16612600565b905060008560090160008673ffffffffffffffffffffffffffffffffffffffff1673ffffffffffffffffffffffffffffffffffffffff1681526020019081526020016000205490506122a281600a0a612294848761236f90919063ffffffff16565b6123f590919063ffffffff16565b925050505b9392505050565b60003073ffffffffffffffffffffffffffffffffffffffff16635ae69163846001856040518463ffffffff1660e01b8152600401808473ffffffffffffffffffffffffffffffffffffffff16815260200183151581526020018215158152602001935050505060206040518083038186803b15801561232c57600080fd5b505afa158015612340573d6000803e3d6000fd5b505050506040513d602081101561235657600080fd5b8101908080519060200190929190505050905092915050565b60008083141561238257600090506123ef565b600082840290508284828161239357fe5b04146123ea576040517f08c379a00000000000000000000000000000000000000000000000000000000081526004018080602001828103825260218152602001806134e86021913960400191505060405180910390fd5b809150505b92915050565b600080821161246c576040517f08c379a000000000000000000000000000000000000000000000000000000000815260040180806020018281038252601a8152602001807f536166654d6174683a206469766973696f6e206279207a65726f00000000000081525060200191505060405180910390fd5b81838161247557fe5b04905092915050565b6000808560040160009054906101000a900473ffffffffffffffffffffffffffffffffffffffff1673ffffffffffffffffffffffffffffffffffffffff168473ffffffffffffffffffffffffffffffffffffffff161461251f578560090160008573ffffffffffffffffffffffffffffffffffffffff1673ffffffffffffffffffffffffffffffffffffffff16815260200190815260200160002054612522565b60125b905060008660040160009054906101000a900473ffffffffffffffffffffffffffffffffffffffff1673ffffffffffffffffffffffffffffffffffffffff168473ffffffffffffffffffffffffffffffffffffffff16146125c4578660090160008573ffffffffffffffffffffffffffffffffffffffff1673ffffffffffffffffffffffffffffffffffffffff168152602001908152602001600020546125c7565b60125b90506125f482600a0a6125e683600a0a8961236f90919063ffffffff16565b6123f590919063ffffffff16565b92505050949350505050565b60003073ffffffffffffffffffffffffffffffffffffffff16635ae69163846000856040518463ffffffff1660e01b8152600401808473ffffffffffffffffffffffffffffffffffffffff16815260200183151581526020018215158152602001935050505060206040518083038186803b15801561267e57600080fd5b505afa158015612692573d6000803e3d6000fd5b505050506040513d60208110156126a857600080fd5b8101908080519060200190929190505050905092915050565b6127158184600d0160008573ffffffffffffffffffffffffffffffffffffffff1673ffffffffffffffffffffffffffffffffffffffff168152602001908152602001600020546129bf90919063ffffffff16565b83600d0160008473ffffffffffffffffffffffffffffffffffffffff1673ffffffffffffffffffffffffffffffffffffffff168152602001908152602001600020819055507f8cd98f2655650a84cafa3bf07b0f32dd1b3548f0d3cdaba5889c6035fe6928ad8282604051808373ffffffffffffffffffffffffffffffffffffffff1681526020018281526020019250505060405180910390a1505050565b600061280a8285600e0160008673ffffffffffffffffffffffffffffffffffffffff1673ffffffffffffffffffffffffffffffffffffffff168152602001908152602001600020546129bf90919063ffffffff16565b84600e0160008573ffffffffffffffffffffffffffffffffffffffff1673ffffffffffffffffffffffffffffffffffffffff168152602001908152602001600020819055506128598484612f43565b7f976177fbe09a15e5e43f848844963a42b41ef919ef17ff21a17a5421de8f47378383604051808373ffffffffffffffffffffffffffffffffffffffff1681526020018281526020019250505060405180910390a183600e0160008473ffffffffffffffffffffffffffffffffffffffff1673ffffffffffffffffffffffffffffffffffffffff1681526020019081526020016000205490509392505050565b600082821115612971576040517f08c379a000000000000000000000000000000000000000000000000000000000815260040180806020018281038252601e8152602001807f536166654d6174683a207375627472616374696f6e206f766572666c6f77000081525060200191505060405180910390fd5b818303905092915050565b60008082141561298f57600090506129b8565b6129b58484846129b0878960040160149054906101000a900460ff166122ae565b6130a5565b90505b9392505050565b600080828401905083811015612a3d576040517f08c379a000000000000000000000000000000000000000000000000000000000815260040180806020018281038252601b8152602001807f536166654d6174683a206164646974696f6e206f766572666c6f77000000000081525060200191505060405180910390fd5b8091505092915050565b6000808360040160009054906101000a900473ffffffffffffffffffffffffffffffffffffffff1673ffffffffffffffffffffffffffffffffffffffff166318160ddd6040518163ffffffff1660e01b815260040160206040518083038186803b158015612ab457600080fd5b505afa158015612ac8573d6000803e3d6000fd5b505050506040513d6020811015612ade57600080fd5b810190808051906020019092919050505090506000811415612b04576000915050612b78565b60008460140160008573ffffffffffffffffffffffffffffffffffffffff1673ffffffffffffffffffffffffffffffffffffffff168152602001908152602001600020549050612b738560150154612b65848461236f90919063ffffffff16565b6123f590919063ffffffff16565b925050505b92915050565b600042612bd76170808560120160008673ffffffffffffffffffffffffffffffffffffffff1673ffffffffffffffffffffffffffffffffffffffff168152602001908152602001600020546129bf90919063ffffffff16565b1115612be65760009050612d2b565b6000612c50617080612c428660120160008773ffffffffffffffffffffffffffffffffffffffff1673ffffffffffffffffffffffffffffffffffffffff16815260200190815260200160002054426128f990919063ffffffff16565b6123f590919063ffffffff16565b9050600084600e0160008573ffffffffffffffffffffffffffffffffffffffff1673ffffffffffffffffffffffffffffffffffffffff1681526020019081526020016000205490506000811415612cac57600092505050612d2b565b612d2681612d1884612d0a89600f0160008a73ffffffffffffffffffffffffffffffffffffffff1673ffffffffffffffffffffffffffffffffffffffff1681526020019081526020016000205461025861236f90919063ffffffff16565b61236f90919063ffffffff16565b6123f590919063ffffffff16565b925050505b92915050565b6000838311158290612dde576040517f08c379a00000000000000000000000000000000000000000000000000000000081526004018080602001828103825283818151815260200191508051906020019080838360005b83811015612da3578082015181840152602081019050612d88565b50505050905090810190601f168015612dd05780820380516001836020036101000a031916815260200191505b509250505060405180910390fd5b5082840390509392505050565b60008084600d0160008573ffffffffffffffffffffffffffffffffffffffff1673ffffffffffffffffffffffffffffffffffffffff1681526020019081526020016000205490506000612e3e8686612a47565b90506000811480612e4f5750600082145b15612e5e578392505050612e9a565b80821115612e70578392505050612e9a565b612e9581612e87848761236f90919063ffffffff16565b6123f590919063ffffffff16565b925050505b9392505050565b612f3e8363a9059cbb60e01b8484604051602401808373ffffffffffffffffffffffffffffffffffffffff16815260200182815260200192505050604051602081830303815290604052907bffffffffffffffffffffffffffffffffffffffffffffffffffffffff19166020820180517bffffffffffffffffffffffffffffffffffffffffffffffffffffffff8381831617835250505050613132565b505050565b60008173ffffffffffffffffffffffffffffffffffffffff166370a08231306040518263ffffffff1660e01b8152600401808273ffffffffffffffffffffffffffffffffffffffff16815260200191505060206040518083038186803b158015612fac57600080fd5b505afa158015612fc0573d6000803e3d6000fd5b505050506040513d6020811015612fd657600080fd5b810190808051906020019092919050505090508083600e0160008473ffffffffffffffffffffffffffffffffffffffff1673ffffffffffffffffffffffffffffffffffffffff1681526020019081526020016000205411156130a0576040517f08c379a00000000000000000000000000000000000000000000000000000000081526004018080602001828103825260178152602001807f5661756c743a20696e76616c696420696e63726561736500000000000000000081525060200191505060405180910390fd5b505050565b6000808314156130b8576000905061312a565b60008560090160008673ffffffffffffffffffffffffffffffffffffffff1673ffffffffffffffffffffffffffffffffffffffff1681526020019081526020016000205490506131268361311883600a0a8761236f90919063ffffffff16565b6123f590919063ffffffff16565b9150505b949350505050565b6060613194826040518060400160405280602081526020017f5361666545524332303a206c6f772d6c6576656c2063616c6c206661696c65648152508573ffffffffffffffffffffffffffffffffffffffff166132219092919063ffffffff16565b905060008151111561321c578080602001905160208110156131b557600080fd5b810190808051906020019092919050505061321b576040517f08c379a000000000000000000000000000000000000000000000000000000000815260040180806020018281038252602a815260200180613509602a913960400191505060405180910390fd5b5b505050565b60606132308484600085613239565b90509392505050565b606082471015613294576040517f08c379a00000000000000000000000000000000000000000000000000000000081526004018080602001828103825260268152602001806134c26026913960400191505060405180910390fd5b61329d856133e2565b61330f576040517f08c379a000000000000000000000000000000000000000000000000000000000815260040180806020018281038252601d8152602001807f416464726573733a2063616c6c20746f206e6f6e2d636f6e747261637400000081525060200191505060405180910390fd5b600060608673ffffffffffffffffffffffffffffffffffffffff1685876040518082805190602001908083835b6020831061335f578051825260208201915060208101905060208303925061333c565b6001836020036101000a03801982511681845116808217855250505050505090500191505060006040518083038185875af1925050503d80600081146133c1576040519150601f19603f3d011682016040523d82523d6000602084013e6133c6565b606091505b50915091506133d68282866133f5565b92505050949350505050565b600080823b905060008111915050919050565b60608315613405578290506134ba565b6000835111156134185782518084602001fd5b816040517f08c379a00000000000000000000000000000000000000000000000000000000081526004018080602001828103825283818151815260200191508051906020019080838360005b8381101561347f578082015181840152602081019050613464565b50505050905090810190601f1680156134ac5780820380516001836020036101000a031916815260200191505b509250505060405180910390fd5b939250505056fe416464726573733a20696e73756666696369656e742062616c616e636520666f722063616c6c536166654d6174683a206d756c7469706c69636174696f6e206f766572666c6f775361666545524332303a204552433230206f7065726174696f6e20646964206e6f742073756363656564a2646970667358221220b1f5600f4a22c89a0223da93bba9dd1e6e484306f57977f06e504e6c7442b75164736f6c63430007050033",
  "linkReferences": {},
  "deployedLinkReferences": {}
}