{
  "_format": "hh-sol-artifact-1",
  "contractName": "VaultPriceFeedFacet",
  "sourceName": "contracts/facets/VaultPriceFeed/VaultPriceFeedFacet.sol",
  "abi": [
    {
      "inputs": [
        {
          "internalType": "address",
          "name": "_token",
          "type": "address"
        },
        {
          "internalType": "bool",
          "name": "_maximise",
          "type": "bool"
        },
        {
          "internalType": "bool",
          "name": "",
          "type": "bool"
        }
      ],
      "name": "getPrice",
      "outputs": [
        {
          "internalType": "uint256",
          "name": "",
          "type": "uint256"
        }
      ],
      "stateMutability": "view",
      "type": "function"
    },
    {
      "inputs": [
        {
          "internalType": "address",
          "name": "_token",
          "type": "address"
        },
        {
          "internalType": "bool",
          "name": "_maximise",
          "type": "bool"
        }
      ],
      "name": "getPrimaryPrice",
      "outputs": [
        {
          "internalType": "uint256",
          "name": "",
          "type": "uint256"
        }
      ],
      "stateMutability": "view",
      "type": "function"
    }
  ],
  "bytecode": "0x608060405234801561001057600080fd5b5060008060000160006101000a81548160ff0219169083151502179055506109eb8061003d6000396000f3fe608060405234801561001057600080fd5b50600436106100365760003560e01c806356c8c2c11461003b5780635ae691631461009f575b600080fd5b6100896004803603604081101561005157600080fd5b81019080803573ffffffffffffffffffffffffffffffffffffffff16906020019092919080351515906020019092919050505061010f565b6040518082815260200191505060405180910390f35b6100f9600480360360608110156100b557600080fd5b81019080803573ffffffffffffffffffffffffffffffffffffffff169060200190929190803515159060200190929190803515159060200190929190505050610694565b6040518082815260200191505060405180910390f35b600080600060150160008573ffffffffffffffffffffffffffffffffffffffff1673ffffffffffffffffffffffffffffffffffffffff16815260200190815260200160002060009054906101000a900473ffffffffffffffffffffffffffffffffffffffff169050600073ffffffffffffffffffffffffffffffffffffffff168173ffffffffffffffffffffffffffffffffffffffff16141561021a576040517f08c379a000000000000000000000000000000000000000000000000000000000815260040180806020018281038252601d8152602001807f5072696365466565643a20696e76616c6964207072696365206665656400000081525060200191505060405180910390fd5b60008190506000808273ffffffffffffffffffffffffffffffffffffffff1663668a0f026040518163ffffffff1660e01b815260040160206040518083038186803b15801561026857600080fd5b505afa15801561027c573d6000803e3d6000fd5b505050506040513d602081101561029257600080fd5b8101908080519060200190929190505050905060005b6000601801548169ffffffffffffffffffff161015610595578069ffffffffffffffffffff168269ffffffffffffffffffff16116102e557610595565b6000808269ffffffffffffffffffff1614156103ff5760008573ffffffffffffffffffffffffffffffffffffffff166350d25bcd6040518163ffffffff1660e01b815260040160206040518083038186803b15801561034357600080fd5b505afa158015610357573d6000803e3d6000fd5b505050506040513d602081101561036d57600080fd5b81019080805190602001909291905050509050600081136103f6576040517f08c379a00000000000000000000000000000000000000000000000000000000081526004018080602001828103825260188152602001807f5072696365466565643a20696e76616c6964207072696365000000000000000081525060200191505060405180910390fd5b80915050610544565b60008573ffffffffffffffffffffffffffffffffffffffff16639a6fc8f58486036040518263ffffffff1660e01b8152600401808269ffffffffffffffffffff16815260200191505060a06040518083038186803b15801561046057600080fd5b505afa158015610474573d6000803e3d6000fd5b505050506040513d60a081101561048a57600080fd5b8101908080519060200190929190805190602001909291908051906020019092919080519060200190929190805190602001909291905050505050509150506000811361053f576040517f08c379a00000000000000000000000000000000000000000000000000000000081526004018080602001828103825260188152602001807f5072696365466565643a20696e76616c6964207072696365000000000000000081525060200191505060405180910390fd5b809150505b60008414156105565780935050610588565b87801561056257508381115b156105705780935050610588565b8715801561057d57508381105b15610586578093505b505b80806001019150506102a8565b506000821161060c576040517f08c379a00000000000000000000000000000000000000000000000000000000081526004018080602001828103825260208152602001807f5072696365466565643a20636f756c64206e6f7420666574636820707269636581525060200191505060405180910390fd5b60008060160160008973ffffffffffffffffffffffffffffffffffffffff1673ffffffffffffffffffffffffffffffffffffffff16815260200190815260200160002054905061068781600a0a6106796c0c9f2c9cd04674edea400000008661077a90919063ffffffff16565b61080090919063ffffffff16565b9550505050505092915050565b6000806106a1858561010f565b905060008060170160008773ffffffffffffffffffffffffffffffffffffffff1673ffffffffffffffffffffffffffffffffffffffff16815260200190815260200160002054905084156107335761072a61271061071c61070d8461271061088990919063ffffffff16565b8561077a90919063ffffffff16565b61080090919063ffffffff16565b92505050610773565b61076e6127106107606107518461271061091190919063ffffffff16565b8561077a90919063ffffffff16565b61080090919063ffffffff16565b925050505b9392505050565b60008083141561078d57600090506107fa565b600082840290508284828161079e57fe5b04146107f5576040517f08c379a00000000000000000000000000000000000000000000000000000000081526004018080602001828103825260218152602001806109956021913960400191505060405180910390fd5b809150505b92915050565b6000808211610877576040517f08c379a000000000000000000000000000000000000000000000000000000000815260040180806020018281038252601a8152602001807f536166654d6174683a206469766973696f6e206279207a65726f00000000000081525060200191505060405180910390fd5b81838161088057fe5b04905092915050565b600080828401905083811015610907576040517f08c379a000000000000000000000000000000000000000000000000000000000815260040180806020018281038252601b8152602001807f536166654d6174683a206164646974696f6e206f766572666c6f77000000000081525060200191505060405180910390fd5b8091505092915050565b600082821115610989576040517f08c379a000000000000000000000000000000000000000000000000000000000815260040180806020018281038252601e8152602001807f536166654d6174683a207375627472616374696f6e206f766572666c6f77000081525060200191505060405180910390fd5b81830390509291505056fe536166654d6174683a206d756c7469706c69636174696f6e206f766572666c6f77a2646970667358221220f98a66270eaad4acb9f69d7fac7956ef9a040cb6259913f53f90fede2c5caec164736f6c63430007050033",
  "linkReferences": {},
  "deployedLinkReferences": {}
}