{
  "_format": "hh-sol-artifact-1",
  "contractName": "ZapSP",
  "sourceName": "contracts/core/ZapSP.sol",
  "abi": [
    {
      "inputs": [
        {
          "internalType": "address",
          "name": "_router",
          "type": "address"
        },
        {
          "internalType": "address",
          "name": "_vault",
          "type": "address"
        },
        {
          "internalType": "address",
          "name": "_ndol",
          "type": "address"
        },
        {
          "internalType": "address",
          "name": "_usdc",
          "type": "address"
        },
        {
          "internalType": "address",
          "name": "_rebalancer",
          "type": "address"
        },
        {
          "internalType": "address",
          "name": "_distributor",
          "type": "address"
        },
        {
          "internalType": "address",
          "name": "_deltaYieldTracker",
          "type": "address"
        },
        {
          "internalType": "address",
          "name": "_amm",
          "type": "address"
        }
      ],
      "stateMutability": "nonpayable",
      "type": "constructor"
    },
    {
      "inputs": [
        {
          "internalType": "address",
          "name": "_stableToken",
          "type": "address"
        },
        {
          "internalType": "uint256",
          "name": "_amount",
          "type": "uint256"
        }
      ],
      "name": "deposit",
      "outputs": [],
      "stateMutability": "nonpayable",
      "type": "function"
    },
    {
      "inputs": [],
      "name": "harvest",
      "outputs": [],
      "stateMutability": "nonpayable",
      "type": "function"
    },
    {
      "inputs": [
        {
          "internalType": "address",
          "name": "_nNDOL",
          "type": "address"
        }
      ],
      "name": "setnNDOL",
      "outputs": [],
      "stateMutability": "nonpayable",
      "type": "function"
    },
    {
      "inputs": [],
      "name": "tend",
      "outputs": [],
      "stateMutability": "nonpayable",
      "type": "function"
    },
    {
      "inputs": [
        {
          "internalType": "address",
          "name": "_to",
          "type": "address"
        },
        {
          "internalType": "uint256",
          "name": "_amount",
          "type": "uint256"
        }
      ],
      "name": "withdraw",
      "outputs": [],
      "stateMutability": "nonpayable",
      "type": "function"
    }
  ],
  "bytecode": "0x60806040523480156200001157600080fd5b50604051620034d0380380620034d08339810160408190526200003491620000f2565b600160008190558054336001600160a01b0319918216179091556002805482166001600160a01b039a8b16179055600380548216988a1698909817909755600480548816968916969096179095556006805487169488169490941790935560078054861692871692909217909155600880548516918616919091179055600980548416918516919091179055600a805490921692169190911790556200019a565b80516001600160a01b0381168114620000ed57600080fd5b919050565b600080600080600080600080610100898b0312156200011057600080fd5b6200011b89620000d5565b97506200012b60208a01620000d5565b96506200013b60408a01620000d5565b95506200014b60608a01620000d5565b94506200015b60808a01620000d5565b93506200016b60a08a01620000d5565b92506200017b60c08a01620000d5565b91506200018b60e08a01620000d5565b90509295985092959890939650565b61332680620001aa6000396000f3fe608060405234801561001057600080fd5b50600436106100575760003560e01c8063440368a31461005c5780634641257d1461006657806347e7ef241461006e5780635feb826c14610081578063f3fef3a314610094575b600080fd5b6100646100a7565b005b610064611a53565b61006461007c366004612eeb565b611f99565b61006461008f366004612eb1565b612b0b565b6100646100a2366004612eeb565b612b35565b600260005414156100d35760405162461bcd60e51b81526004016100ca90613145565b60405180910390fd5b60026000908155600480546040516370a0823160e01b81526001600160a01b03909116916370a0823191610109913091016130c6565b60206040518083038186803b15801561012157600080fd5b505afa158015610135573d6000803e3d6000fd5b505050506040513d601f19601f820116820180604052508101906101599190613069565b6003546006546040516352f55eed60e01b815292935083926001600160a01b03928316926352f55eed92610192929116906004016130c6565b60206040518083038186803b1580156101aa57600080fd5b505afa1580156101be573d6000803e3d6000fd5b505050506040513d601f19601f820116820180604052508101906101e29190613069565b10610d5e57604080516002808252606082018352600092602083019080368337505060045482519293506001600160a01b031691839150600090610228576102286132ac565b6001600160a01b039283166020918202929092010152600654825191169082906001908110610259576102596132ac565b6001600160a01b03928316602091820292909201015260048054600254604051636eb1769f60e11b81529184169363dd62ed3e9361029d93309390921691016130da565b60206040518083038186803b1580156102b557600080fd5b505afa1580156102c9573d6000803e3d6000fd5b505050506040513d601f19601f820116820180604052508101906102ed9190613069565b61037b576004805460025460405163095ea7b360e01b81526001600160a01b039283169363095ea7b39361032793169160001991016130f4565b602060405180830381600087803b15801561034157600080fd5b505af1158015610355573d6000803e3d6000fd5b505050506040513d601f19601f820116820180604052508101906103799190613047565b505b600254604051633011f4b360e11b81526001600160a01b0390911690636023e966906103b29084908690600090309060040161310d565b600060405180830381600087803b1580156103cc57600080fd5b505af11580156103e0573d6000803e3d6000fd5b5050600654600a54604051636eb1769f60e11b81526001600160a01b03928316945063dd62ed3e935061041992309216906004016130da565b60206040518083038186803b15801561043157600080fd5b505afa158015610445573d6000803e3d6000fd5b505050506040513d601f19601f820116820180604052508101906104699190613069565b6104f957600654600a5460405163095ea7b360e01b81526001600160a01b039283169263095ea7b3926104a592911690600019906004016130f4565b602060405180830381600087803b1580156104bf57600080fd5b505af11580156104d3573d6000803e3d6000fd5b505050506040513d601f19601f820116820180604052508101906104f79190613047565b505b60085460408051633c5c931b60e11b815290516000926001600160a01b0316916378b926369160048083019286929190829003018186803b15801561053d57600080fd5b505afa158015610551573d6000803e3d6000fd5b505050506040513d6000823e601f3d908101601f191682016040526105799190810190612f17565b6040805160028082526060820183529293506000929091602083019080368337505060065482519293506001600160a01b0316918391506000906105bf576105bf6132ac565b6001600160a01b03929092166020928302919091018201526040805160028082526060820183526000939192909183019080368337505060045482519293506001600160a01b031691839150600190811061061c5761061c6132ac565b60200260200101906001600160a01b031690816001600160a01b03168152505060005b8351811015610aa25760075484516000916001600160a01b03169063ded6338b90879085908110610672576106726132ac565b60209081029190910101516006546040516370a0823160e01b81526001600160a01b03909116906370a08231906106ad9030906004016130c6565b60206040518083038186803b1580156106c557600080fd5b505afa1580156106d9573d6000803e3d6000fd5b505050506040513d601f19601f820116820180604052508101906106fd9190613069565b6040518363ffffffff1660e01b815260040161071a9291906130f4565b60206040518083038186803b15801561073257600080fd5b505afa158015610746573d6000803e3d6000fd5b505050506040513d601f19601f8201168201806040525081019061076a9190613069565b905084828151811061077e5761077e6132ac565b602002602001015184600181518110610799576107996132ac565b6001600160a01b039290921660209283029190910182015260408051600180825281830190925260009283929082810190803683375050600a54919250506001600160a01b03166338ed173984600089306107f64261025861320b565b6040518663ffffffff1660e01b815260040161081695949392919061317c565b600060405180830381600087803b15801561083057600080fd5b505af1158015610844573d6000803e3d6000fd5b505050506040513d6000823e601f3d908101601f1916820160405261086c9190810190612fbc565b905080600081518110610881576108816132ac565b6020026020010151915086848151811061089d5761089d6132ac565b6020026020010151856000815181106108b8576108b86132ac565b60200260200101906001600160a01b031690816001600160a01b0316815250508684815181106108ea576108ea6132ac565b6020908102919091010151600254604051636eb1769f60e11b81526001600160a01b039283169263dd62ed3e92610929923092909116906004016130da565b60206040518083038186803b15801561094157600080fd5b505afa158015610955573d6000803e3d6000fd5b505050506040513d601f19601f820116820180604052508101906109799190613069565b610a235786848151811061098f5761098f6132ac565b602090810291909101015160025460405163095ea7b360e01b81526001600160a01b039283169263095ea7b3926109cf92911690600019906004016130f4565b602060405180830381600087803b1580156109e957600080fd5b505af11580156109fd573d6000803e3d6000fd5b505050506040513d601f19601f82011682018060405250810190610a219190613047565b505b600254604051633011f4b360e11b81526001600160a01b0390911690636023e96690610a5a9088908690600090309060040161310d565b600060405180830381600087803b158015610a7457600080fd5b505af1158015610a88573d6000803e3d6000fd5b505050505050508080610a9a9061327b565b91505061063f565b506006546040516370a0823160e01b81526000916001600160a01b0316906370a0823190610ad49030906004016130c6565b60206040518083038186803b158015610aec57600080fd5b505afa158015610b00573d6000803e3d6000fd5b505050506040513d601f19601f82011682018060405250810190610b249190613069565b1115610d5557600654600254604051636eb1769f60e11b81526001600160a01b039283169263dd62ed3e92610b61923092909116906004016130da565b60206040518083038186803b158015610b7957600080fd5b505afa158015610b8d573d6000803e3d6000fd5b505050506040513d601f19601f82011682018060405250810190610bb19190613069565b610c415760065460025460405163095ea7b360e01b81526001600160a01b039283169263095ea7b392610bed92911690600019906004016130f4565b602060405180830381600087803b158015610c0757600080fd5b505af1158015610c1b573d6000803e3d6000fd5b505050506040513d601f19601f82011682018060405250810190610c3f9190613047565b505b60065481516001600160a01b03909116908290600090610c6357610c636132ac565b6001600160a01b0392831660209182029290920101526002546006546040516370a0823160e01b815291831692636023e966928592909116906370a0823190610cb09030906004016130c6565b60206040518083038186803b158015610cc857600080fd5b505afa158015610cdc573d6000803e3d6000fd5b505050506040513d601f19601f82011682018060405250810190610d009190613069565b6000306040518563ffffffff1660e01b8152600401610d22949392919061310d565b600060405180830381600087803b158015610d3c57600080fd5b505af1158015610d50573d6000803e3d6000fd5b505050505b50505050611a4b565b60085460408051633c5c931b60e11b815290516000926001600160a01b0316916378b926369160048083019286929190829003018186803b158015610da257600080fd5b505afa158015610db6573d6000803e3d6000fd5b505050506040513d6000823e601f3d908101601f19168201604052610dde9190810190612f17565b6040805160028082526060820183529293508492600092602083019080368337505060045482519293506001600160a01b031691839150600090610e2457610e246132ac565b6001600160a01b03929092166020928302919091018201526040805160028082526060820183526000939192909183019080368337505060408051600280825260608201835293945060009390925090602083019080368337505060045482519293506001600160a01b0316918391506001908110610ea557610ea56132ac565b60200260200101906001600160a01b031690816001600160a01b03168152505060005b8551811015611a445760035486516001600160a01b03909116906342b60b0390889084908110610efa57610efa6132ac565b60200260200101516040518263ffffffff1660e01b8152600401610f1e91906130c6565b60206040518083038186803b158015610f3657600080fd5b505afa158015610f4a573d6000803e3d6000fd5b505050506040513d601f19601f82011682018060405250810190610f6e9190613047565b1515600114610f7c57611a32565b84610f8657611a44565b858181518110610f9857610f986132ac565b602002602001015184600181518110610fb357610fb36132ac565b6001600160a01b039283166020918202929092010152600354875160009291909116906352f55eed90899085908110610fee57610fee6132ac565b60200260200101516040518263ffffffff1660e01b815260040161101291906130c6565b60206040518083038186803b15801561102a57600080fd5b505afa15801561103e573d6000803e3d6000fd5b505050506040513d601f19601f820116820180604052508101906110629190613069565b60048054600254604051636eb1769f60e11b81529394506001600160a01b039182169363dd62ed3e936110999330931691016130da565b60206040518083038186803b1580156110b157600080fd5b505afa1580156110c5573d6000803e3d6000fd5b505050506040513d601f19601f820116820180604052508101906110e99190613069565b611177576004805460025460405163095ea7b360e01b81526001600160a01b039283169363095ea7b39361112393169160001991016130f4565b602060405180830381600087803b15801561113d57600080fd5b505af1158015611151573d6000803e3d6000fd5b505050506040513d601f19601f820116820180604052508101906111759190613047565b505b6002546001600160a01b0316636023e96686838911156111975783611199565b885b6000306040518563ffffffff1660e01b81526004016111bb949392919061310d565b600060405180830381600087803b1580156111d557600080fd5b505af11580156111e9573d6000803e3d6000fd5b505050508682815181106111ff576111ff6132ac565b60200260200101518460008151811061121a5761121a6132ac565b60200260200101906001600160a01b031690816001600160a01b03168152505060005b87518110156116ed57878181518110611258576112586132ac565b602002602001015185600181518110611273576112736132ac565b6001600160a01b0392831660209182029290920101526007548951600092919091169063ded6338b908b90859081106112ae576112ae6132ac565b60200260200101518b87815181106112c8576112c86132ac565b60200260200101516001600160a01b03166370a08231306040518263ffffffff1660e01b81526004016112fb91906130c6565b60206040518083038186803b15801561131357600080fd5b505afa158015611327573d6000803e3d6000fd5b505050506040513d601f19601f8201168201806040525081019061134b9190613069565b6040518363ffffffff1660e01b81526004016113689291906130f4565b60206040518083038186803b15801561138057600080fd5b505afa158015611394573d6000803e3d6000fd5b505050506040513d601f19601f820116820180604052508101906113b89190613069565b90508882815181106113cc576113cc6132ac565b6020908102919091010151600a54604051636eb1769f60e11b81526001600160a01b039283169263dd62ed3e9261140b923092909116906004016130da565b60206040518083038186803b15801561142357600080fd5b505afa158015611437573d6000803e3d6000fd5b505050506040513d601f19601f8201168201806040525081019061145b9190613069565b61150557888281518110611471576114716132ac565b6020908102919091010151600a5460405163095ea7b360e01b81526001600160a01b039283169263095ea7b3926114b192911690600019906004016130f4565b602060405180830381600087803b1580156114cb57600080fd5b505af11580156114df573d6000803e3d6000fd5b505050506040513d601f19601f820116820180604052508101906115039190613047565b505b600a546001600160a01b03166338ed173982600089306115274261025861320b565b6040518663ffffffff1660e01b815260040161154795949392919061317c565b600060405180830381600087803b15801561156157600080fd5b505af1158015611575573d6000803e3d6000fd5b505050506040513d6000823e601f3d908101601f1916820160405261159d9190810190612fbc565b508882815181106115b0576115b06132ac565b6020026020010151856000815181106115cb576115cb6132ac565b6001600160a01b0392831660209182029290920101526002548651911690636023e9669087908190600090611602576116026132ac565b60200260200101516001600160a01b03166370a08231306040518263ffffffff1660e01b815260040161163591906130c6565b60206040518083038186803b15801561164d57600080fd5b505afa158015611661573d6000803e3d6000fd5b505050506040513d601f19601f820116820180604052508101906116859190613069565b6000306040518563ffffffff1660e01b81526004016116a7949392919061310d565b600060405180830381600087803b1580156116c157600080fd5b505af11580156116d5573d6000803e3d6000fd5b505050505080806116e59061327b565b91505061123d565b506000878381518110611702576117026132ac565b60200260200101516001600160a01b03166370a08231306040518263ffffffff1660e01b815260040161173591906130c6565b60206040518083038186803b15801561174d57600080fd5b505afa158015611761573d6000803e3d6000fd5b505050506040513d601f19601f820116820180604052508101906117859190613069565b1115611a135786828151811061179d5761179d6132ac565b6020908102919091010151600254604051636eb1769f60e11b81526001600160a01b039283169263dd62ed3e926117dc923092909116906004016130da565b60206040518083038186803b1580156117f457600080fd5b505afa158015611808573d6000803e3d6000fd5b505050506040513d601f19601f8201168201806040525081019061182c9190613069565b6118d657868281518110611842576118426132ac565b602090810291909101015160025460405163095ea7b360e01b81526001600160a01b039283169263095ea7b39261188292911690600019906004016130f4565b602060405180830381600087803b15801561189c57600080fd5b505af11580156118b0573d6000803e3d6000fd5b505050506040513d601f19601f820116820180604052508101906118d49190613047565b505b8682815181106118e8576118e86132ac565b602002602001015183600081518110611903576119036132ac565b6001600160a01b0392831660209182029290920101526002548851911690636023e9669085908a908690811061193b5761193b6132ac565b60200260200101516001600160a01b03166370a08231306040518263ffffffff1660e01b815260040161196e91906130c6565b60206040518083038186803b15801561198657600080fd5b505afa15801561199a573d6000803e3d6000fd5b505050506040513d601f19601f820116820180604052508101906119be9190613069565b6000306040518563ffffffff1660e01b81526004016119e0949392919061310d565b600060405180830381600087803b1580156119fa57600080fd5b505af1158015611a0e573d6000803e3d6000fd5b505050505b808611611a235760009550611a30565b611a2d8682612e37565b95505b505b80611a3c8161327b565b915050610ec8565b5050505050505b506001600055565b60026000541415611a765760405162461bcd60e51b81526004016100ca90613145565b6002600090815560095460405163402914f560e01b81526001600160a01b039091169063402914f590611aad9030906004016130c6565b60206040518083038186803b158015611ac557600080fd5b505afa158015611ad9573d6000803e3d6000fd5b505050506040513d601f19601f82011682018060405250810190611afd9190613069565b11611b415760405162461bcd60e51b81526020600482015260146024820152735a617053503a206e6f7420636c61696d61626c6560601b60448201526064016100ca565b600954604051630f41a04d60e11b81526001600160a01b0390911690631e83409a90611b719030906004016130c6565b600060405180830381600087803b158015611b8b57600080fd5b505af1158015611b9f573d6000803e3d6000fd5b505050506000600860009054906101000a90046001600160a01b03166001600160a01b03166369940d796040518163ffffffff1660e01b815260040160206040518083038186803b158015611bf357600080fd5b505afa158015611c07573d6000803e3d6000fd5b505050506040513d601f19601f82011682018060405250810190611c2b9190612ece565b90506000816001600160a01b03166370a08231306040518263ffffffff1660e01b8152600401611c5b91906130c6565b60206040518083038186803b158015611c7357600080fd5b505afa158015611c87573d6000803e3d6000fd5b505050506040513d601f19601f82011682018060405250810190611cab9190613069565b90506000600860009054906101000a90046001600160a01b03166001600160a01b03166378b926366040518163ffffffff1660e01b815260040160006040518083038186803b158015611cfd57600080fd5b505afa158015611d11573d6000803e3d6000fd5b505050506040513d6000823e601f3d908101601f19168201604052611d399190810190612f17565b60035460405163c4fd314760e01b8152600481018590523060248201529192506001600160a01b03169063c4fd314790604401600060405180830381600087803b158015611d8657600080fd5b505af1158015611d9a573d6000803e3d6000fd5b505050506040513d6000823e601f3d908101601f19168201604052611dc29190810190612fbc565b50604080516002808252606082018352600092602083019080368337505060045482519293506001600160a01b0316918391506001908110611e0657611e066132ac565b60200260200101906001600160a01b031690816001600160a01b03168152505060005b8251811015611f8d576000838281518110611e4657611e466132ac565b60200260200101516001600160a01b03166370a08231306040518263ffffffff1660e01b8152600401611e7991906130c6565b60206040518083038186803b158015611e9157600080fd5b505afa158015611ea5573d6000803e3d6000fd5b505050506040513d601f19601f82011682018060405250810190611ec99190613069565b905080611ed65750611f7b565b838281518110611ee857611ee86132ac565b602002602001015183600081518110611f0357611f036132ac565b6001600160a01b039283166020918202929092010152600254604051633011f4b360e11b8152911690636023e96690611f479086908590600090309060040161310d565b600060405180830381600087803b158015611f6157600080fd5b505af1158015611f75573d6000803e3d6000fd5b50505050505b80611f858161327b565b915050611e29565b50506001600055505050565b6003546040516342b60b0360e01b81526001600160a01b03909116906342b60b0390611fc99085906004016130c6565b60206040518083038186803b158015611fe157600080fd5b505afa158015611ff5573d6000803e3d6000fd5b505050506040513d601f19601f820116820180604052508101906120199190613047565b15156001146120685760405162461bcd60e51b815260206004820152601b60248201527a2d30b829a81d1034b73b30b634b2102fb9ba30b13632aa37b5b2b760291b60448201526064016100ca565b6040516370a0823160e01b815281906001600160a01b038416906370a08231906120969033906004016130c6565b60206040518083038186803b1580156120ae57600080fd5b505afa1580156120c2573d6000803e3d6000fd5b505050506040513d601f19601f820116820180604052508101906120e69190613069565b101561212d5760405162461bcd60e51b815260206004820152601660248201527516985c14d40e881a5b9d985b1a590817d85b5bdd5b9d60521b60448201526064016100ca565b6040516323b872dd60e01b8152336004820152306024820152604481018290526001600160a01b038316906323b872dd90606401602060405180830381600087803b15801561217b57600080fd5b505af115801561218f573d6000803e3d6000fd5b505050506040513d601f19601f820116820180604052508101906121b39190613047565b5060085460408051633c5c931b60e11b815290516000926001600160a01b0316916378b926369160048083019286929190829003018186803b1580156121f857600080fd5b505afa15801561220c573d6000803e3d6000fd5b505050506040513d6000823e601f3d908101601f191682016040526122349190810190612f17565b6040805160028082526060820183529293506000929091602083019080368337019050509050838160008151811061226e5761226e6132ac565b6001600160a01b03929092166020928302919091018201526040805160028082526060820183526000939192909183019080368337505060045482519293506001600160a01b03169183915060019081106122cb576122cb6132ac565b60200260200101906001600160a01b031690816001600160a01b03168152505060005b835181101561287857838181518110612309576123096132ac565b602002602001015183600181518110612324576123246132ac565b60200260200101906001600160a01b031690816001600160a01b031681525050838181518110612356576123566132ac565b60200260200101516001600160a01b0316866001600160a01b0316146125da5760075484516000916001600160a01b03169063ded6338b908790859081106123a0576123a06132ac565b6020026020010151886040518363ffffffff1660e01b81526004016123c69291906130f4565b60206040518083038186803b1580156123de57600080fd5b505afa1580156123f2573d6000803e3d6000fd5b505050506040513d601f19601f820116820180604052508101906124169190613069565b600a54604051636eb1769f60e11b81529192506001600160a01b03808a169263dd62ed3e9261244c9230929116906004016130da565b60206040518083038186803b15801561246457600080fd5b505afa158015612478573d6000803e3d6000fd5b505050506040513d601f19601f8201168201806040525081019061249c9190613069565b61252a57600a5460405163095ea7b360e01b81526001600160a01b038981169263095ea7b3926124d69290911690600019906004016130f4565b602060405180830381600087803b1580156124f057600080fd5b505af1158015612504573d6000803e3d6000fd5b505050506040513d601f19601f820116820180604052508101906125289190613047565b505b80156125ce57600a546001600160a01b03166338ed173982600087306125524261025861320b565b6040518663ffffffff1660e01b815260040161257295949392919061317c565b600060405180830381600087803b15801561258c57600080fd5b505af11580156125a0573d6000803e3d6000fd5b505050506040513d6000823e601f3d908101601f191682016040526125c89190810190612fbc565b506125d4565b50612866565b506125df565b612866565b8381815181106125f1576125f16132ac565b6020908102919091010151600254604051636eb1769f60e11b81526001600160a01b039283169263dd62ed3e92612630923092909116906004016130da565b60206040518083038186803b15801561264857600080fd5b505afa15801561265c573d6000803e3d6000fd5b505050506040513d601f19601f820116820180604052508101906126809190613069565b61272a57838181518110612696576126966132ac565b602090810291909101015160025460405163095ea7b360e01b81526001600160a01b039283169263095ea7b3926126d692911690600019906004016130f4565b602060405180830381600087803b1580156126f057600080fd5b505af1158015612704573d6000803e3d6000fd5b505050506040513d601f19601f820116820180604052508101906127289190613047565b505b83818151811061273c5761273c6132ac565b602002602001015182600081518110612757576127576132ac565b6001600160a01b0392831660209182029290920101526002548351911690636023e966908490819060009061278e5761278e6132ac565b60200260200101516001600160a01b03166370a08231306040518263ffffffff1660e01b81526004016127c191906130c6565b60206040518083038186803b1580156127d957600080fd5b505afa1580156127ed573d6000803e3d6000fd5b505050506040513d601f19601f820116820180604052508101906128119190613069565b6000306040518563ffffffff1660e01b8152600401612833949392919061310d565b600060405180830381600087803b15801561284d57600080fd5b505af1158015612861573d6000803e3d6000fd5b505050505b806128708161327b565b9150506122ee565b506040516370a0823160e01b81526000906001600160a01b038716906370a08231906128a89030906004016130c6565b60206040518083038186803b1580156128c057600080fd5b505afa1580156128d4573d6000803e3d6000fd5b505050506040513d601f19601f820116820180604052508101906128f89190613069565b90508015612a9f578582600081518110612914576129146132ac565b6001600160a01b039283166020918202929092010152600254604051636eb1769f60e11b81528883169263dd62ed3e9261295792309291909116906004016130da565b60206040518083038186803b15801561296f57600080fd5b505afa158015612983573d6000803e3d6000fd5b505050506040513d601f19601f820116820180604052508101906129a79190613069565b612a355760025460405163095ea7b360e01b81526001600160a01b038881169263095ea7b3926129e19290911690600019906004016130f4565b602060405180830381600087803b1580156129fb57600080fd5b505af1158015612a0f573d6000803e3d6000fd5b505050506040513d601f19601f82011682018060405250810190612a339190613047565b505b600254604051633011f4b360e11b81526001600160a01b0390911690636023e96690612a6c9085908590600090309060040161310d565b600060405180830381600087803b158015612a8657600080fd5b505af1158015612a9a573d6000803e3d6000fd5b505050505b6005546040516340c10f1960e01b81526001600160a01b03909116906340c10f1990612ad190339089906004016130f4565b600060405180830381600087803b158015612aeb57600080fd5b505af1158015612aff573d6000803e3d6000fd5b50505050505050505050565b612b13612e4a565b600580546001600160a01b0319166001600160a01b0392909216919091179055565b60026000541415612b585760405162461bcd60e51b81526004016100ca90613145565b60026000556005546040516370a0823160e01b815282916001600160a01b0316906370a0823190612b8d9033906004016130c6565b60206040518083038186803b158015612ba557600080fd5b505afa158015612bb9573d6000803e3d6000fd5b505050506040513d601f19601f82011682018060405250810190612bdd9190613069565b1015612c2a5760405162461bcd60e51b815260206004820152601c60248201527b16985c14d40e881a5b9d985b1a59081b939554d10817d85b5bdd5b9d60221b60448201526064016100ca565b6000612d44600560009054906101000a90046001600160a01b03166001600160a01b03166318160ddd6040518163ffffffff1660e01b815260040160206040518083038186803b158015612c7d57600080fd5b505afa158015612c91573d6000803e3d6000fd5b505050506040513d601f19601f82011682018060405250810190612cb59190613069565b600480546040516370a0823160e01b8152612d3e9287926001600160a01b0316916370a0823191612ce8913091016130c6565b60206040518083038186803b158015612d0057600080fd5b505afa158015612d14573d6000803e3d6000fd5b505050506040513d601f19601f82011682018060405250810190612d389190613069565b90612e99565b90612ea5565b600554604051632770a7eb60e21b81529192506001600160a01b031690639dc29fac90612d7790339086906004016130f4565b600060405180830381600087803b158015612d9157600080fd5b505af1158015612da5573d6000803e3d6000fd5b50506004805460405163a9059cbb60e01b81526001600160a01b03909116935063a9059cbb9250612dda9187918691016130f4565b602060405180830381600087803b158015612df457600080fd5b505af1158015612e08573d6000803e3d6000fd5b505050506040513d601f19601f82011682018060405250810190612e2c9190613047565b505060016000555050565b6000612e438284613264565b9392505050565b6001546001600160a01b03163314612e975760405162461bcd60e51b815260206004820152601060248201526f2b30bab63a1d103337b93134b23232b760811b60448201526064016100ca565b565b6000612e438284613245565b6000612e438284613223565b600060208284031215612ec357600080fd5b8135612e43816132d8565b600060208284031215612ee057600080fd5b8151612e43816132d8565b60008060408385031215612efe57600080fd5b8235612f09816132d8565b946020939093013593505050565b60006020808385031215612f2a57600080fd5b82516001600160401b03811115612f4057600080fd5b8301601f81018513612f5157600080fd5b8051612f64612f5f826131e8565b6131b8565b80828252848201915084840188868560051b8701011115612f8457600080fd5b600094505b83851015612fb0578051612f9c816132d8565b835260019490940193918501918501612f89565b50979650505050505050565b60006020808385031215612fcf57600080fd5b82516001600160401b03811115612fe557600080fd5b8301601f81018513612ff657600080fd5b8051613004612f5f826131e8565b80828252848201915084840188868560051b870101111561302457600080fd5b600094505b83851015612fb0578051835260019490940193918501918501613029565b60006020828403121561305957600080fd5b81518015158114612e4357600080fd5b60006020828403121561307b57600080fd5b5051919050565b600081518084526020808501945080840160005b838110156130bb5781516001600160a01b031687529582019590820190600101613096565b509495945050505050565b6001600160a01b0391909116815260200190565b6001600160a01b0392831681529116602082015260400190565b6001600160a01b03929092168252602082015260400190565b6080815260006131206080830187613082565b60208301959095525060408101929092526001600160a01b0316606090910152919050565b6020808252601f908201527f5265656e7472616e637947756172643a207265656e7472616e742063616c6c00604082015260600190565b85815284602082015260a06040820152600061319b60a0830186613082565b6001600160a01b0394909416606083015250608001529392505050565b604051601f8201601f191681016001600160401b03811182821017156131e0576131e06132c2565b604052919050565b60006001600160401b03821115613201576132016132c2565b5060051b60200190565b6000821982111561321e5761321e613296565b500190565b60008261324057634e487b7160e01b600052601260045260246000fd5b500490565b600081600019048311821515161561325f5761325f613296565b500290565b60008282101561327657613276613296565b500390565b600060001982141561328f5761328f613296565b5060010190565b634e487b7160e01b600052601160045260246000fd5b634e487b7160e01b600052603260045260246000fd5b634e487b7160e01b600052604160045260246000fd5b6001600160a01b03811681146132ed57600080fd5b5056fea26469706673582212207b43ad95833c7834cbc3f7d34a830a02d30991ae4d276ed024af593121525a8a64736f6c63430008070033",
  "linkReferences": {},
  "deployedLinkReferences": {}
}